{
	"contracts/TaxiChain.sol": {
		"TaxiService": {
			"abi": [
				{
					"inputs": [],
					"stateMutability": "nonpayable",
					"type": "constructor"
				},
				{
					"anonymous": false,
					"inputs": [
						{
							"indexed": false,
							"internalType": "uint256",
							"name": "tripCode",
							"type": "uint256"
						},
						{
							"indexed": false,
							"internalType": "address",
							"name": "passenger",
							"type": "address"
						},
						{
							"indexed": false,
							"internalType": "uint256",
							"name": "amount",
							"type": "uint256"
						},
						{
							"indexed": false,
							"internalType": "uint256",
							"name": "tax",
							"type": "uint256"
						},
						{
							"indexed": false,
							"internalType": "bytes32",
							"name": "transactionHash",
							"type": "bytes32"
						}
					],
					"name": "PassengerJoinedTrip",
					"type": "event"
				},
				{
					"anonymous": false,
					"inputs": [
						{
							"indexed": false,
							"internalType": "uint256",
							"name": "tripCode",
							"type": "uint256"
						}
					],
					"name": "TripCompleted",
					"type": "event"
				},
				{
					"anonymous": false,
					"inputs": [
						{
							"indexed": false,
							"internalType": "uint256",
							"name": "tripCounter",
							"type": "uint256"
						},
						{
							"indexed": false,
							"internalType": "address",
							"name": "driver",
							"type": "address"
						},
						{
							"indexed": false,
							"internalType": "uint256",
							"name": "fare",
							"type": "uint256"
						},
						{
							"indexed": false,
							"internalType": "string",
							"name": "details",
							"type": "string"
						}
					],
					"name": "TripCreated",
					"type": "event"
				},
				{
					"inputs": [
						{
							"internalType": "uint256",
							"name": "_tripCode",
							"type": "uint256"
						}
					],
					"name": "completeTrip",
					"outputs": [],
					"stateMutability": "nonpayable",
					"type": "function"
				},
				{
					"inputs": [
						{
							"internalType": "uint256",
							"name": "_fare",
							"type": "uint256"
						},
						{
							"internalType": "string",
							"name": "_details",
							"type": "string"
						},
						{
							"internalType": "string",
							"name": "_rankName",
							"type": "string"
						},
						{
							"internalType": "string",
							"name": "_registration",
							"type": "string"
						},
						{
							"internalType": "bool",
							"name": "_verified",
							"type": "bool"
						}
					],
					"name": "createTrip",
					"outputs": [
						{
							"internalType": "uint256",
							"name": "",
							"type": "uint256"
						}
					],
					"stateMutability": "nonpayable",
					"type": "function"
				},
				{
					"inputs": [
						{
							"internalType": "bytes32",
							"name": "_transactionHash",
							"type": "bytes32"
						}
					],
					"name": "getTransactionDetails",
					"outputs": [
						{
							"internalType": "uint256",
							"name": "tripCode",
							"type": "uint256"
						},
						{
							"internalType": "address",
							"name": "passenger",
							"type": "address"
						},
						{
							"internalType": "uint256",
							"name": "amount",
							"type": "uint256"
						},
						{
							"internalType": "uint256",
							"name": "tax",
							"type": "uint256"
						},
						{
							"internalType": "uint256",
							"name": "timestamp",
							"type": "uint256"
						}
					],
					"stateMutability": "view",
					"type": "function"
				},
				{
					"inputs": [
						{
							"internalType": "uint256",
							"name": "_tripCode",
							"type": "uint256"
						}
					],
					"name": "getTripDetails",
					"outputs": [
						{
							"internalType": "uint256",
							"name": "tripCode",
							"type": "uint256"
						},
						{
							"internalType": "string",
							"name": "rankName",
							"type": "string"
						},
						{
							"internalType": "string",
							"name": "registration",
							"type": "string"
						},
						{
							"internalType": "bool",
							"name": "verified",
							"type": "bool"
						},
						{
							"internalType": "string",
							"name": "route",
							"type": "string"
						},
						{
							"internalType": "uint256",
							"name": "price",
							"type": "uint256"
						},
						{
							"internalType": "uint256",
							"name": "capacity",
							"type": "uint256"
						},
						{
							"internalType": "address",
							"name": "driver",
							"type": "address"
						},
						{
							"internalType": "address[]",
							"name": "passengers",
							"type": "address[]"
						},
						{
							"internalType": "bytes32",
							"name": "transactionHash",
							"type": "bytes32"
						},
						{
							"internalType": "bool",
							"name": "completed",
							"type": "bool"
						}
					],
					"stateMutability": "view",
					"type": "function"
				},
				{
					"inputs": [
						{
							"internalType": "uint256",
							"name": "_tripCode",
							"type": "uint256"
						}
					],
					"name": "joinTrip",
					"outputs": [],
					"stateMutability": "payable",
					"type": "function"
				},
				{
					"inputs": [],
					"name": "taxRate",
					"outputs": [
						{
							"internalType": "uint256",
							"name": "",
							"type": "uint256"
						}
					],
					"stateMutability": "view",
					"type": "function"
				},
				{
					"inputs": [],
					"name": "tripCounter",
					"outputs": [
						{
							"internalType": "uint256",
							"name": "",
							"type": "uint256"
						}
					],
					"stateMutability": "view",
					"type": "function"
				}
			],
			"devdoc": {
				"kind": "dev",
				"methods": {},
				"version": 1
			},
			"evm": {
				"assembly": "    /* \"contracts/TaxiChain.sol\":68:4539  contract TaxiService {... */\n  mstore(0x40, 0x80)\n    /* \"contracts/TaxiChain.sol\":1025:1067  constructor() {... */\n  callvalue\n  dup1\n  iszero\n  tag_1\n  jumpi\n  0x00\n  dup1\n  revert\ntag_1:\n  pop\n    /* \"contracts/TaxiChain.sol\":1060:1061  0 */\n  0x00\n    /* \"contracts/TaxiChain.sol\":1046:1057  tripCounter */\n  0x02\n    /* \"contracts/TaxiChain.sol\":1046:1061  tripCounter = 0 */\n  dup2\n  swap1\n  sstore\n  pop\n    /* \"contracts/TaxiChain.sol\":68:4539  contract TaxiService {... */\n  dataSize(sub_0)\n  dup1\n  dataOffset(sub_0)\n  0x00\n  codecopy\n  0x00\n  return\nstop\n\nsub_0: assembly {\n        /* \"contracts/TaxiChain.sol\":68:4539  contract TaxiService {... */\n      mstore(0x40, 0x80)\n      jumpi(tag_1, lt(calldatasize, 0x04))\n      shr(0xe0, calldataload(0x00))\n      dup1\n      0x6fa4ec27\n      gt\n      tag_9\n      jumpi\n      dup1\n      0x6fa4ec27\n      eq\n      tag_5\n      jumpi\n      dup1\n      0x771a3a1d\n      eq\n      tag_6\n      jumpi\n      dup1\n      0xc1917e79\n      eq\n      tag_7\n      jumpi\n      dup1\n      0xc99e7333\n      eq\n      tag_8\n      jumpi\n      jump(tag_1)\n    tag_9:\n      dup1\n      0x124c128e\n      eq\n      tag_2\n      jumpi\n      dup1\n      0x13c3ea33\n      eq\n      tag_3\n      jumpi\n      dup1\n      0x515a39b6\n      eq\n      tag_4\n      jumpi\n    tag_1:\n      0x00\n      dup1\n      revert\n        /* \"contracts/TaxiChain.sol\":3430:4149  function getTripDetails(... */\n    tag_2:\n      callvalue\n      dup1\n      iszero\n      tag_10\n      jumpi\n      0x00\n      dup1\n      revert\n    tag_10:\n      pop\n      tag_11\n      0x04\n      dup1\n      calldatasize\n      sub\n      dup2\n      add\n      swap1\n      tag_12\n      swap2\n      swap1\n      tag_13\n      jump\t// in\n    tag_12:\n      tag_14\n      jump\t// in\n    tag_11:\n      mload(0x40)\n      tag_15\n      swap12\n      swap11\n      swap10\n      swap9\n      swap8\n      swap7\n      swap6\n      swap5\n      swap4\n      swap3\n      swap2\n      swap1\n      tag_16\n      jump\t// in\n    tag_15:\n      mload(0x40)\n      dup1\n      swap2\n      sub\n      swap1\n      return\n        /* \"contracts/TaxiChain.sol\":2179:3150  function joinTrip(... */\n    tag_3:\n      tag_17\n      0x04\n      dup1\n      calldatasize\n      sub\n      dup2\n      add\n      swap1\n      tag_18\n      swap2\n      swap1\n      tag_13\n      jump\t// in\n    tag_18:\n      tag_19\n      jump\t// in\n    tag_17:\n      stop\n        /* \"contracts/TaxiChain.sol\":4155:4536  function getTransactionDetails(... */\n    tag_4:\n      callvalue\n      dup1\n      iszero\n      tag_20\n      jumpi\n      0x00\n      dup1\n      revert\n    tag_20:\n      pop\n      tag_21\n      0x04\n      dup1\n      calldatasize\n      sub\n      dup2\n      add\n      swap1\n      tag_22\n      swap2\n      swap1\n      tag_23\n      jump\t// in\n    tag_22:\n      tag_24\n      jump\t// in\n    tag_21:\n      mload(0x40)\n      tag_25\n      swap6\n      swap5\n      swap4\n      swap3\n      swap2\n      swap1\n      tag_26\n      jump\t// in\n    tag_25:\n      mload(0x40)\n      dup1\n      swap2\n      sub\n      swap1\n      return\n        /* \"contracts/TaxiChain.sol\":683:709  uint256 public tripCounter */\n    tag_5:\n      callvalue\n      dup1\n      iszero\n      tag_27\n      jumpi\n      0x00\n      dup1\n      revert\n    tag_27:\n      pop\n      tag_28\n      tag_29\n      jump\t// in\n    tag_28:\n      mload(0x40)\n      tag_30\n      swap2\n      swap1\n      tag_31\n      jump\t// in\n    tag_30:\n      mload(0x40)\n      dup1\n      swap2\n      sub\n      swap1\n      return\n        /* \"contracts/TaxiChain.sol\":94:129  uint256 public constant taxRate = 8 */\n    tag_6:\n      callvalue\n      dup1\n      iszero\n      tag_32\n      jumpi\n      0x00\n      dup1\n      revert\n    tag_32:\n      pop\n      tag_33\n      tag_34\n      jump\t// in\n    tag_33:\n      mload(0x40)\n      tag_35\n      swap2\n      swap1\n      tag_31\n      jump\t// in\n    tag_35:\n      mload(0x40)\n      dup1\n      swap2\n      sub\n      swap1\n      return\n        /* \"contracts/TaxiChain.sol\":3156:3424  function completeTrip(... */\n    tag_7:\n      callvalue\n      dup1\n      iszero\n      tag_36\n      jumpi\n      0x00\n      dup1\n      revert\n    tag_36:\n      pop\n      tag_37\n      0x04\n      dup1\n      calldatasize\n      sub\n      dup2\n      add\n      swap1\n      tag_38\n      swap2\n      swap1\n      tag_13\n      jump\t// in\n    tag_38:\n      tag_39\n      jump\t// in\n    tag_37:\n      stop\n        /* \"contracts/TaxiChain.sol\":1518:2173  function createTrip(... */\n    tag_8:\n      callvalue\n      dup1\n      iszero\n      tag_40\n      jumpi\n      0x00\n      dup1\n      revert\n    tag_40:\n      pop\n      tag_41\n      0x04\n      dup1\n      calldatasize\n      sub\n      dup2\n      add\n      swap1\n      tag_42\n      swap2\n      swap1\n      tag_43\n      jump\t// in\n    tag_42:\n      tag_44\n      jump\t// in\n    tag_41:\n      mload(0x40)\n      tag_45\n      swap2\n      swap1\n      tag_31\n      jump\t// in\n    tag_45:\n      mload(0x40)\n      dup1\n      swap2\n      sub\n      swap1\n      return\n        /* \"contracts/TaxiChain.sol\":3430:4149  function getTripDetails(... */\n    tag_14:\n        /* \"contracts/TaxiChain.sol\":3527:3543  uint256 tripCode */\n      0x00\n        /* \"contracts/TaxiChain.sol\":3552:3574  string memory rankName */\n      0x60\n        /* \"contracts/TaxiChain.sol\":3583:3609  string memory registration */\n      dup1\n        /* \"contracts/TaxiChain.sol\":3618:3631  bool verified */\n      0x00\n        /* \"contracts/TaxiChain.sol\":3640:3659  string memory route */\n      0x60\n        /* \"contracts/TaxiChain.sol\":3668:3681  uint256 price */\n      0x00\n        /* \"contracts/TaxiChain.sol\":3690:3706  uint256 capacity */\n      dup1\n        /* \"contracts/TaxiChain.sol\":3715:3729  address driver */\n      0x00\n        /* \"contracts/TaxiChain.sol\":3738:3765  address[] memory passengers */\n      0x60\n        /* \"contracts/TaxiChain.sol\":3774:3797  bytes32 transactionHash */\n      0x00\n        /* \"contracts/TaxiChain.sol\":3806:3820  bool completed */\n      dup1\n        /* \"contracts/TaxiChain.sol\":3838:3855  Trip storage trip */\n      0x00\n        /* \"contracts/TaxiChain.sol\":3858:3863  trips */\n      dup1\n        /* \"contracts/TaxiChain.sol\":3858:3874  trips[_tripCode] */\n      0x00\n        /* \"contracts/TaxiChain.sol\":3864:3873  _tripCode */\n      dup15\n        /* \"contracts/TaxiChain.sol\":3858:3874  trips[_tripCode] */\n      dup2\n      mstore\n      0x20\n      add\n      swap1\n      dup2\n      mstore\n      0x20\n      add\n      0x00\n      keccak256\n        /* \"contracts/TaxiChain.sol\":3838:3874  Trip storage trip = trips[_tripCode] */\n      swap1\n      pop\n        /* \"contracts/TaxiChain.sol\":3897:3901  trip */\n      dup1\n        /* \"contracts/TaxiChain.sol\":3897:3910  trip.tripCode */\n      0x00\n      add\n      sload\n        /* \"contracts/TaxiChain.sol\":3919:3923  trip */\n      dup2\n        /* \"contracts/TaxiChain.sol\":3919:3932  trip.rankName */\n      0x01\n      add\n        /* \"contracts/TaxiChain.sol\":3941:3945  trip */\n      dup3\n        /* \"contracts/TaxiChain.sol\":3941:3958  trip.registration */\n      0x02\n      add\n        /* \"contracts/TaxiChain.sol\":3967:3971  trip */\n      dup4\n        /* \"contracts/TaxiChain.sol\":3967:3980  trip.verified */\n      0x03\n      add\n      0x00\n      swap1\n      sload\n      swap1\n      0x0100\n      exp\n      swap1\n      div\n      0xff\n      and\n        /* \"contracts/TaxiChain.sol\":3989:3993  trip */\n      dup5\n        /* \"contracts/TaxiChain.sol\":3989:3999  trip.route */\n      0x04\n      add\n        /* \"contracts/TaxiChain.sol\":4008:4012  trip */\n      dup6\n        /* \"contracts/TaxiChain.sol\":4008:4018  trip.price */\n      0x05\n      add\n      sload\n        /* \"contracts/TaxiChain.sol\":4027:4031  trip */\n      dup7\n        /* \"contracts/TaxiChain.sol\":4027:4040  trip.capacity */\n      0x06\n      add\n      sload\n        /* \"contracts/TaxiChain.sol\":4049:4053  trip */\n      dup8\n        /* \"contracts/TaxiChain.sol\":4049:4060  trip.driver */\n      0x07\n      add\n      0x00\n      swap1\n      sload\n      swap1\n      0x0100\n      exp\n      swap1\n      div\n      0xffffffffffffffffffffffffffffffffffffffff\n      and\n        /* \"contracts/TaxiChain.sol\":4069:4073  trip */\n      dup9\n        /* \"contracts/TaxiChain.sol\":4069:4084  trip.passengers */\n      0x08\n      add\n        /* \"contracts/TaxiChain.sol\":4093:4097  trip */\n      dup10\n        /* \"contracts/TaxiChain.sol\":4093:4113  trip.transactionHash */\n      0x09\n      add\n      sload\n        /* \"contracts/TaxiChain.sol\":4122:4126  trip */\n      dup11\n        /* \"contracts/TaxiChain.sol\":4122:4136  trip.completed */\n      0x0a\n      add\n      0x00\n      swap1\n      sload\n      swap1\n      0x0100\n      exp\n      swap1\n      div\n      0xff\n      and\n        /* \"contracts/TaxiChain.sol\":3881:4143  return (... */\n      dup10\n      dup1\n      sload\n      tag_47\n      swap1\n      tag_48\n      jump\t// in\n    tag_47:\n      dup1\n      0x1f\n      add\n      0x20\n      dup1\n      swap2\n      div\n      mul\n      0x20\n      add\n      mload(0x40)\n      swap1\n      dup2\n      add\n      0x40\n      mstore\n      dup1\n      swap3\n      swap2\n      swap1\n      dup2\n      dup2\n      mstore\n      0x20\n      add\n      dup3\n      dup1\n      sload\n      tag_49\n      swap1\n      tag_48\n      jump\t// in\n    tag_49:\n      dup1\n      iszero\n      tag_50\n      jumpi\n      dup1\n      0x1f\n      lt\n      tag_51\n      jumpi\n      0x0100\n      dup1\n      dup4\n      sload\n      div\n      mul\n      dup4\n      mstore\n      swap2\n      0x20\n      add\n      swap2\n      jump(tag_50)\n    tag_51:\n      dup3\n      add\n      swap2\n      swap1\n      0x00\n      mstore\n      keccak256(0x00, 0x20)\n      swap1\n    tag_52:\n      dup2\n      sload\n      dup2\n      mstore\n      swap1\n      0x01\n      add\n      swap1\n      0x20\n      add\n      dup1\n      dup4\n      gt\n      tag_52\n      jumpi\n      dup3\n      swap1\n      sub\n      0x1f\n      and\n      dup3\n      add\n      swap2\n    tag_50:\n      pop\n      pop\n      pop\n      pop\n      pop\n      swap10\n      pop\n      dup9\n      dup1\n      sload\n      tag_53\n      swap1\n      tag_48\n      jump\t// in\n    tag_53:\n      dup1\n      0x1f\n      add\n      0x20\n      dup1\n      swap2\n      div\n      mul\n      0x20\n      add\n      mload(0x40)\n      swap1\n      dup2\n      add\n      0x40\n      mstore\n      dup1\n      swap3\n      swap2\n      swap1\n      dup2\n      dup2\n      mstore\n      0x20\n      add\n      dup3\n      dup1\n      sload\n      tag_54\n      swap1\n      tag_48\n      jump\t// in\n    tag_54:\n      dup1\n      iszero\n      tag_55\n      jumpi\n      dup1\n      0x1f\n      lt\n      tag_56\n      jumpi\n      0x0100\n      dup1\n      dup4\n      sload\n      div\n      mul\n      dup4\n      mstore\n      swap2\n      0x20\n      add\n      swap2\n      jump(tag_55)\n    tag_56:\n      dup3\n      add\n      swap2\n      swap1\n      0x00\n      mstore\n      keccak256(0x00, 0x20)\n      swap1\n    tag_57:\n      dup2\n      sload\n      dup2\n      mstore\n      swap1\n      0x01\n      add\n      swap1\n      0x20\n      add\n      dup1\n      dup4\n      gt\n      tag_57\n      jumpi\n      dup3\n      swap1\n      sub\n      0x1f\n      and\n      dup3\n      add\n      swap2\n    tag_55:\n      pop\n      pop\n      pop\n      pop\n      pop\n      swap9\n      pop\n      dup7\n      dup1\n      sload\n      tag_58\n      swap1\n      tag_48\n      jump\t// in\n    tag_58:\n      dup1\n      0x1f\n      add\n      0x20\n      dup1\n      swap2\n      div\n      mul\n      0x20\n      add\n      mload(0x40)\n      swap1\n      dup2\n      add\n      0x40\n      mstore\n      dup1\n      swap3\n      swap2\n      swap1\n      dup2\n      dup2\n      mstore\n      0x20\n      add\n      dup3\n      dup1\n      sload\n      tag_59\n      swap1\n      tag_48\n      jump\t// in\n    tag_59:\n      dup1\n      iszero\n      tag_60\n      jumpi\n      dup1\n      0x1f\n      lt\n      tag_61\n      jumpi\n      0x0100\n      dup1\n      dup4\n      sload\n      div\n      mul\n      dup4\n      mstore\n      swap2\n      0x20\n      add\n      swap2\n      jump(tag_60)\n    tag_61:\n      dup3\n      add\n      swap2\n      swap1\n      0x00\n      mstore\n      keccak256(0x00, 0x20)\n      swap1\n    tag_62:\n      dup2\n      sload\n      dup2\n      mstore\n      swap1\n      0x01\n      add\n      swap1\n      0x20\n      add\n      dup1\n      dup4\n      gt\n      tag_62\n      jumpi\n      dup3\n      swap1\n      sub\n      0x1f\n      and\n      dup3\n      add\n      swap2\n    tag_60:\n      pop\n      pop\n      pop\n      pop\n      pop\n      swap7\n      pop\n      dup3\n      dup1\n      sload\n      dup1\n      0x20\n      mul\n      0x20\n      add\n      mload(0x40)\n      swap1\n      dup2\n      add\n      0x40\n      mstore\n      dup1\n      swap3\n      swap2\n      swap1\n      dup2\n      dup2\n      mstore\n      0x20\n      add\n      dup3\n      dup1\n      sload\n      dup1\n      iszero\n      tag_63\n      jumpi\n      0x20\n      mul\n      dup3\n      add\n      swap2\n      swap1\n      0x00\n      mstore\n      keccak256(0x00, 0x20)\n      swap1\n    tag_64:\n      dup2\n      0x00\n      swap1\n      sload\n      swap1\n      0x0100\n      exp\n      swap1\n      div\n      0xffffffffffffffffffffffffffffffffffffffff\n      and\n      0xffffffffffffffffffffffffffffffffffffffff\n      and\n      dup2\n      mstore\n      0x20\n      add\n      swap1\n      0x01\n      add\n      swap1\n      dup1\n      dup4\n      gt\n      tag_64\n      jumpi\n    tag_63:\n      pop\n      pop\n      pop\n      pop\n      pop\n      swap3\n      pop\n      swap12\n      pop\n      swap12\n      pop\n      swap12\n      pop\n      swap12\n      pop\n      swap12\n      pop\n      swap12\n      pop\n      swap12\n      pop\n      swap12\n      pop\n      swap12\n      pop\n      swap12\n      pop\n      swap12\n      pop\n      pop\n        /* \"contracts/TaxiChain.sol\":3430:4149  function getTripDetails(... */\n      swap2\n      swap4\n      swap6\n      swap8\n      swap10\n      swap12\n      swap1\n      swap3\n      swap5\n      swap7\n      swap9\n      swap11\n      pop\n      jump\t// out\n        /* \"contracts/TaxiChain.sol\":2179:3150  function joinTrip(... */\n    tag_19:\n        /* \"contracts/TaxiChain.sol\":2252:2261  _tripCode */\n      dup1\n        /* \"contracts/TaxiChain.sol\":1338:1339  0 */\n      0x00\n        /* \"contracts/TaxiChain.sol\":1303:1340  trips[_tripCode].driver != address(0) */\n      0xffffffffffffffffffffffffffffffffffffffff\n      and\n        /* \"contracts/TaxiChain.sol\":1303:1308  trips */\n      0x00\n        /* \"contracts/TaxiChain.sol\":1303:1319  trips[_tripCode] */\n      dup1\n        /* \"contracts/TaxiChain.sol\":1309:1318  _tripCode */\n      dup4\n        /* \"contracts/TaxiChain.sol\":1303:1319  trips[_tripCode] */\n      dup2\n      mstore\n      0x20\n      add\n      swap1\n      dup2\n      mstore\n      0x20\n      add\n      0x00\n      keccak256\n        /* \"contracts/TaxiChain.sol\":1303:1326  trips[_tripCode].driver */\n      0x07\n      add\n      0x00\n      swap1\n      sload\n      swap1\n      0x0100\n      exp\n      swap1\n      div\n      0xffffffffffffffffffffffffffffffffffffffff\n      and\n        /* \"contracts/TaxiChain.sol\":1303:1340  trips[_tripCode].driver != address(0) */\n      0xffffffffffffffffffffffffffffffffffffffff\n      and\n      sub\n        /* \"contracts/TaxiChain.sol\":1295:1364  require(trips[_tripCode].driver != address(0), 'Trip does not exist') */\n      tag_66\n      jumpi\n      mload(0x40)\n      0x08c379a000000000000000000000000000000000000000000000000000000000\n      dup2\n      mstore\n      0x04\n      add\n      tag_67\n      swap1\n      tag_68\n      jump\t// in\n    tag_67:\n      mload(0x40)\n      dup1\n      swap2\n      sub\n      swap1\n      revert\n    tag_66:\n        /* \"contracts/TaxiChain.sol\":2280:2289  _tripCode */\n      dup2\n        /* \"contracts/TaxiChain.sol\":1445:1450  trips */\n      0x00\n        /* \"contracts/TaxiChain.sol\":1445:1461  trips[_tripCode] */\n      dup1\n        /* \"contracts/TaxiChain.sol\":1451:1460  _tripCode */\n      dup3\n        /* \"contracts/TaxiChain.sol\":1445:1461  trips[_tripCode] */\n      dup2\n      mstore\n      0x20\n      add\n      swap1\n      dup2\n      mstore\n      0x20\n      add\n      0x00\n      keccak256\n        /* \"contracts/TaxiChain.sol\":1445:1471  trips[_tripCode].completed */\n      0x0a\n      add\n      0x00\n      swap1\n      sload\n      swap1\n      0x0100\n      exp\n      swap1\n      div\n      0xff\n      and\n        /* \"contracts/TaxiChain.sol\":1444:1471  !trips[_tripCode].completed */\n      iszero\n        /* \"contracts/TaxiChain.sol\":1436:1498  require(!trips[_tripCode].completed, 'Trip already completed') */\n      tag_70\n      jumpi\n      mload(0x40)\n      0x08c379a000000000000000000000000000000000000000000000000000000000\n      dup2\n      mstore\n      0x04\n      add\n      tag_71\n      swap1\n      tag_72\n      jump\t// in\n    tag_71:\n      mload(0x40)\n      dup1\n      swap2\n      sub\n      swap1\n      revert\n    tag_70:\n        /* \"contracts/TaxiChain.sol\":2298:2315  Trip storage trip */\n      0x00\n        /* \"contracts/TaxiChain.sol\":2318:2323  trips */\n      dup1\n        /* \"contracts/TaxiChain.sol\":2318:2334  trips[_tripCode] */\n      0x00\n        /* \"contracts/TaxiChain.sol\":2324:2333  _tripCode */\n      dup6\n        /* \"contracts/TaxiChain.sol\":2318:2334  trips[_tripCode] */\n      dup2\n      mstore\n      0x20\n      add\n      swap1\n      dup2\n      mstore\n      0x20\n      add\n      0x00\n      keccak256\n        /* \"contracts/TaxiChain.sol\":2298:2334  Trip storage trip = trips[_tripCode] */\n      swap1\n      pop\n        /* \"contracts/TaxiChain.sol\":2408:2425  uint256 taxAmount */\n      0x00\n        /* \"contracts/TaxiChain.sol\":2453:2456  100 */\n      0x64\n        /* \"contracts/TaxiChain.sol\":128:129  8 */\n      0x08\n        /* \"contracts/TaxiChain.sol\":2429:2433  trip */\n      dup4\n        /* \"contracts/TaxiChain.sol\":2429:2439  trip.price */\n      0x05\n      add\n      sload\n        /* \"contracts/TaxiChain.sol\":2429:2449  trip.price * taxRate */\n      tag_74\n      swap2\n      swap1\n      tag_75\n      jump\t// in\n    tag_74:\n        /* \"contracts/TaxiChain.sol\":2428:2456  (trip.price * taxRate) / 100 */\n      tag_76\n      swap2\n      swap1\n      tag_77\n      jump\t// in\n    tag_76:\n        /* \"contracts/TaxiChain.sol\":2408:2456  uint256 taxAmount = (trip.price * taxRate) / 100 */\n      swap1\n      pop\n        /* \"contracts/TaxiChain.sol\":2463:2484  uint256 paymentAmount */\n      0x00\n        /* \"contracts/TaxiChain.sol\":2500:2509  taxAmount */\n      dup2\n        /* \"contracts/TaxiChain.sol\":2487:2491  trip */\n      dup4\n        /* \"contracts/TaxiChain.sol\":2487:2497  trip.price */\n      0x05\n      add\n      sload\n        /* \"contracts/TaxiChain.sol\":2487:2509  trip.price - taxAmount */\n      tag_78\n      swap2\n      swap1\n      tag_79\n      jump\t// in\n    tag_78:\n        /* \"contracts/TaxiChain.sol\":2463:2509  uint256 paymentAmount = trip.price - taxAmount */\n      swap1\n      pop\n        /* \"contracts/TaxiChain.sol\":2539:2543  trip */\n      dup3\n        /* \"contracts/TaxiChain.sol\":2539:2549  trip.price */\n      0x05\n      add\n      sload\n        /* \"contracts/TaxiChain.sol\":2526:2535  msg.value */\n      callvalue\n        /* \"contracts/TaxiChain.sol\":2526:2549  msg.value >= trip.price */\n      lt\n      iszero\n        /* \"contracts/TaxiChain.sol\":2518:2589  require(msg.value >= trip.price, 'Insufficient funds to join the trip') */\n      tag_80\n      jumpi\n      mload(0x40)\n      0x08c379a000000000000000000000000000000000000000000000000000000000\n      dup2\n      mstore\n      0x04\n      add\n      tag_81\n      swap1\n      tag_82\n      jump\t// in\n    tag_81:\n      mload(0x40)\n      dup1\n      swap2\n      sub\n      swap1\n      revert\n    tag_80:\n        /* \"contracts/TaxiChain.sol\":2606:2610  trip */\n      dup3\n        /* \"contracts/TaxiChain.sol\":2606:2617  trip.driver */\n      0x07\n      add\n      0x00\n      swap1\n      sload\n      swap1\n      0x0100\n      exp\n      swap1\n      div\n      0xffffffffffffffffffffffffffffffffffffffff\n      and\n        /* \"contracts/TaxiChain.sol\":2598:2627  payable(trip.driver).transfer */\n      0xffffffffffffffffffffffffffffffffffffffff\n      and\n        /* \"contracts/TaxiChain.sol\":2598:2642  payable(trip.driver).transfer(paymentAmount) */\n      0x08fc\n        /* \"contracts/TaxiChain.sol\":2628:2641  paymentAmount */\n      dup3\n        /* \"contracts/TaxiChain.sol\":2598:2642  payable(trip.driver).transfer(paymentAmount) */\n      swap1\n      dup2\n      iszero\n      mul\n      swap1\n      mload(0x40)\n      0x00\n      mload(0x40)\n      dup1\n      dup4\n      sub\n      dup2\n      dup6\n      dup9\n      dup9\n      call\n      swap4\n      pop\n      pop\n      pop\n      pop\n      iszero\n      dup1\n      iszero\n      tag_84\n      jumpi\n      returndatasize\n      0x00\n      dup1\n      returndatacopy\n      revert(0x00, returndatasize)\n    tag_84:\n      pop\n        /* \"contracts/TaxiChain.sol\":2651:2655  trip */\n      dup3\n        /* \"contracts/TaxiChain.sol\":2651:2666  trip.passengers */\n      0x08\n      add\n        /* \"contracts/TaxiChain.sol\":2672:2682  msg.sender */\n      caller\n        /* \"contracts/TaxiChain.sol\":2651:2683  trip.passengers.push(msg.sender) */\n      swap1\n      dup1\n      0x01\n      dup2\n      sload\n      add\n      dup1\n      dup3\n      sstore\n      dup1\n      swap2\n      pop\n      pop\n      0x01\n      swap1\n      sub\n      swap1\n      0x00\n      mstore\n      keccak256(0x00, 0x20)\n      add\n      0x00\n      swap1\n      swap2\n      swap1\n      swap2\n      swap1\n      swap2\n      0x0100\n      exp\n      dup2\n      sload\n      dup2\n      0xffffffffffffffffffffffffffffffffffffffff\n      mul\n      not\n      and\n      swap1\n      dup4\n      0xffffffffffffffffffffffffffffffffffffffff\n      and\n      mul\n      or\n      swap1\n      sstore\n      pop\n        /* \"contracts/TaxiChain.sol\":2738:2739  1 */\n      0x01\n        /* \"contracts/TaxiChain.sol\":2723:2735  block.number */\n      number\n        /* \"contracts/TaxiChain.sol\":2723:2739  block.number - 1 */\n      tag_86\n      swap2\n      swap1\n      tag_79\n      jump\t// in\n    tag_86:\n        /* \"contracts/TaxiChain.sol\":2713:2740  blockhash(block.number - 1) */\n      blockhash\n        /* \"contracts/TaxiChain.sol\":2690:2694  trip */\n      dup4\n        /* \"contracts/TaxiChain.sol\":2690:2710  trip.transactionHash */\n      0x09\n      add\n        /* \"contracts/TaxiChain.sol\":2690:2740  trip.transactionHash = blockhash(block.number - 1) */\n      dup2\n      swap1\n      sstore\n      pop\n        /* \"contracts/TaxiChain.sol\":2786:2998  Transaction({... */\n      mload(0x40)\n      dup1\n      0xc0\n      add\n      0x40\n      mstore\n      dup1\n        /* \"contracts/TaxiChain.sol\":2817:2826  _tripCode */\n      dup8\n        /* \"contracts/TaxiChain.sol\":2786:2998  Transaction({... */\n      dup2\n      mstore\n      0x20\n      add\n        /* \"contracts/TaxiChain.sol\":2846:2856  msg.sender */\n      caller\n        /* \"contracts/TaxiChain.sol\":2786:2998  Transaction({... */\n      0xffffffffffffffffffffffffffffffffffffffff\n      and\n      dup2\n      mstore\n      0x20\n      add\n        /* \"contracts/TaxiChain.sol\":2873:2886  paymentAmount */\n      dup3\n        /* \"contracts/TaxiChain.sol\":2786:2998  Transaction({... */\n      dup2\n      mstore\n      0x20\n      add\n        /* \"contracts/TaxiChain.sol\":2900:2909  taxAmount */\n      dup4\n        /* \"contracts/TaxiChain.sol\":2786:2998  Transaction({... */\n      dup2\n      mstore\n      0x20\n      add\n        /* \"contracts/TaxiChain.sol\":2935:2939  trip */\n      dup5\n        /* \"contracts/TaxiChain.sol\":2935:2955  trip.transactionHash */\n      0x09\n      add\n      sload\n        /* \"contracts/TaxiChain.sol\":2786:2998  Transaction({... */\n      dup2\n      mstore\n      0x20\n      add\n        /* \"contracts/TaxiChain.sol\":2975:2990  block.timestamp */\n      timestamp\n        /* \"contracts/TaxiChain.sol\":2786:2998  Transaction({... */\n      dup2\n      mstore\n      pop\n        /* \"contracts/TaxiChain.sol\":2749:2761  transactions */\n      0x01\n        /* \"contracts/TaxiChain.sol\":2749:2783  transactions[trip.transactionHash] */\n      0x00\n        /* \"contracts/TaxiChain.sol\":2762:2766  trip */\n      dup6\n        /* \"contracts/TaxiChain.sol\":2762:2782  trip.transactionHash */\n      0x09\n      add\n      sload\n        /* \"contracts/TaxiChain.sol\":2749:2783  transactions[trip.transactionHash] */\n      dup2\n      mstore\n      0x20\n      add\n      swap1\n      dup2\n      mstore\n      0x20\n      add\n      0x00\n      keccak256\n        /* \"contracts/TaxiChain.sol\":2749:2998  transactions[trip.transactionHash] = Transaction({... */\n      0x00\n      dup3\n      add\n      mload\n      dup2\n      0x00\n      add\n      sstore\n      0x20\n      dup3\n      add\n      mload\n      dup2\n      0x01\n      add\n      exp(0x0100, 0x00)\n      dup2\n      sload\n      dup2\n      0xffffffffffffffffffffffffffffffffffffffff\n      mul\n      not\n      and\n      swap1\n      dup4\n      0xffffffffffffffffffffffffffffffffffffffff\n      and\n      mul\n      or\n      swap1\n      sstore\n      pop\n      0x40\n      dup3\n      add\n      mload\n      dup2\n      0x02\n      add\n      sstore\n      0x60\n      dup3\n      add\n      mload\n      dup2\n      0x03\n      add\n      sstore\n      0x80\n      dup3\n      add\n      mload\n      dup2\n      0x04\n      add\n      sstore\n      0xa0\n      dup3\n      add\n      mload\n      dup2\n      0x05\n      add\n      sstore\n      swap1\n      pop\n      pop\n        /* \"contracts/TaxiChain.sol\":3012:3144  PassengerJoinedTrip(... */\n      0x96836526637df41a0181017d35eca90aea5d39f47fc680cc0811179dfa01996e\n        /* \"contracts/TaxiChain.sol\":3040:3049  _tripCode */\n      dup7\n        /* \"contracts/TaxiChain.sol\":3058:3068  msg.sender */\n      caller\n        /* \"contracts/TaxiChain.sol\":3077:3090  paymentAmount */\n      dup4\n        /* \"contracts/TaxiChain.sol\":3099:3108  taxAmount */\n      dup6\n        /* \"contracts/TaxiChain.sol\":3117:3121  trip */\n      dup8\n        /* \"contracts/TaxiChain.sol\":3117:3137  trip.transactionHash */\n      0x09\n      add\n      sload\n        /* \"contracts/TaxiChain.sol\":3012:3144  PassengerJoinedTrip(... */\n      mload(0x40)\n      tag_87\n      swap6\n      swap5\n      swap4\n      swap3\n      swap2\n      swap1\n      tag_88\n      jump\t// in\n    tag_87:\n      mload(0x40)\n      dup1\n      swap2\n      sub\n      swap1\n      log1\n        /* \"contracts/TaxiChain.sol\":2291:3150  {... */\n      pop\n      pop\n      pop\n        /* \"contracts/TaxiChain.sol\":1371:1372  _ */\n      pop\n        /* \"contracts/TaxiChain.sol\":2179:3150  function joinTrip(... */\n      pop\n      pop\n      jump\t// out\n        /* \"contracts/TaxiChain.sol\":4155:4536  function getTransactionDetails(... */\n    tag_24:\n        /* \"contracts/TaxiChain.sol\":4266:4282  uint256 tripCode */\n      0x00\n        /* \"contracts/TaxiChain.sol\":4291:4308  address passenger */\n      dup1\n        /* \"contracts/TaxiChain.sol\":4317:4331  uint256 amount */\n      0x00\n        /* \"contracts/TaxiChain.sol\":4340:4351  uint256 tax */\n      dup1\n        /* \"contracts/TaxiChain.sol\":4360:4377  uint256 timestamp */\n      0x00\n        /* \"contracts/TaxiChain.sol\":4395:4418  Transaction storage txn */\n      dup1\n        /* \"contracts/TaxiChain.sol\":4421:4433  transactions */\n      0x01\n        /* \"contracts/TaxiChain.sol\":4421:4451  transactions[_transactionHash] */\n      0x00\n        /* \"contracts/TaxiChain.sol\":4434:4450  _transactionHash */\n      dup9\n        /* \"contracts/TaxiChain.sol\":4421:4451  transactions[_transactionHash] */\n      dup2\n      mstore\n      0x20\n      add\n      swap1\n      dup2\n      mstore\n      0x20\n      add\n      0x00\n      keccak256\n        /* \"contracts/TaxiChain.sol\":4395:4451  Transaction storage txn = transactions[_transactionHash] */\n      swap1\n      pop\n        /* \"contracts/TaxiChain.sol\":4466:4469  txn */\n      dup1\n        /* \"contracts/TaxiChain.sol\":4466:4478  txn.tripCode */\n      0x00\n      add\n      sload\n        /* \"contracts/TaxiChain.sol\":4480:4483  txn */\n      dup2\n        /* \"contracts/TaxiChain.sol\":4480:4493  txn.passenger */\n      0x01\n      add\n      0x00\n      swap1\n      sload\n      swap1\n      0x0100\n      exp\n      swap1\n      div\n      0xffffffffffffffffffffffffffffffffffffffff\n      and\n        /* \"contracts/TaxiChain.sol\":4495:4498  txn */\n      dup3\n        /* \"contracts/TaxiChain.sol\":4495:4505  txn.amount */\n      0x02\n      add\n      sload\n        /* \"contracts/TaxiChain.sol\":4507:4510  txn */\n      dup4\n        /* \"contracts/TaxiChain.sol\":4507:4514  txn.tax */\n      0x03\n      add\n      sload\n        /* \"contracts/TaxiChain.sol\":4516:4519  txn */\n      dup5\n        /* \"contracts/TaxiChain.sol\":4516:4529  txn.timestamp */\n      0x05\n      add\n      sload\n        /* \"contracts/TaxiChain.sol\":4458:4530  return (txn.tripCode, txn.passenger, txn.amount, txn.tax, txn.timestamp) */\n      swap6\n      pop\n      swap6\n      pop\n      swap6\n      pop\n      swap6\n      pop\n      swap6\n      pop\n      pop\n        /* \"contracts/TaxiChain.sol\":4155:4536  function getTransactionDetails(... */\n      swap2\n      swap4\n      swap6\n      swap1\n      swap3\n      swap5\n      pop\n      jump\t// out\n        /* \"contracts/TaxiChain.sol\":683:709  uint256 public tripCounter */\n    tag_29:\n      sload(0x02)\n      dup2\n      jump\t// out\n        /* \"contracts/TaxiChain.sol\":94:129  uint256 public constant taxRate = 8 */\n    tag_34:\n        /* \"contracts/TaxiChain.sol\":128:129  8 */\n      0x08\n        /* \"contracts/TaxiChain.sol\":94:129  uint256 public constant taxRate = 8 */\n      dup2\n      jump\t// out\n        /* \"contracts/TaxiChain.sol\":3156:3424  function completeTrip(... */\n    tag_39:\n        /* \"contracts/TaxiChain.sol\":3235:3244  _tripCode */\n      dup1\n        /* \"contracts/TaxiChain.sol\":1338:1339  0 */\n      0x00\n        /* \"contracts/TaxiChain.sol\":1303:1340  trips[_tripCode].driver != address(0) */\n      0xffffffffffffffffffffffffffffffffffffffff\n      and\n        /* \"contracts/TaxiChain.sol\":1303:1308  trips */\n      0x00\n        /* \"contracts/TaxiChain.sol\":1303:1319  trips[_tripCode] */\n      dup1\n        /* \"contracts/TaxiChain.sol\":1309:1318  _tripCode */\n      dup4\n        /* \"contracts/TaxiChain.sol\":1303:1319  trips[_tripCode] */\n      dup2\n      mstore\n      0x20\n      add\n      swap1\n      dup2\n      mstore\n      0x20\n      add\n      0x00\n      keccak256\n        /* \"contracts/TaxiChain.sol\":1303:1326  trips[_tripCode].driver */\n      0x07\n      add\n      0x00\n      swap1\n      sload\n      swap1\n      0x0100\n      exp\n      swap1\n      div\n      0xffffffffffffffffffffffffffffffffffffffff\n      and\n        /* \"contracts/TaxiChain.sol\":1303:1340  trips[_tripCode].driver != address(0) */\n      0xffffffffffffffffffffffffffffffffffffffff\n      and\n      sub\n        /* \"contracts/TaxiChain.sol\":1295:1364  require(trips[_tripCode].driver != address(0), 'Trip does not exist') */\n      tag_91\n      jumpi\n      mload(0x40)\n      0x08c379a000000000000000000000000000000000000000000000000000000000\n      dup2\n      mstore\n      0x04\n      add\n      tag_92\n      swap1\n      tag_68\n      jump\t// in\n    tag_92:\n      mload(0x40)\n      dup1\n      swap2\n      sub\n      swap1\n      revert\n    tag_91:\n        /* \"contracts/TaxiChain.sol\":3268:3277  _tripCode */\n      dup2\n        /* \"contracts/TaxiChain.sol\":1445:1450  trips */\n      0x00\n        /* \"contracts/TaxiChain.sol\":1445:1461  trips[_tripCode] */\n      dup1\n        /* \"contracts/TaxiChain.sol\":1451:1460  _tripCode */\n      dup3\n        /* \"contracts/TaxiChain.sol\":1445:1461  trips[_tripCode] */\n      dup2\n      mstore\n      0x20\n      add\n      swap1\n      dup2\n      mstore\n      0x20\n      add\n      0x00\n      keccak256\n        /* \"contracts/TaxiChain.sol\":1445:1471  trips[_tripCode].completed */\n      0x0a\n      add\n      0x00\n      swap1\n      sload\n      swap1\n      0x0100\n      exp\n      swap1\n      div\n      0xff\n      and\n        /* \"contracts/TaxiChain.sol\":1444:1471  !trips[_tripCode].completed */\n      iszero\n        /* \"contracts/TaxiChain.sol\":1436:1498  require(!trips[_tripCode].completed, 'Trip already completed') */\n      tag_94\n      jumpi\n      mload(0x40)\n      0x08c379a000000000000000000000000000000000000000000000000000000000\n      dup2\n      mstore\n      0x04\n      add\n      tag_95\n      swap1\n      tag_72\n      jump\t// in\n    tag_95:\n      mload(0x40)\n      dup1\n      swap2\n      sub\n      swap1\n      revert\n    tag_94:\n        /* \"contracts/TaxiChain.sol\":3295:3304  _tripCode */\n      dup3\n        /* \"contracts/TaxiChain.sol\":1162:1172  msg.sender */\n      caller\n        /* \"contracts/TaxiChain.sol\":1135:1172  trips[_tripCode].driver == msg.sender */\n      0xffffffffffffffffffffffffffffffffffffffff\n      and\n        /* \"contracts/TaxiChain.sol\":1135:1140  trips */\n      0x00\n        /* \"contracts/TaxiChain.sol\":1135:1151  trips[_tripCode] */\n      dup1\n        /* \"contracts/TaxiChain.sol\":1141:1150  _tripCode */\n      dup4\n        /* \"contracts/TaxiChain.sol\":1135:1151  trips[_tripCode] */\n      dup2\n      mstore\n      0x20\n      add\n      swap1\n      dup2\n      mstore\n      0x20\n      add\n      0x00\n      keccak256\n        /* \"contracts/TaxiChain.sol\":1135:1158  trips[_tripCode].driver */\n      0x07\n      add\n      0x00\n      swap1\n      sload\n      swap1\n      0x0100\n      exp\n      swap1\n      div\n      0xffffffffffffffffffffffffffffffffffffffff\n      and\n        /* \"contracts/TaxiChain.sol\":1135:1172  trips[_tripCode].driver == msg.sender */\n      0xffffffffffffffffffffffffffffffffffffffff\n      and\n      eq\n        /* \"contracts/TaxiChain.sol\":1119:1229  require(... */\n      tag_97\n      jumpi\n      mload(0x40)\n      0x08c379a000000000000000000000000000000000000000000000000000000000\n      dup2\n      mstore\n      0x04\n      add\n      tag_98\n      swap1\n      tag_99\n      jump\t// in\n    tag_98:\n      mload(0x40)\n      dup1\n      swap2\n      sub\n      swap1\n      revert\n    tag_97:\n        /* \"contracts/TaxiChain.sol\":3316:3333  Trip storage trip */\n      0x00\n        /* \"contracts/TaxiChain.sol\":3336:3341  trips */\n      dup1\n        /* \"contracts/TaxiChain.sol\":3336:3352  trips[_tripCode] */\n      0x00\n        /* \"contracts/TaxiChain.sol\":3342:3351  _tripCode */\n      dup7\n        /* \"contracts/TaxiChain.sol\":3336:3352  trips[_tripCode] */\n      dup2\n      mstore\n      0x20\n      add\n      swap1\n      dup2\n      mstore\n      0x20\n      add\n      0x00\n      keccak256\n        /* \"contracts/TaxiChain.sol\":3316:3352  Trip storage trip = trips[_tripCode] */\n      swap1\n      pop\n        /* \"contracts/TaxiChain.sol\":3376:3380  true */\n      0x01\n        /* \"contracts/TaxiChain.sol\":3359:3363  trip */\n      dup2\n        /* \"contracts/TaxiChain.sol\":3359:3373  trip.completed */\n      0x0a\n      add\n      0x00\n        /* \"contracts/TaxiChain.sol\":3359:3380  trip.completed = true */\n      0x0100\n      exp\n      dup2\n      sload\n      dup2\n      0xff\n      mul\n      not\n      and\n      swap1\n      dup4\n      iszero\n      iszero\n      mul\n      or\n      swap1\n      sstore\n      pop\n        /* \"contracts/TaxiChain.sol\":3394:3418  TripCompleted(_tripCode) */\n      0xb27347ca9471103ded6b8b466bf4643dd4869bc7b0137003ea8d2fd1a6e7758d\n        /* \"contracts/TaxiChain.sol\":3408:3417  _tripCode */\n      dup6\n        /* \"contracts/TaxiChain.sol\":3394:3418  TripCompleted(_tripCode) */\n      mload(0x40)\n      tag_101\n      swap2\n      swap1\n      tag_31\n      jump\t// in\n    tag_101:\n      mload(0x40)\n      dup1\n      swap2\n      sub\n      swap1\n      log1\n        /* \"contracts/TaxiChain.sol\":3309:3424  {... */\n      pop\n        /* \"contracts/TaxiChain.sol\":1505:1506  _ */\n      pop\n        /* \"contracts/TaxiChain.sol\":1371:1372  _ */\n      pop\n        /* \"contracts/TaxiChain.sol\":3156:3424  function completeTrip(... */\n      pop\n      pop\n      jump\t// out\n        /* \"contracts/TaxiChain.sol\":1518:2173  function createTrip(... */\n    tag_44:\n        /* \"contracts/TaxiChain.sol\":1693:1700  uint256 */\n      0x00\n        /* \"contracts/TaxiChain.sol\":1709:1720  tripCounter */\n      0x02\n      0x00\n        /* \"contracts/TaxiChain.sol\":1709:1722  tripCounter++ */\n      dup2\n      sload\n      dup1\n      swap3\n      swap2\n      swap1\n      tag_103\n      swap1\n      tag_104\n      jump\t// in\n    tag_103:\n      swap2\n      swap1\n      pop\n      sstore\n      pop\n        /* \"contracts/TaxiChain.sol\":1750:2075  Trip({... */\n      mload(0x40)\n      dup1\n      0x0160\n      add\n      0x40\n      mstore\n      dup1\n        /* \"contracts/TaxiChain.sol\":1774:1785  tripCounter */\n      sload(0x02)\n        /* \"contracts/TaxiChain.sol\":1750:2075  Trip({... */\n      dup2\n      mstore\n      0x20\n      add\n        /* \"contracts/TaxiChain.sol\":1804:1813  _rankName */\n      dup6\n        /* \"contracts/TaxiChain.sol\":1750:2075  Trip({... */\n      dup2\n      mstore\n      0x20\n      add\n        /* \"contracts/TaxiChain.sol\":1836:1849  _registration */\n      dup5\n        /* \"contracts/TaxiChain.sol\":1750:2075  Trip({... */\n      dup2\n      mstore\n      0x20\n      add\n        /* \"contracts/TaxiChain.sol\":1868:1877  _verified */\n      dup4\n        /* \"contracts/TaxiChain.sol\":1750:2075  Trip({... */\n      iszero\n      iszero\n      dup2\n      mstore\n      0x20\n      add\n        /* \"contracts/TaxiChain.sol\":1893:1901  _details */\n      dup7\n        /* \"contracts/TaxiChain.sol\":1750:2075  Trip({... */\n      dup2\n      mstore\n      0x20\n      add\n        /* \"contracts/TaxiChain.sol\":1917:1922  _fare */\n      dup8\n        /* \"contracts/TaxiChain.sol\":1750:2075  Trip({... */\n      dup2\n      mstore\n      0x20\n      add\n        /* \"contracts/TaxiChain.sol\":1941:1942  0 */\n      0x00\n        /* \"contracts/TaxiChain.sol\":1750:2075  Trip({... */\n      dup2\n      mstore\n      0x20\n      add\n        /* \"contracts/TaxiChain.sol\":1959:1969  msg.sender */\n      caller\n        /* \"contracts/TaxiChain.sol\":1750:2075  Trip({... */\n      0xffffffffffffffffffffffffffffffffffffffff\n      and\n      dup2\n      mstore\n      0x20\n      add\n        /* \"contracts/TaxiChain.sol\":2004:2005  0 */\n      0x00\n        /* \"contracts/TaxiChain.sol\":1990:2006  new address[](0) */\n      0xffffffffffffffff\n      dup2\n      gt\n      iszero\n      tag_105\n      jumpi\n      tag_106\n      tag_107\n      jump\t// in\n    tag_106:\n    tag_105:\n      mload(0x40)\n      swap1\n      dup1\n      dup3\n      mstore\n      dup1\n      0x20\n      mul\n      0x20\n      add\n      dup3\n      add\n      0x40\n      mstore\n      dup1\n      iszero\n      tag_108\n      jumpi\n      dup2\n      0x20\n      add\n      0x20\n      dup3\n      mul\n      dup1\n      calldatasize\n      dup4\n      calldatacopy\n      dup1\n      dup3\n      add\n      swap2\n      pop\n      pop\n      swap1\n      pop\n    tag_108:\n      pop\n        /* \"contracts/TaxiChain.sol\":1750:2075  Trip({... */\n      dup2\n      mstore\n      0x20\n      add\n        /* \"contracts/TaxiChain.sol\":2040:2041  0 */\n      0x00\n        /* \"contracts/TaxiChain.sol\":2032:2042  bytes32(0) */\n      dup1\n      shl\n        /* \"contracts/TaxiChain.sol\":1750:2075  Trip({... */\n      dup2\n      mstore\n      0x20\n      add\n        /* \"contracts/TaxiChain.sol\":2062:2067  false */\n      0x00\n        /* \"contracts/TaxiChain.sol\":1750:2075  Trip({... */\n      iszero\n      iszero\n      dup2\n      mstore\n      pop\n        /* \"contracts/TaxiChain.sol\":1729:1734  trips */\n      0x00\n        /* \"contracts/TaxiChain.sol\":1729:1747  trips[tripCounter] */\n      dup1\n        /* \"contracts/TaxiChain.sol\":1735:1746  tripCounter */\n      sload(0x02)\n        /* \"contracts/TaxiChain.sol\":1729:1747  trips[tripCounter] */\n      dup2\n      mstore\n      0x20\n      add\n      swap1\n      dup2\n      mstore\n      0x20\n      add\n      0x00\n      keccak256\n        /* \"contracts/TaxiChain.sol\":1729:2075  trips[tripCounter] = Trip({... */\n      0x00\n      dup3\n      add\n      mload\n      dup2\n      0x00\n      add\n      sstore\n      0x20\n      dup3\n      add\n      mload\n      dup2\n      0x01\n      add\n      swap1\n      dup2\n      tag_109\n      swap2\n      swap1\n      tag_110\n      jump\t// in\n    tag_109:\n      pop\n      0x40\n      dup3\n      add\n      mload\n      dup2\n      0x02\n      add\n      swap1\n      dup2\n      tag_111\n      swap2\n      swap1\n      tag_110\n      jump\t// in\n    tag_111:\n      pop\n      0x60\n      dup3\n      add\n      mload\n      dup2\n      0x03\n      add\n      exp(0x0100, 0x00)\n      dup2\n      sload\n      dup2\n      0xff\n      mul\n      not\n      and\n      swap1\n      dup4\n      iszero\n      iszero\n      mul\n      or\n      swap1\n      sstore\n      pop\n      0x80\n      dup3\n      add\n      mload\n      dup2\n      0x04\n      add\n      swap1\n      dup2\n      tag_112\n      swap2\n      swap1\n      tag_110\n      jump\t// in\n    tag_112:\n      pop\n      0xa0\n      dup3\n      add\n      mload\n      dup2\n      0x05\n      add\n      sstore\n      0xc0\n      dup3\n      add\n      mload\n      dup2\n      0x06\n      add\n      sstore\n      0xe0\n      dup3\n      add\n      mload\n      dup2\n      0x07\n      add\n      exp(0x0100, 0x00)\n      dup2\n      sload\n      dup2\n      0xffffffffffffffffffffffffffffffffffffffff\n      mul\n      not\n      and\n      swap1\n      dup4\n      0xffffffffffffffffffffffffffffffffffffffff\n      and\n      mul\n      or\n      swap1\n      sstore\n      pop\n      0x0100\n      dup3\n      add\n      mload\n      dup2\n      0x08\n      add\n      swap1\n      dup1\n      mload\n      swap1\n      0x20\n      add\n      swap1\n      tag_113\n      swap3\n      swap2\n      swap1\n      tag_114\n      jump\t// in\n    tag_113:\n      pop\n      0x0120\n      dup3\n      add\n      mload\n      dup2\n      0x09\n      add\n      sstore\n      0x0140\n      dup3\n      add\n      mload\n      dup2\n      0x0a\n      add\n      exp(0x0100, 0x00)\n      dup2\n      sload\n      dup2\n      0xff\n      mul\n      not\n      and\n      swap1\n      dup4\n      iszero\n      iszero\n      mul\n      or\n      swap1\n      sstore\n      pop\n      swap1\n      pop\n      pop\n        /* \"contracts/TaxiChain.sol\":2089:2142  TripCreated(tripCounter, msg.sender, _fare, _details) */\n      0x0d738af278540540083f5d8180dd9a02dc202474bcb20ef35f68b6ab5aeaaf44\n        /* \"contracts/TaxiChain.sol\":2101:2112  tripCounter */\n      sload(0x02)\n        /* \"contracts/TaxiChain.sol\":2114:2124  msg.sender */\n      caller\n        /* \"contracts/TaxiChain.sol\":2126:2131  _fare */\n      dup9\n        /* \"contracts/TaxiChain.sol\":2133:2141  _details */\n      dup9\n        /* \"contracts/TaxiChain.sol\":2089:2142  TripCreated(tripCounter, msg.sender, _fare, _details) */\n      mload(0x40)\n      tag_115\n      swap5\n      swap4\n      swap3\n      swap2\n      swap1\n      tag_116\n      jump\t// in\n    tag_115:\n      mload(0x40)\n      dup1\n      swap2\n      sub\n      swap1\n      log1\n        /* \"contracts/TaxiChain.sol\":2156:2167  tripCounter */\n      sload(0x02)\n        /* \"contracts/TaxiChain.sol\":2149:2167  return tripCounter */\n      swap1\n      pop\n        /* \"contracts/TaxiChain.sol\":1518:2173  function createTrip(... */\n      swap6\n      swap5\n      pop\n      pop\n      pop\n      pop\n      pop\n      jump\t// out\n    tag_114:\n      dup3\n      dup1\n      sload\n      dup3\n      dup3\n      sstore\n      swap1\n      0x00\n      mstore\n      keccak256(0x00, 0x20)\n      swap1\n      dup2\n      add\n      swap3\n      dup3\n      iszero\n      tag_117\n      jumpi\n      swap2\n      0x20\n      mul\n      dup3\n      add\n    tag_118:\n      dup3\n      dup2\n      gt\n      iszero\n      tag_119\n      jumpi\n      dup3\n      mload\n      dup3\n      exp(0x0100, 0x00)\n      dup2\n      sload\n      dup2\n      0xffffffffffffffffffffffffffffffffffffffff\n      mul\n      not\n      and\n      swap1\n      dup4\n      0xffffffffffffffffffffffffffffffffffffffff\n      and\n      mul\n      or\n      swap1\n      sstore\n      pop\n      swap2\n      0x20\n      add\n      swap2\n      swap1\n      0x01\n      add\n      swap1\n      jump(tag_118)\n    tag_119:\n    tag_117:\n      pop\n      swap1\n      pop\n      tag_120\n      swap2\n      swap1\n      tag_121\n      jump\t// in\n    tag_120:\n      pop\n      swap1\n      jump\t// out\n    tag_121:\n    tag_122:\n      dup1\n      dup3\n      gt\n      iszero\n      tag_123\n      jumpi\n      0x00\n      dup2\n      0x00\n      swap1\n      sstore\n      pop\n      0x01\n      add\n      jump(tag_122)\n    tag_123:\n      pop\n      swap1\n      jump\t// out\n        /* \"#utility.yul\":7:82   */\n    tag_124:\n        /* \"#utility.yul\":40:46   */\n      0x00\n        /* \"#utility.yul\":73:75   */\n      0x40\n        /* \"#utility.yul\":67:76   */\n      mload\n        /* \"#utility.yul\":57:76   */\n      swap1\n      pop\n        /* \"#utility.yul\":7:82   */\n      swap1\n      jump\t// out\n        /* \"#utility.yul\":88:205   */\n    tag_125:\n        /* \"#utility.yul\":197:198   */\n      0x00\n        /* \"#utility.yul\":194:195   */\n      dup1\n        /* \"#utility.yul\":187:199   */\n      revert\n        /* \"#utility.yul\":211:328   */\n    tag_126:\n        /* \"#utility.yul\":320:321   */\n      0x00\n        /* \"#utility.yul\":317:318   */\n      dup1\n        /* \"#utility.yul\":310:322   */\n      revert\n        /* \"#utility.yul\":334:411   */\n    tag_127:\n        /* \"#utility.yul\":371:378   */\n      0x00\n        /* \"#utility.yul\":400:405   */\n      dup2\n        /* \"#utility.yul\":389:405   */\n      swap1\n      pop\n        /* \"#utility.yul\":334:411   */\n      swap2\n      swap1\n      pop\n      jump\t// out\n        /* \"#utility.yul\":417:539   */\n    tag_128:\n        /* \"#utility.yul\":490:514   */\n      tag_194\n        /* \"#utility.yul\":508:513   */\n      dup2\n        /* \"#utility.yul\":490:514   */\n      tag_127\n      jump\t// in\n    tag_194:\n        /* \"#utility.yul\":483:488   */\n      dup2\n        /* \"#utility.yul\":480:515   */\n      eq\n        /* \"#utility.yul\":470:533   */\n      tag_195\n      jumpi\n        /* \"#utility.yul\":529:530   */\n      0x00\n        /* \"#utility.yul\":526:527   */\n      dup1\n        /* \"#utility.yul\":519:531   */\n      revert\n        /* \"#utility.yul\":470:533   */\n    tag_195:\n        /* \"#utility.yul\":417:539   */\n      pop\n      jump\t// out\n        /* \"#utility.yul\":545:684   */\n    tag_129:\n        /* \"#utility.yul\":591:596   */\n      0x00\n        /* \"#utility.yul\":629:635   */\n      dup2\n        /* \"#utility.yul\":616:636   */\n      calldataload\n        /* \"#utility.yul\":607:636   */\n      swap1\n      pop\n        /* \"#utility.yul\":645:678   */\n      tag_197\n        /* \"#utility.yul\":672:677   */\n      dup2\n        /* \"#utility.yul\":645:678   */\n      tag_128\n      jump\t// in\n    tag_197:\n        /* \"#utility.yul\":545:684   */\n      swap3\n      swap2\n      pop\n      pop\n      jump\t// out\n        /* \"#utility.yul\":690:1019   */\n    tag_13:\n        /* \"#utility.yul\":749:755   */\n      0x00\n        /* \"#utility.yul\":798:800   */\n      0x20\n        /* \"#utility.yul\":786:795   */\n      dup3\n        /* \"#utility.yul\":777:784   */\n      dup5\n        /* \"#utility.yul\":773:796   */\n      sub\n        /* \"#utility.yul\":769:801   */\n      slt\n        /* \"#utility.yul\":766:885   */\n      iszero\n      tag_199\n      jumpi\n        /* \"#utility.yul\":804:883   */\n      tag_200\n      tag_125\n      jump\t// in\n    tag_200:\n        /* \"#utility.yul\":766:885   */\n    tag_199:\n        /* \"#utility.yul\":924:925   */\n      0x00\n        /* \"#utility.yul\":949:1002   */\n      tag_201\n        /* \"#utility.yul\":994:1001   */\n      dup5\n        /* \"#utility.yul\":985:991   */\n      dup3\n        /* \"#utility.yul\":974:983   */\n      dup6\n        /* \"#utility.yul\":970:992   */\n      add\n        /* \"#utility.yul\":949:1002   */\n      tag_129\n      jump\t// in\n    tag_201:\n        /* \"#utility.yul\":939:1002   */\n      swap2\n      pop\n        /* \"#utility.yul\":895:1012   */\n      pop\n        /* \"#utility.yul\":690:1019   */\n      swap3\n      swap2\n      pop\n      pop\n      jump\t// out\n        /* \"#utility.yul\":1025:1143   */\n    tag_130:\n        /* \"#utility.yul\":1112:1136   */\n      tag_203\n        /* \"#utility.yul\":1130:1135   */\n      dup2\n        /* \"#utility.yul\":1112:1136   */\n      tag_127\n      jump\t// in\n    tag_203:\n        /* \"#utility.yul\":1107:1110   */\n      dup3\n        /* \"#utility.yul\":1100:1137   */\n      mstore\n        /* \"#utility.yul\":1025:1143   */\n      pop\n      pop\n      jump\t// out\n        /* \"#utility.yul\":1149:1248   */\n    tag_131:\n        /* \"#utility.yul\":1201:1207   */\n      0x00\n        /* \"#utility.yul\":1235:1240   */\n      dup2\n        /* \"#utility.yul\":1229:1241   */\n      mload\n        /* \"#utility.yul\":1219:1241   */\n      swap1\n      pop\n        /* \"#utility.yul\":1149:1248   */\n      swap2\n      swap1\n      pop\n      jump\t// out\n        /* \"#utility.yul\":1254:1423   */\n    tag_132:\n        /* \"#utility.yul\":1338:1349   */\n      0x00\n        /* \"#utility.yul\":1372:1378   */\n      dup3\n        /* \"#utility.yul\":1367:1370   */\n      dup3\n        /* \"#utility.yul\":1360:1379   */\n      mstore\n        /* \"#utility.yul\":1412:1416   */\n      0x20\n        /* \"#utility.yul\":1407:1410   */\n      dup3\n        /* \"#utility.yul\":1403:1417   */\n      add\n        /* \"#utility.yul\":1388:1417   */\n      swap1\n      pop\n        /* \"#utility.yul\":1254:1423   */\n      swap3\n      swap2\n      pop\n      pop\n      jump\t// out\n        /* \"#utility.yul\":1429:1675   */\n    tag_133:\n        /* \"#utility.yul\":1510:1511   */\n      0x00\n        /* \"#utility.yul\":1520:1633   */\n    tag_207:\n        /* \"#utility.yul\":1534:1540   */\n      dup4\n        /* \"#utility.yul\":1531:1532   */\n      dup2\n        /* \"#utility.yul\":1528:1541   */\n      lt\n        /* \"#utility.yul\":1520:1633   */\n      iszero\n      tag_209\n      jumpi\n        /* \"#utility.yul\":1619:1620   */\n      dup1\n        /* \"#utility.yul\":1614:1617   */\n      dup3\n        /* \"#utility.yul\":1610:1621   */\n      add\n        /* \"#utility.yul\":1604:1622   */\n      mload\n        /* \"#utility.yul\":1600:1601   */\n      dup2\n        /* \"#utility.yul\":1595:1598   */\n      dup5\n        /* \"#utility.yul\":1591:1602   */\n      add\n        /* \"#utility.yul\":1584:1623   */\n      mstore\n        /* \"#utility.yul\":1556:1558   */\n      0x20\n        /* \"#utility.yul\":1553:1554   */\n      dup2\n        /* \"#utility.yul\":1549:1559   */\n      add\n        /* \"#utility.yul\":1544:1559   */\n      swap1\n      pop\n        /* \"#utility.yul\":1520:1633   */\n      jump(tag_207)\n    tag_209:\n        /* \"#utility.yul\":1667:1668   */\n      0x00\n        /* \"#utility.yul\":1658:1664   */\n      dup5\n        /* \"#utility.yul\":1653:1656   */\n      dup5\n        /* \"#utility.yul\":1649:1665   */\n      add\n        /* \"#utility.yul\":1642:1669   */\n      mstore\n        /* \"#utility.yul\":1491:1675   */\n      pop\n        /* \"#utility.yul\":1429:1675   */\n      pop\n      pop\n      pop\n      jump\t// out\n        /* \"#utility.yul\":1681:1783   */\n    tag_134:\n        /* \"#utility.yul\":1722:1728   */\n      0x00\n        /* \"#utility.yul\":1773:1775   */\n      0x1f\n        /* \"#utility.yul\":1769:1776   */\n      not\n        /* \"#utility.yul\":1764:1766   */\n      0x1f\n        /* \"#utility.yul\":1757:1762   */\n      dup4\n        /* \"#utility.yul\":1753:1767   */\n      add\n        /* \"#utility.yul\":1749:1777   */\n      and\n        /* \"#utility.yul\":1739:1777   */\n      swap1\n      pop\n        /* \"#utility.yul\":1681:1783   */\n      swap2\n      swap1\n      pop\n      jump\t// out\n        /* \"#utility.yul\":1789:2166   */\n    tag_135:\n        /* \"#utility.yul\":1877:1880   */\n      0x00\n        /* \"#utility.yul\":1905:1944   */\n      tag_212\n        /* \"#utility.yul\":1938:1943   */\n      dup3\n        /* \"#utility.yul\":1905:1944   */\n      tag_131\n      jump\t// in\n    tag_212:\n        /* \"#utility.yul\":1960:2031   */\n      tag_213\n        /* \"#utility.yul\":2024:2030   */\n      dup2\n        /* \"#utility.yul\":2019:2022   */\n      dup6\n        /* \"#utility.yul\":1960:2031   */\n      tag_132\n      jump\t// in\n    tag_213:\n        /* \"#utility.yul\":1953:2031   */\n      swap4\n      pop\n        /* \"#utility.yul\":2040:2105   */\n      tag_214\n        /* \"#utility.yul\":2098:2104   */\n      dup2\n        /* \"#utility.yul\":2093:2096   */\n      dup6\n        /* \"#utility.yul\":2086:2090   */\n      0x20\n        /* \"#utility.yul\":2079:2084   */\n      dup7\n        /* \"#utility.yul\":2075:2091   */\n      add\n        /* \"#utility.yul\":2040:2105   */\n      tag_133\n      jump\t// in\n    tag_214:\n        /* \"#utility.yul\":2130:2159   */\n      tag_215\n        /* \"#utility.yul\":2152:2158   */\n      dup2\n        /* \"#utility.yul\":2130:2159   */\n      tag_134\n      jump\t// in\n    tag_215:\n        /* \"#utility.yul\":2125:2128   */\n      dup5\n        /* \"#utility.yul\":2121:2160   */\n      add\n        /* \"#utility.yul\":2114:2160   */\n      swap2\n      pop\n        /* \"#utility.yul\":1881:2166   */\n      pop\n        /* \"#utility.yul\":1789:2166   */\n      swap3\n      swap2\n      pop\n      pop\n      jump\t// out\n        /* \"#utility.yul\":2172:2262   */\n    tag_136:\n        /* \"#utility.yul\":2206:2213   */\n      0x00\n        /* \"#utility.yul\":2249:2254   */\n      dup2\n        /* \"#utility.yul\":2242:2255   */\n      iszero\n        /* \"#utility.yul\":2235:2256   */\n      iszero\n        /* \"#utility.yul\":2224:2256   */\n      swap1\n      pop\n        /* \"#utility.yul\":2172:2262   */\n      swap2\n      swap1\n      pop\n      jump\t// out\n        /* \"#utility.yul\":2268:2377   */\n    tag_137:\n        /* \"#utility.yul\":2349:2370   */\n      tag_218\n        /* \"#utility.yul\":2364:2369   */\n      dup2\n        /* \"#utility.yul\":2349:2370   */\n      tag_136\n      jump\t// in\n    tag_218:\n        /* \"#utility.yul\":2344:2347   */\n      dup3\n        /* \"#utility.yul\":2337:2371   */\n      mstore\n        /* \"#utility.yul\":2268:2377   */\n      pop\n      pop\n      jump\t// out\n        /* \"#utility.yul\":2383:2509   */\n    tag_138:\n        /* \"#utility.yul\":2420:2427   */\n      0x00\n        /* \"#utility.yul\":2460:2502   */\n      0xffffffffffffffffffffffffffffffffffffffff\n        /* \"#utility.yul\":2453:2458   */\n      dup3\n        /* \"#utility.yul\":2449:2503   */\n      and\n        /* \"#utility.yul\":2438:2503   */\n      swap1\n      pop\n        /* \"#utility.yul\":2383:2509   */\n      swap2\n      swap1\n      pop\n      jump\t// out\n        /* \"#utility.yul\":2515:2611   */\n    tag_139:\n        /* \"#utility.yul\":2552:2559   */\n      0x00\n        /* \"#utility.yul\":2581:2605   */\n      tag_221\n        /* \"#utility.yul\":2599:2604   */\n      dup3\n        /* \"#utility.yul\":2581:2605   */\n      tag_138\n      jump\t// in\n    tag_221:\n        /* \"#utility.yul\":2570:2605   */\n      swap1\n      pop\n        /* \"#utility.yul\":2515:2611   */\n      swap2\n      swap1\n      pop\n      jump\t// out\n        /* \"#utility.yul\":2617:2735   */\n    tag_140:\n        /* \"#utility.yul\":2704:2728   */\n      tag_223\n        /* \"#utility.yul\":2722:2727   */\n      dup2\n        /* \"#utility.yul\":2704:2728   */\n      tag_139\n      jump\t// in\n    tag_223:\n        /* \"#utility.yul\":2699:2702   */\n      dup3\n        /* \"#utility.yul\":2692:2729   */\n      mstore\n        /* \"#utility.yul\":2617:2735   */\n      pop\n      pop\n      jump\t// out\n        /* \"#utility.yul\":2741:2855   */\n    tag_141:\n        /* \"#utility.yul\":2808:2814   */\n      0x00\n        /* \"#utility.yul\":2842:2847   */\n      dup2\n        /* \"#utility.yul\":2836:2848   */\n      mload\n        /* \"#utility.yul\":2826:2848   */\n      swap1\n      pop\n        /* \"#utility.yul\":2741:2855   */\n      swap2\n      swap1\n      pop\n      jump\t// out\n        /* \"#utility.yul\":2861:3045   */\n    tag_142:\n        /* \"#utility.yul\":2960:2971   */\n      0x00\n        /* \"#utility.yul\":2994:3000   */\n      dup3\n        /* \"#utility.yul\":2989:2992   */\n      dup3\n        /* \"#utility.yul\":2982:3001   */\n      mstore\n        /* \"#utility.yul\":3034:3038   */\n      0x20\n        /* \"#utility.yul\":3029:3032   */\n      dup3\n        /* \"#utility.yul\":3025:3039   */\n      add\n        /* \"#utility.yul\":3010:3039   */\n      swap1\n      pop\n        /* \"#utility.yul\":2861:3045   */\n      swap3\n      swap2\n      pop\n      pop\n      jump\t// out\n        /* \"#utility.yul\":3051:3183   */\n    tag_143:\n        /* \"#utility.yul\":3118:3122   */\n      0x00\n        /* \"#utility.yul\":3141:3144   */\n      dup2\n        /* \"#utility.yul\":3133:3144   */\n      swap1\n      pop\n        /* \"#utility.yul\":3171:3175   */\n      0x20\n        /* \"#utility.yul\":3166:3169   */\n      dup3\n        /* \"#utility.yul\":3162:3176   */\n      add\n        /* \"#utility.yul\":3154:3176   */\n      swap1\n      pop\n        /* \"#utility.yul\":3051:3183   */\n      swap2\n      swap1\n      pop\n      jump\t// out\n        /* \"#utility.yul\":3189:3297   */\n    tag_144:\n        /* \"#utility.yul\":3266:3290   */\n      tag_228\n        /* \"#utility.yul\":3284:3289   */\n      dup2\n        /* \"#utility.yul\":3266:3290   */\n      tag_139\n      jump\t// in\n    tag_228:\n        /* \"#utility.yul\":3261:3264   */\n      dup3\n        /* \"#utility.yul\":3254:3291   */\n      mstore\n        /* \"#utility.yul\":3189:3297   */\n      pop\n      pop\n      jump\t// out\n        /* \"#utility.yul\":3303:3482   */\n    tag_145:\n        /* \"#utility.yul\":3372:3382   */\n      0x00\n        /* \"#utility.yul\":3393:3439   */\n      tag_230\n        /* \"#utility.yul\":3435:3438   */\n      dup4\n        /* \"#utility.yul\":3427:3433   */\n      dup4\n        /* \"#utility.yul\":3393:3439   */\n      tag_144\n      jump\t// in\n    tag_230:\n        /* \"#utility.yul\":3471:3475   */\n      0x20\n        /* \"#utility.yul\":3466:3469   */\n      dup4\n        /* \"#utility.yul\":3462:3476   */\n      add\n        /* \"#utility.yul\":3448:3476   */\n      swap1\n      pop\n        /* \"#utility.yul\":3303:3482   */\n      swap3\n      swap2\n      pop\n      pop\n      jump\t// out\n        /* \"#utility.yul\":3488:3601   */\n    tag_146:\n        /* \"#utility.yul\":3558:3562   */\n      0x00\n        /* \"#utility.yul\":3590:3594   */\n      0x20\n        /* \"#utility.yul\":3585:3588   */\n      dup3\n        /* \"#utility.yul\":3581:3595   */\n      add\n        /* \"#utility.yul\":3573:3595   */\n      swap1\n      pop\n        /* \"#utility.yul\":3488:3601   */\n      swap2\n      swap1\n      pop\n      jump\t// out\n        /* \"#utility.yul\":3637:4369   */\n    tag_147:\n        /* \"#utility.yul\":3756:3759   */\n      0x00\n        /* \"#utility.yul\":3785:3839   */\n      tag_233\n        /* \"#utility.yul\":3833:3838   */\n      dup3\n        /* \"#utility.yul\":3785:3839   */\n      tag_141\n      jump\t// in\n    tag_233:\n        /* \"#utility.yul\":3855:3941   */\n      tag_234\n        /* \"#utility.yul\":3934:3940   */\n      dup2\n        /* \"#utility.yul\":3929:3932   */\n      dup6\n        /* \"#utility.yul\":3855:3941   */\n      tag_142\n      jump\t// in\n    tag_234:\n        /* \"#utility.yul\":3848:3941   */\n      swap4\n      pop\n        /* \"#utility.yul\":3965:4021   */\n      tag_235\n        /* \"#utility.yul\":4015:4020   */\n      dup4\n        /* \"#utility.yul\":3965:4021   */\n      tag_143\n      jump\t// in\n    tag_235:\n        /* \"#utility.yul\":4044:4051   */\n      dup1\n        /* \"#utility.yul\":4075:4076   */\n      0x00\n        /* \"#utility.yul\":4060:4344   */\n    tag_236:\n        /* \"#utility.yul\":4085:4091   */\n      dup4\n        /* \"#utility.yul\":4082:4083   */\n      dup2\n        /* \"#utility.yul\":4079:4092   */\n      lt\n        /* \"#utility.yul\":4060:4344   */\n      iszero\n      tag_238\n      jumpi\n        /* \"#utility.yul\":4161:4167   */\n      dup2\n        /* \"#utility.yul\":4155:4168   */\n      mload\n        /* \"#utility.yul\":4188:4251   */\n      tag_239\n        /* \"#utility.yul\":4247:4250   */\n      dup9\n        /* \"#utility.yul\":4232:4245   */\n      dup3\n        /* \"#utility.yul\":4188:4251   */\n      tag_145\n      jump\t// in\n    tag_239:\n        /* \"#utility.yul\":4181:4251   */\n      swap8\n      pop\n        /* \"#utility.yul\":4274:4334   */\n      tag_240\n        /* \"#utility.yul\":4327:4333   */\n      dup4\n        /* \"#utility.yul\":4274:4334   */\n      tag_146\n      jump\t// in\n    tag_240:\n        /* \"#utility.yul\":4264:4334   */\n      swap3\n      pop\n        /* \"#utility.yul\":4120:4344   */\n      pop\n        /* \"#utility.yul\":4107:4108   */\n      0x01\n        /* \"#utility.yul\":4104:4105   */\n      dup2\n        /* \"#utility.yul\":4100:4109   */\n      add\n        /* \"#utility.yul\":4095:4109   */\n      swap1\n      pop\n        /* \"#utility.yul\":4060:4344   */\n      jump(tag_236)\n    tag_238:\n        /* \"#utility.yul\":4064:4078   */\n      pop\n        /* \"#utility.yul\":4360:4363   */\n      dup6\n        /* \"#utility.yul\":4353:4363   */\n      swap4\n      pop\n        /* \"#utility.yul\":3761:4369   */\n      pop\n      pop\n      pop\n        /* \"#utility.yul\":3637:4369   */\n      swap3\n      swap2\n      pop\n      pop\n      jump\t// out\n        /* \"#utility.yul\":4375:4452   */\n    tag_148:\n        /* \"#utility.yul\":4412:4419   */\n      0x00\n        /* \"#utility.yul\":4441:4446   */\n      dup2\n        /* \"#utility.yul\":4430:4446   */\n      swap1\n      pop\n        /* \"#utility.yul\":4375:4452   */\n      swap2\n      swap1\n      pop\n      jump\t// out\n        /* \"#utility.yul\":4458:4576   */\n    tag_149:\n        /* \"#utility.yul\":4545:4569   */\n      tag_243\n        /* \"#utility.yul\":4563:4568   */\n      dup2\n        /* \"#utility.yul\":4545:4569   */\n      tag_148\n      jump\t// in\n    tag_243:\n        /* \"#utility.yul\":4540:4543   */\n      dup3\n        /* \"#utility.yul\":4533:4570   */\n      mstore\n        /* \"#utility.yul\":4458:4576   */\n      pop\n      pop\n      jump\t// out\n        /* \"#utility.yul\":4582:6314   */\n    tag_16:\n        /* \"#utility.yul\":5054:5058   */\n      0x00\n        /* \"#utility.yul\":5092:5095   */\n      0x0160\n        /* \"#utility.yul\":5081:5090   */\n      dup3\n        /* \"#utility.yul\":5077:5096   */\n      add\n        /* \"#utility.yul\":5069:5096   */\n      swap1\n      pop\n        /* \"#utility.yul\":5106:5177   */\n      tag_245\n        /* \"#utility.yul\":5174:5175   */\n      0x00\n        /* \"#utility.yul\":5163:5172   */\n      dup4\n        /* \"#utility.yul\":5159:5176   */\n      add\n        /* \"#utility.yul\":5150:5156   */\n      dup15\n        /* \"#utility.yul\":5106:5177   */\n      tag_130\n      jump\t// in\n    tag_245:\n        /* \"#utility.yul\":5224:5233   */\n      dup2\n        /* \"#utility.yul\":5218:5222   */\n      dup2\n        /* \"#utility.yul\":5214:5234   */\n      sub\n        /* \"#utility.yul\":5209:5211   */\n      0x20\n        /* \"#utility.yul\":5198:5207   */\n      dup4\n        /* \"#utility.yul\":5194:5212   */\n      add\n        /* \"#utility.yul\":5187:5235   */\n      mstore\n        /* \"#utility.yul\":5252:5330   */\n      tag_246\n        /* \"#utility.yul\":5325:5329   */\n      dup2\n        /* \"#utility.yul\":5316:5322   */\n      dup14\n        /* \"#utility.yul\":5252:5330   */\n      tag_135\n      jump\t// in\n    tag_246:\n        /* \"#utility.yul\":5244:5330   */\n      swap1\n      pop\n        /* \"#utility.yul\":5377:5386   */\n      dup2\n        /* \"#utility.yul\":5371:5375   */\n      dup2\n        /* \"#utility.yul\":5367:5387   */\n      sub\n        /* \"#utility.yul\":5362:5364   */\n      0x40\n        /* \"#utility.yul\":5351:5360   */\n      dup4\n        /* \"#utility.yul\":5347:5365   */\n      add\n        /* \"#utility.yul\":5340:5388   */\n      mstore\n        /* \"#utility.yul\":5405:5483   */\n      tag_247\n        /* \"#utility.yul\":5478:5482   */\n      dup2\n        /* \"#utility.yul\":5469:5475   */\n      dup13\n        /* \"#utility.yul\":5405:5483   */\n      tag_135\n      jump\t// in\n    tag_247:\n        /* \"#utility.yul\":5397:5483   */\n      swap1\n      pop\n        /* \"#utility.yul\":5493:5559   */\n      tag_248\n        /* \"#utility.yul\":5555:5557   */\n      0x60\n        /* \"#utility.yul\":5544:5553   */\n      dup4\n        /* \"#utility.yul\":5540:5558   */\n      add\n        /* \"#utility.yul\":5531:5537   */\n      dup12\n        /* \"#utility.yul\":5493:5559   */\n      tag_137\n      jump\t// in\n    tag_248:\n        /* \"#utility.yul\":5607:5616   */\n      dup2\n        /* \"#utility.yul\":5601:5605   */\n      dup2\n        /* \"#utility.yul\":5597:5617   */\n      sub\n        /* \"#utility.yul\":5591:5594   */\n      0x80\n        /* \"#utility.yul\":5580:5589   */\n      dup4\n        /* \"#utility.yul\":5576:5595   */\n      add\n        /* \"#utility.yul\":5569:5618   */\n      mstore\n        /* \"#utility.yul\":5635:5713   */\n      tag_249\n        /* \"#utility.yul\":5708:5712   */\n      dup2\n        /* \"#utility.yul\":5699:5705   */\n      dup11\n        /* \"#utility.yul\":5635:5713   */\n      tag_135\n      jump\t// in\n    tag_249:\n        /* \"#utility.yul\":5627:5713   */\n      swap1\n      pop\n        /* \"#utility.yul\":5723:5796   */\n      tag_250\n        /* \"#utility.yul\":5791:5794   */\n      0xa0\n        /* \"#utility.yul\":5780:5789   */\n      dup4\n        /* \"#utility.yul\":5776:5795   */\n      add\n        /* \"#utility.yul\":5767:5773   */\n      dup10\n        /* \"#utility.yul\":5723:5796   */\n      tag_130\n      jump\t// in\n    tag_250:\n        /* \"#utility.yul\":5806:5879   */\n      tag_251\n        /* \"#utility.yul\":5874:5877   */\n      0xc0\n        /* \"#utility.yul\":5863:5872   */\n      dup4\n        /* \"#utility.yul\":5859:5878   */\n      add\n        /* \"#utility.yul\":5850:5856   */\n      dup9\n        /* \"#utility.yul\":5806:5879   */\n      tag_130\n      jump\t// in\n    tag_251:\n        /* \"#utility.yul\":5889:5962   */\n      tag_252\n        /* \"#utility.yul\":5957:5960   */\n      0xe0\n        /* \"#utility.yul\":5946:5955   */\n      dup4\n        /* \"#utility.yul\":5942:5961   */\n      add\n        /* \"#utility.yul\":5933:5939   */\n      dup8\n        /* \"#utility.yul\":5889:5962   */\n      tag_140\n      jump\t// in\n    tag_252:\n        /* \"#utility.yul\":6010:6019   */\n      dup2\n        /* \"#utility.yul\":6004:6008   */\n      dup2\n        /* \"#utility.yul\":6000:6020   */\n      sub\n        /* \"#utility.yul\":5994:5997   */\n      0x0100\n        /* \"#utility.yul\":5983:5992   */\n      dup4\n        /* \"#utility.yul\":5979:5998   */\n      add\n        /* \"#utility.yul\":5972:6021   */\n      mstore\n        /* \"#utility.yul\":6038:6146   */\n      tag_253\n        /* \"#utility.yul\":6141:6145   */\n      dup2\n        /* \"#utility.yul\":6132:6138   */\n      dup7\n        /* \"#utility.yul\":6038:6146   */\n      tag_147\n      jump\t// in\n    tag_253:\n        /* \"#utility.yul\":6030:6146   */\n      swap1\n      pop\n        /* \"#utility.yul\":6156:6229   */\n      tag_254\n        /* \"#utility.yul\":6224:6227   */\n      0x0120\n        /* \"#utility.yul\":6213:6222   */\n      dup4\n        /* \"#utility.yul\":6209:6228   */\n      add\n        /* \"#utility.yul\":6200:6206   */\n      dup6\n        /* \"#utility.yul\":6156:6229   */\n      tag_149\n      jump\t// in\n    tag_254:\n        /* \"#utility.yul\":6239:6307   */\n      tag_255\n        /* \"#utility.yul\":6302:6305   */\n      0x0140\n        /* \"#utility.yul\":6291:6300   */\n      dup4\n        /* \"#utility.yul\":6287:6306   */\n      add\n        /* \"#utility.yul\":6277:6284   */\n      dup5\n        /* \"#utility.yul\":6239:6307   */\n      tag_137\n      jump\t// in\n    tag_255:\n        /* \"#utility.yul\":4582:6314   */\n      swap13\n      swap12\n      pop\n      pop\n      pop\n      pop\n      pop\n      pop\n      pop\n      pop\n      pop\n      pop\n      pop\n      pop\n      jump\t// out\n        /* \"#utility.yul\":6320:6442   */\n    tag_150:\n        /* \"#utility.yul\":6393:6417   */\n      tag_257\n        /* \"#utility.yul\":6411:6416   */\n      dup2\n        /* \"#utility.yul\":6393:6417   */\n      tag_148\n      jump\t// in\n    tag_257:\n        /* \"#utility.yul\":6386:6391   */\n      dup2\n        /* \"#utility.yul\":6383:6418   */\n      eq\n        /* \"#utility.yul\":6373:6436   */\n      tag_258\n      jumpi\n        /* \"#utility.yul\":6432:6433   */\n      0x00\n        /* \"#utility.yul\":6429:6430   */\n      dup1\n        /* \"#utility.yul\":6422:6434   */\n      revert\n        /* \"#utility.yul\":6373:6436   */\n    tag_258:\n        /* \"#utility.yul\":6320:6442   */\n      pop\n      jump\t// out\n        /* \"#utility.yul\":6448:6587   */\n    tag_151:\n        /* \"#utility.yul\":6494:6499   */\n      0x00\n        /* \"#utility.yul\":6532:6538   */\n      dup2\n        /* \"#utility.yul\":6519:6539   */\n      calldataload\n        /* \"#utility.yul\":6510:6539   */\n      swap1\n      pop\n        /* \"#utility.yul\":6548:6581   */\n      tag_260\n        /* \"#utility.yul\":6575:6580   */\n      dup2\n        /* \"#utility.yul\":6548:6581   */\n      tag_150\n      jump\t// in\n    tag_260:\n        /* \"#utility.yul\":6448:6587   */\n      swap3\n      swap2\n      pop\n      pop\n      jump\t// out\n        /* \"#utility.yul\":6593:6922   */\n    tag_23:\n        /* \"#utility.yul\":6652:6658   */\n      0x00\n        /* \"#utility.yul\":6701:6703   */\n      0x20\n        /* \"#utility.yul\":6689:6698   */\n      dup3\n        /* \"#utility.yul\":6680:6687   */\n      dup5\n        /* \"#utility.yul\":6676:6699   */\n      sub\n        /* \"#utility.yul\":6672:6704   */\n      slt\n        /* \"#utility.yul\":6669:6788   */\n      iszero\n      tag_262\n      jumpi\n        /* \"#utility.yul\":6707:6786   */\n      tag_263\n      tag_125\n      jump\t// in\n    tag_263:\n        /* \"#utility.yul\":6669:6788   */\n    tag_262:\n        /* \"#utility.yul\":6827:6828   */\n      0x00\n        /* \"#utility.yul\":6852:6905   */\n      tag_264\n        /* \"#utility.yul\":6897:6904   */\n      dup5\n        /* \"#utility.yul\":6888:6894   */\n      dup3\n        /* \"#utility.yul\":6877:6886   */\n      dup6\n        /* \"#utility.yul\":6873:6895   */\n      add\n        /* \"#utility.yul\":6852:6905   */\n      tag_151\n      jump\t// in\n    tag_264:\n        /* \"#utility.yul\":6842:6905   */\n      swap2\n      pop\n        /* \"#utility.yul\":6798:6915   */\n      pop\n        /* \"#utility.yul\":6593:6922   */\n      swap3\n      swap2\n      pop\n      pop\n      jump\t// out\n        /* \"#utility.yul\":6928:7592   */\n    tag_26:\n        /* \"#utility.yul\":7133:7137   */\n      0x00\n        /* \"#utility.yul\":7171:7174   */\n      0xa0\n        /* \"#utility.yul\":7160:7169   */\n      dup3\n        /* \"#utility.yul\":7156:7175   */\n      add\n        /* \"#utility.yul\":7148:7175   */\n      swap1\n      pop\n        /* \"#utility.yul\":7185:7256   */\n      tag_266\n        /* \"#utility.yul\":7253:7254   */\n      0x00\n        /* \"#utility.yul\":7242:7251   */\n      dup4\n        /* \"#utility.yul\":7238:7255   */\n      add\n        /* \"#utility.yul\":7229:7235   */\n      dup9\n        /* \"#utility.yul\":7185:7256   */\n      tag_130\n      jump\t// in\n    tag_266:\n        /* \"#utility.yul\":7266:7338   */\n      tag_267\n        /* \"#utility.yul\":7334:7336   */\n      0x20\n        /* \"#utility.yul\":7323:7332   */\n      dup4\n        /* \"#utility.yul\":7319:7337   */\n      add\n        /* \"#utility.yul\":7310:7316   */\n      dup8\n        /* \"#utility.yul\":7266:7338   */\n      tag_140\n      jump\t// in\n    tag_267:\n        /* \"#utility.yul\":7348:7420   */\n      tag_268\n        /* \"#utility.yul\":7416:7418   */\n      0x40\n        /* \"#utility.yul\":7405:7414   */\n      dup4\n        /* \"#utility.yul\":7401:7419   */\n      add\n        /* \"#utility.yul\":7392:7398   */\n      dup7\n        /* \"#utility.yul\":7348:7420   */\n      tag_130\n      jump\t// in\n    tag_268:\n        /* \"#utility.yul\":7430:7502   */\n      tag_269\n        /* \"#utility.yul\":7498:7500   */\n      0x60\n        /* \"#utility.yul\":7487:7496   */\n      dup4\n        /* \"#utility.yul\":7483:7501   */\n      add\n        /* \"#utility.yul\":7474:7480   */\n      dup6\n        /* \"#utility.yul\":7430:7502   */\n      tag_130\n      jump\t// in\n    tag_269:\n        /* \"#utility.yul\":7512:7585   */\n      tag_270\n        /* \"#utility.yul\":7580:7583   */\n      0x80\n        /* \"#utility.yul\":7569:7578   */\n      dup4\n        /* \"#utility.yul\":7565:7584   */\n      add\n        /* \"#utility.yul\":7556:7562   */\n      dup5\n        /* \"#utility.yul\":7512:7585   */\n      tag_130\n      jump\t// in\n    tag_270:\n        /* \"#utility.yul\":6928:7592   */\n      swap7\n      swap6\n      pop\n      pop\n      pop\n      pop\n      pop\n      pop\n      jump\t// out\n        /* \"#utility.yul\":7598:7820   */\n    tag_31:\n        /* \"#utility.yul\":7691:7695   */\n      0x00\n        /* \"#utility.yul\":7729:7731   */\n      0x20\n        /* \"#utility.yul\":7718:7727   */\n      dup3\n        /* \"#utility.yul\":7714:7732   */\n      add\n        /* \"#utility.yul\":7706:7732   */\n      swap1\n      pop\n        /* \"#utility.yul\":7742:7813   */\n      tag_272\n        /* \"#utility.yul\":7810:7811   */\n      0x00\n        /* \"#utility.yul\":7799:7808   */\n      dup4\n        /* \"#utility.yul\":7795:7812   */\n      add\n        /* \"#utility.yul\":7786:7792   */\n      dup5\n        /* \"#utility.yul\":7742:7813   */\n      tag_130\n      jump\t// in\n    tag_272:\n        /* \"#utility.yul\":7598:7820   */\n      swap3\n      swap2\n      pop\n      pop\n      jump\t// out\n        /* \"#utility.yul\":7826:7943   */\n    tag_152:\n        /* \"#utility.yul\":7935:7936   */\n      0x00\n        /* \"#utility.yul\":7932:7933   */\n      dup1\n        /* \"#utility.yul\":7925:7937   */\n      revert\n        /* \"#utility.yul\":7949:8066   */\n    tag_153:\n        /* \"#utility.yul\":8058:8059   */\n      0x00\n        /* \"#utility.yul\":8055:8056   */\n      dup1\n        /* \"#utility.yul\":8048:8060   */\n      revert\n        /* \"#utility.yul\":8072:8252   */\n    tag_107:\n        /* \"#utility.yul\":8120:8197   */\n      0x4e487b7100000000000000000000000000000000000000000000000000000000\n        /* \"#utility.yul\":8117:8118   */\n      0x00\n        /* \"#utility.yul\":8110:8198   */\n      mstore\n        /* \"#utility.yul\":8217:8221   */\n      0x41\n        /* \"#utility.yul\":8214:8215   */\n      0x04\n        /* \"#utility.yul\":8207:8222   */\n      mstore\n        /* \"#utility.yul\":8241:8245   */\n      0x24\n        /* \"#utility.yul\":8238:8239   */\n      0x00\n        /* \"#utility.yul\":8231:8246   */\n      revert\n        /* \"#utility.yul\":8258:8539   */\n    tag_154:\n        /* \"#utility.yul\":8341:8368   */\n      tag_277\n        /* \"#utility.yul\":8363:8367   */\n      dup3\n        /* \"#utility.yul\":8341:8368   */\n      tag_134\n      jump\t// in\n    tag_277:\n        /* \"#utility.yul\":8333:8339   */\n      dup2\n        /* \"#utility.yul\":8329:8369   */\n      add\n        /* \"#utility.yul\":8471:8477   */\n      dup2\n        /* \"#utility.yul\":8459:8469   */\n      dup2\n        /* \"#utility.yul\":8456:8478   */\n      lt\n        /* \"#utility.yul\":8435:8453   */\n      0xffffffffffffffff\n        /* \"#utility.yul\":8423:8433   */\n      dup3\n        /* \"#utility.yul\":8420:8454   */\n      gt\n        /* \"#utility.yul\":8417:8479   */\n      or\n        /* \"#utility.yul\":8414:8502   */\n      iszero\n      tag_278\n      jumpi\n        /* \"#utility.yul\":8482:8500   */\n      tag_279\n      tag_107\n      jump\t// in\n    tag_279:\n        /* \"#utility.yul\":8414:8502   */\n    tag_278:\n        /* \"#utility.yul\":8522:8532   */\n      dup1\n        /* \"#utility.yul\":8518:8520   */\n      0x40\n        /* \"#utility.yul\":8511:8533   */\n      mstore\n        /* \"#utility.yul\":8301:8539   */\n      pop\n        /* \"#utility.yul\":8258:8539   */\n      pop\n      pop\n      jump\t// out\n        /* \"#utility.yul\":8545:8674   */\n    tag_155:\n        /* \"#utility.yul\":8579:8585   */\n      0x00\n        /* \"#utility.yul\":8606:8626   */\n      tag_281\n      tag_124\n      jump\t// in\n    tag_281:\n        /* \"#utility.yul\":8596:8626   */\n      swap1\n      pop\n        /* \"#utility.yul\":8635:8668   */\n      tag_282\n        /* \"#utility.yul\":8663:8667   */\n      dup3\n        /* \"#utility.yul\":8655:8661   */\n      dup3\n        /* \"#utility.yul\":8635:8668   */\n      tag_154\n      jump\t// in\n    tag_282:\n        /* \"#utility.yul\":8545:8674   */\n      swap2\n      swap1\n      pop\n      jump\t// out\n        /* \"#utility.yul\":8680:8988   */\n    tag_156:\n        /* \"#utility.yul\":8742:8746   */\n      0x00\n        /* \"#utility.yul\":8832:8850   */\n      0xffffffffffffffff\n        /* \"#utility.yul\":8824:8830   */\n      dup3\n        /* \"#utility.yul\":8821:8851   */\n      gt\n        /* \"#utility.yul\":8818:8874   */\n      iszero\n      tag_284\n      jumpi\n        /* \"#utility.yul\":8854:8872   */\n      tag_285\n      tag_107\n      jump\t// in\n    tag_285:\n        /* \"#utility.yul\":8818:8874   */\n    tag_284:\n        /* \"#utility.yul\":8892:8921   */\n      tag_286\n        /* \"#utility.yul\":8914:8920   */\n      dup3\n        /* \"#utility.yul\":8892:8921   */\n      tag_134\n      jump\t// in\n    tag_286:\n        /* \"#utility.yul\":8884:8921   */\n      swap1\n      pop\n        /* \"#utility.yul\":8976:8980   */\n      0x20\n        /* \"#utility.yul\":8970:8974   */\n      dup2\n        /* \"#utility.yul\":8966:8981   */\n      add\n        /* \"#utility.yul\":8958:8981   */\n      swap1\n      pop\n        /* \"#utility.yul\":8680:8988   */\n      swap2\n      swap1\n      pop\n      jump\t// out\n        /* \"#utility.yul\":8994:9140   */\n    tag_157:\n        /* \"#utility.yul\":9091:9097   */\n      dup3\n        /* \"#utility.yul\":9086:9089   */\n      dup2\n        /* \"#utility.yul\":9081:9084   */\n      dup4\n        /* \"#utility.yul\":9068:9098   */\n      calldatacopy\n        /* \"#utility.yul\":9132:9133   */\n      0x00\n        /* \"#utility.yul\":9123:9129   */\n      dup4\n        /* \"#utility.yul\":9118:9121   */\n      dup4\n        /* \"#utility.yul\":9114:9130   */\n      add\n        /* \"#utility.yul\":9107:9134   */\n      mstore\n        /* \"#utility.yul\":8994:9140   */\n      pop\n      pop\n      pop\n      jump\t// out\n        /* \"#utility.yul\":9146:9571   */\n    tag_158:\n        /* \"#utility.yul\":9224:9229   */\n      0x00\n        /* \"#utility.yul\":9249:9315   */\n      tag_289\n        /* \"#utility.yul\":9265:9314   */\n      tag_290\n        /* \"#utility.yul\":9307:9313   */\n      dup5\n        /* \"#utility.yul\":9265:9314   */\n      tag_156\n      jump\t// in\n    tag_290:\n        /* \"#utility.yul\":9249:9315   */\n      tag_155\n      jump\t// in\n    tag_289:\n        /* \"#utility.yul\":9240:9315   */\n      swap1\n      pop\n        /* \"#utility.yul\":9338:9344   */\n      dup3\n        /* \"#utility.yul\":9331:9336   */\n      dup2\n        /* \"#utility.yul\":9324:9345   */\n      mstore\n        /* \"#utility.yul\":9376:9380   */\n      0x20\n        /* \"#utility.yul\":9369:9374   */\n      dup2\n        /* \"#utility.yul\":9365:9381   */\n      add\n        /* \"#utility.yul\":9414:9417   */\n      dup5\n        /* \"#utility.yul\":9405:9411   */\n      dup5\n        /* \"#utility.yul\":9400:9403   */\n      dup5\n        /* \"#utility.yul\":9396:9412   */\n      add\n        /* \"#utility.yul\":9393:9418   */\n      gt\n        /* \"#utility.yul\":9390:9502   */\n      iszero\n      tag_291\n      jumpi\n        /* \"#utility.yul\":9421:9500   */\n      tag_292\n      tag_153\n      jump\t// in\n    tag_292:\n        /* \"#utility.yul\":9390:9502   */\n    tag_291:\n        /* \"#utility.yul\":9511:9565   */\n      tag_293\n        /* \"#utility.yul\":9558:9564   */\n      dup5\n        /* \"#utility.yul\":9553:9556   */\n      dup3\n        /* \"#utility.yul\":9548:9551   */\n      dup6\n        /* \"#utility.yul\":9511:9565   */\n      tag_157\n      jump\t// in\n    tag_293:\n        /* \"#utility.yul\":9230:9571   */\n      pop\n        /* \"#utility.yul\":9146:9571   */\n      swap4\n      swap3\n      pop\n      pop\n      pop\n      jump\t// out\n        /* \"#utility.yul\":9591:9931   */\n    tag_159:\n        /* \"#utility.yul\":9647:9652   */\n      0x00\n        /* \"#utility.yul\":9696:9699   */\n      dup3\n        /* \"#utility.yul\":9689:9693   */\n      0x1f\n        /* \"#utility.yul\":9681:9687   */\n      dup4\n        /* \"#utility.yul\":9677:9694   */\n      add\n        /* \"#utility.yul\":9673:9700   */\n      slt\n        /* \"#utility.yul\":9663:9785   */\n      tag_295\n      jumpi\n        /* \"#utility.yul\":9704:9783   */\n      tag_296\n      tag_152\n      jump\t// in\n    tag_296:\n        /* \"#utility.yul\":9663:9785   */\n    tag_295:\n        /* \"#utility.yul\":9821:9827   */\n      dup2\n        /* \"#utility.yul\":9808:9828   */\n      calldataload\n        /* \"#utility.yul\":9846:9925   */\n      tag_297\n        /* \"#utility.yul\":9921:9924   */\n      dup5\n        /* \"#utility.yul\":9913:9919   */\n      dup3\n        /* \"#utility.yul\":9906:9910   */\n      0x20\n        /* \"#utility.yul\":9898:9904   */\n      dup7\n        /* \"#utility.yul\":9894:9911   */\n      add\n        /* \"#utility.yul\":9846:9925   */\n      tag_158\n      jump\t// in\n    tag_297:\n        /* \"#utility.yul\":9837:9925   */\n      swap2\n      pop\n        /* \"#utility.yul\":9653:9931   */\n      pop\n        /* \"#utility.yul\":9591:9931   */\n      swap3\n      swap2\n      pop\n      pop\n      jump\t// out\n        /* \"#utility.yul\":9937:10053   */\n    tag_160:\n        /* \"#utility.yul\":10007:10028   */\n      tag_299\n        /* \"#utility.yul\":10022:10027   */\n      dup2\n        /* \"#utility.yul\":10007:10028   */\n      tag_136\n      jump\t// in\n    tag_299:\n        /* \"#utility.yul\":10000:10005   */\n      dup2\n        /* \"#utility.yul\":9997:10029   */\n      eq\n        /* \"#utility.yul\":9987:10047   */\n      tag_300\n      jumpi\n        /* \"#utility.yul\":10043:10044   */\n      0x00\n        /* \"#utility.yul\":10040:10041   */\n      dup1\n        /* \"#utility.yul\":10033:10045   */\n      revert\n        /* \"#utility.yul\":9987:10047   */\n    tag_300:\n        /* \"#utility.yul\":9937:10053   */\n      pop\n      jump\t// out\n        /* \"#utility.yul\":10059:10192   */\n    tag_161:\n        /* \"#utility.yul\":10102:10107   */\n      0x00\n        /* \"#utility.yul\":10140:10146   */\n      dup2\n        /* \"#utility.yul\":10127:10147   */\n      calldataload\n        /* \"#utility.yul\":10118:10147   */\n      swap1\n      pop\n        /* \"#utility.yul\":10156:10186   */\n      tag_302\n        /* \"#utility.yul\":10180:10185   */\n      dup2\n        /* \"#utility.yul\":10156:10186   */\n      tag_160\n      jump\t// in\n    tag_302:\n        /* \"#utility.yul\":10059:10192   */\n      swap3\n      swap2\n      pop\n      pop\n      jump\t// out\n        /* \"#utility.yul\":10198:11643   */\n    tag_43:\n        /* \"#utility.yul\":10320:10326   */\n      0x00\n        /* \"#utility.yul\":10328:10334   */\n      dup1\n        /* \"#utility.yul\":10336:10342   */\n      0x00\n        /* \"#utility.yul\":10344:10350   */\n      dup1\n        /* \"#utility.yul\":10352:10358   */\n      0x00\n        /* \"#utility.yul\":10401:10404   */\n      0xa0\n        /* \"#utility.yul\":10389:10398   */\n      dup7\n        /* \"#utility.yul\":10380:10387   */\n      dup9\n        /* \"#utility.yul\":10376:10399   */\n      sub\n        /* \"#utility.yul\":10372:10405   */\n      slt\n        /* \"#utility.yul\":10369:10489   */\n      iszero\n      tag_304\n      jumpi\n        /* \"#utility.yul\":10408:10487   */\n      tag_305\n      tag_125\n      jump\t// in\n    tag_305:\n        /* \"#utility.yul\":10369:10489   */\n    tag_304:\n        /* \"#utility.yul\":10528:10529   */\n      0x00\n        /* \"#utility.yul\":10553:10606   */\n      tag_306\n        /* \"#utility.yul\":10598:10605   */\n      dup9\n        /* \"#utility.yul\":10589:10595   */\n      dup3\n        /* \"#utility.yul\":10578:10587   */\n      dup10\n        /* \"#utility.yul\":10574:10596   */\n      add\n        /* \"#utility.yul\":10553:10606   */\n      tag_129\n      jump\t// in\n    tag_306:\n        /* \"#utility.yul\":10543:10606   */\n      swap6\n      pop\n        /* \"#utility.yul\":10499:10616   */\n      pop\n        /* \"#utility.yul\":10683:10685   */\n      0x20\n        /* \"#utility.yul\":10672:10681   */\n      dup7\n        /* \"#utility.yul\":10668:10686   */\n      add\n        /* \"#utility.yul\":10655:10687   */\n      calldataload\n        /* \"#utility.yul\":10714:10732   */\n      0xffffffffffffffff\n        /* \"#utility.yul\":10706:10712   */\n      dup2\n        /* \"#utility.yul\":10703:10733   */\n      gt\n        /* \"#utility.yul\":10700:10817   */\n      iszero\n      tag_307\n      jumpi\n        /* \"#utility.yul\":10736:10815   */\n      tag_308\n      tag_126\n      jump\t// in\n    tag_308:\n        /* \"#utility.yul\":10700:10817   */\n    tag_307:\n        /* \"#utility.yul\":10841:10904   */\n      tag_309\n        /* \"#utility.yul\":10896:10903   */\n      dup9\n        /* \"#utility.yul\":10887:10893   */\n      dup3\n        /* \"#utility.yul\":10876:10885   */\n      dup10\n        /* \"#utility.yul\":10872:10894   */\n      add\n        /* \"#utility.yul\":10841:10904   */\n      tag_159\n      jump\t// in\n    tag_309:\n        /* \"#utility.yul\":10831:10904   */\n      swap5\n      pop\n        /* \"#utility.yul\":10626:10914   */\n      pop\n        /* \"#utility.yul\":10981:10983   */\n      0x40\n        /* \"#utility.yul\":10970:10979   */\n      dup7\n        /* \"#utility.yul\":10966:10984   */\n      add\n        /* \"#utility.yul\":10953:10985   */\n      calldataload\n        /* \"#utility.yul\":11012:11030   */\n      0xffffffffffffffff\n        /* \"#utility.yul\":11004:11010   */\n      dup2\n        /* \"#utility.yul\":11001:11031   */\n      gt\n        /* \"#utility.yul\":10998:11115   */\n      iszero\n      tag_310\n      jumpi\n        /* \"#utility.yul\":11034:11113   */\n      tag_311\n      tag_126\n      jump\t// in\n    tag_311:\n        /* \"#utility.yul\":10998:11115   */\n    tag_310:\n        /* \"#utility.yul\":11139:11202   */\n      tag_312\n        /* \"#utility.yul\":11194:11201   */\n      dup9\n        /* \"#utility.yul\":11185:11191   */\n      dup3\n        /* \"#utility.yul\":11174:11183   */\n      dup10\n        /* \"#utility.yul\":11170:11192   */\n      add\n        /* \"#utility.yul\":11139:11202   */\n      tag_159\n      jump\t// in\n    tag_312:\n        /* \"#utility.yul\":11129:11202   */\n      swap4\n      pop\n        /* \"#utility.yul\":10924:11212   */\n      pop\n        /* \"#utility.yul\":11279:11281   */\n      0x60\n        /* \"#utility.yul\":11268:11277   */\n      dup7\n        /* \"#utility.yul\":11264:11282   */\n      add\n        /* \"#utility.yul\":11251:11283   */\n      calldataload\n        /* \"#utility.yul\":11310:11328   */\n      0xffffffffffffffff\n        /* \"#utility.yul\":11302:11308   */\n      dup2\n        /* \"#utility.yul\":11299:11329   */\n      gt\n        /* \"#utility.yul\":11296:11413   */\n      iszero\n      tag_313\n      jumpi\n        /* \"#utility.yul\":11332:11411   */\n      tag_314\n      tag_126\n      jump\t// in\n    tag_314:\n        /* \"#utility.yul\":11296:11413   */\n    tag_313:\n        /* \"#utility.yul\":11437:11500   */\n      tag_315\n        /* \"#utility.yul\":11492:11499   */\n      dup9\n        /* \"#utility.yul\":11483:11489   */\n      dup3\n        /* \"#utility.yul\":11472:11481   */\n      dup10\n        /* \"#utility.yul\":11468:11490   */\n      add\n        /* \"#utility.yul\":11437:11500   */\n      tag_159\n      jump\t// in\n    tag_315:\n        /* \"#utility.yul\":11427:11500   */\n      swap3\n      pop\n        /* \"#utility.yul\":11222:11510   */\n      pop\n        /* \"#utility.yul\":11549:11552   */\n      0x80\n        /* \"#utility.yul\":11576:11626   */\n      tag_316\n        /* \"#utility.yul\":11618:11625   */\n      dup9\n        /* \"#utility.yul\":11609:11615   */\n      dup3\n        /* \"#utility.yul\":11598:11607   */\n      dup10\n        /* \"#utility.yul\":11594:11616   */\n      add\n        /* \"#utility.yul\":11576:11626   */\n      tag_161\n      jump\t// in\n    tag_316:\n        /* \"#utility.yul\":11566:11626   */\n      swap2\n      pop\n        /* \"#utility.yul\":11520:11636   */\n      pop\n        /* \"#utility.yul\":10198:11643   */\n      swap3\n      swap6\n      pop\n      swap3\n      swap6\n      swap1\n      swap4\n      pop\n      jump\t// out\n        /* \"#utility.yul\":11649:11829   */\n    tag_162:\n        /* \"#utility.yul\":11697:11774   */\n      0x4e487b7100000000000000000000000000000000000000000000000000000000\n        /* \"#utility.yul\":11694:11695   */\n      0x00\n        /* \"#utility.yul\":11687:11775   */\n      mstore\n        /* \"#utility.yul\":11794:11798   */\n      0x22\n        /* \"#utility.yul\":11791:11792   */\n      0x04\n        /* \"#utility.yul\":11784:11799   */\n      mstore\n        /* \"#utility.yul\":11818:11822   */\n      0x24\n        /* \"#utility.yul\":11815:11816   */\n      0x00\n        /* \"#utility.yul\":11808:11823   */\n      revert\n        /* \"#utility.yul\":11835:12155   */\n    tag_48:\n        /* \"#utility.yul\":11879:11885   */\n      0x00\n        /* \"#utility.yul\":11916:11917   */\n      0x02\n        /* \"#utility.yul\":11910:11914   */\n      dup3\n        /* \"#utility.yul\":11906:11918   */\n      div\n        /* \"#utility.yul\":11896:11918   */\n      swap1\n      pop\n        /* \"#utility.yul\":11963:11964   */\n      0x01\n        /* \"#utility.yul\":11957:11961   */\n      dup3\n        /* \"#utility.yul\":11953:11965   */\n      and\n        /* \"#utility.yul\":11984:12002   */\n      dup1\n        /* \"#utility.yul\":11974:12055   */\n      tag_319\n      jumpi\n        /* \"#utility.yul\":12040:12044   */\n      0x7f\n        /* \"#utility.yul\":12032:12038   */\n      dup3\n        /* \"#utility.yul\":12028:12045   */\n      and\n        /* \"#utility.yul\":12018:12045   */\n      swap2\n      pop\n        /* \"#utility.yul\":11974:12055   */\n    tag_319:\n        /* \"#utility.yul\":12102:12104   */\n      0x20\n        /* \"#utility.yul\":12094:12100   */\n      dup3\n        /* \"#utility.yul\":12091:12105   */\n      lt\n        /* \"#utility.yul\":12071:12089   */\n      dup2\n        /* \"#utility.yul\":12068:12106   */\n      sub\n        /* \"#utility.yul\":12065:12149   */\n      tag_320\n      jumpi\n        /* \"#utility.yul\":12121:12139   */\n      tag_321\n      tag_162\n      jump\t// in\n    tag_321:\n        /* \"#utility.yul\":12065:12149   */\n    tag_320:\n        /* \"#utility.yul\":11886:12155   */\n      pop\n        /* \"#utility.yul\":11835:12155   */\n      swap2\n      swap1\n      pop\n      jump\t// out\n        /* \"#utility.yul\":12161:12330   */\n    tag_163:\n        /* \"#utility.yul\":12301:12322   */\n      0x5472697020646f6573206e6f7420657869737400000000000000000000000000\n        /* \"#utility.yul\":12297:12298   */\n      0x00\n        /* \"#utility.yul\":12289:12295   */\n      dup3\n        /* \"#utility.yul\":12285:12299   */\n      add\n        /* \"#utility.yul\":12278:12323   */\n      mstore\n        /* \"#utility.yul\":12161:12330   */\n      pop\n      jump\t// out\n        /* \"#utility.yul\":12336:12702   */\n    tag_164:\n        /* \"#utility.yul\":12478:12481   */\n      0x00\n        /* \"#utility.yul\":12499:12566   */\n      tag_324\n        /* \"#utility.yul\":12563:12565   */\n      0x13\n        /* \"#utility.yul\":12558:12561   */\n      dup4\n        /* \"#utility.yul\":12499:12566   */\n      tag_132\n      jump\t// in\n    tag_324:\n        /* \"#utility.yul\":12492:12566   */\n      swap2\n      pop\n        /* \"#utility.yul\":12575:12668   */\n      tag_325\n        /* \"#utility.yul\":12664:12667   */\n      dup3\n        /* \"#utility.yul\":12575:12668   */\n      tag_163\n      jump\t// in\n    tag_325:\n        /* \"#utility.yul\":12693:12695   */\n      0x20\n        /* \"#utility.yul\":12688:12691   */\n      dup3\n        /* \"#utility.yul\":12684:12696   */\n      add\n        /* \"#utility.yul\":12677:12696   */\n      swap1\n      pop\n        /* \"#utility.yul\":12336:12702   */\n      swap2\n      swap1\n      pop\n      jump\t// out\n        /* \"#utility.yul\":12708:13127   */\n    tag_68:\n        /* \"#utility.yul\":12874:12878   */\n      0x00\n        /* \"#utility.yul\":12912:12914   */\n      0x20\n        /* \"#utility.yul\":12901:12910   */\n      dup3\n        /* \"#utility.yul\":12897:12915   */\n      add\n        /* \"#utility.yul\":12889:12915   */\n      swap1\n      pop\n        /* \"#utility.yul\":12961:12970   */\n      dup2\n        /* \"#utility.yul\":12955:12959   */\n      dup2\n        /* \"#utility.yul\":12951:12971   */\n      sub\n        /* \"#utility.yul\":12947:12948   */\n      0x00\n        /* \"#utility.yul\":12936:12945   */\n      dup4\n        /* \"#utility.yul\":12932:12949   */\n      add\n        /* \"#utility.yul\":12925:12972   */\n      mstore\n        /* \"#utility.yul\":12989:13120   */\n      tag_327\n        /* \"#utility.yul\":13115:13119   */\n      dup2\n        /* \"#utility.yul\":12989:13120   */\n      tag_164\n      jump\t// in\n    tag_327:\n        /* \"#utility.yul\":12981:13120   */\n      swap1\n      pop\n        /* \"#utility.yul\":12708:13127   */\n      swap2\n      swap1\n      pop\n      jump\t// out\n        /* \"#utility.yul\":13133:13305   */\n    tag_165:\n        /* \"#utility.yul\":13273:13297   */\n      0x5472697020616c726561647920636f6d706c6574656400000000000000000000\n        /* \"#utility.yul\":13269:13270   */\n      0x00\n        /* \"#utility.yul\":13261:13267   */\n      dup3\n        /* \"#utility.yul\":13257:13271   */\n      add\n        /* \"#utility.yul\":13250:13298   */\n      mstore\n        /* \"#utility.yul\":13133:13305   */\n      pop\n      jump\t// out\n        /* \"#utility.yul\":13311:13677   */\n    tag_166:\n        /* \"#utility.yul\":13453:13456   */\n      0x00\n        /* \"#utility.yul\":13474:13541   */\n      tag_330\n        /* \"#utility.yul\":13538:13540   */\n      0x16\n        /* \"#utility.yul\":13533:13536   */\n      dup4\n        /* \"#utility.yul\":13474:13541   */\n      tag_132\n      jump\t// in\n    tag_330:\n        /* \"#utility.yul\":13467:13541   */\n      swap2\n      pop\n        /* \"#utility.yul\":13550:13643   */\n      tag_331\n        /* \"#utility.yul\":13639:13642   */\n      dup3\n        /* \"#utility.yul\":13550:13643   */\n      tag_165\n      jump\t// in\n    tag_331:\n        /* \"#utility.yul\":13668:13670   */\n      0x20\n        /* \"#utility.yul\":13663:13666   */\n      dup3\n        /* \"#utility.yul\":13659:13671   */\n      add\n        /* \"#utility.yul\":13652:13671   */\n      swap1\n      pop\n        /* \"#utility.yul\":13311:13677   */\n      swap2\n      swap1\n      pop\n      jump\t// out\n        /* \"#utility.yul\":13683:14102   */\n    tag_72:\n        /* \"#utility.yul\":13849:13853   */\n      0x00\n        /* \"#utility.yul\":13887:13889   */\n      0x20\n        /* \"#utility.yul\":13876:13885   */\n      dup3\n        /* \"#utility.yul\":13872:13890   */\n      add\n        /* \"#utility.yul\":13864:13890   */\n      swap1\n      pop\n        /* \"#utility.yul\":13936:13945   */\n      dup2\n        /* \"#utility.yul\":13930:13934   */\n      dup2\n        /* \"#utility.yul\":13926:13946   */\n      sub\n        /* \"#utility.yul\":13922:13923   */\n      0x00\n        /* \"#utility.yul\":13911:13920   */\n      dup4\n        /* \"#utility.yul\":13907:13924   */\n      add\n        /* \"#utility.yul\":13900:13947   */\n      mstore\n        /* \"#utility.yul\":13964:14095   */\n      tag_333\n        /* \"#utility.yul\":14090:14094   */\n      dup2\n        /* \"#utility.yul\":13964:14095   */\n      tag_166\n      jump\t// in\n    tag_333:\n        /* \"#utility.yul\":13956:14095   */\n      swap1\n      pop\n        /* \"#utility.yul\":13683:14102   */\n      swap2\n      swap1\n      pop\n      jump\t// out\n        /* \"#utility.yul\":14108:14288   */\n    tag_167:\n        /* \"#utility.yul\":14156:14233   */\n      0x4e487b7100000000000000000000000000000000000000000000000000000000\n        /* \"#utility.yul\":14153:14154   */\n      0x00\n        /* \"#utility.yul\":14146:14234   */\n      mstore\n        /* \"#utility.yul\":14253:14257   */\n      0x11\n        /* \"#utility.yul\":14250:14251   */\n      0x04\n        /* \"#utility.yul\":14243:14258   */\n      mstore\n        /* \"#utility.yul\":14277:14281   */\n      0x24\n        /* \"#utility.yul\":14274:14275   */\n      0x00\n        /* \"#utility.yul\":14267:14282   */\n      revert\n        /* \"#utility.yul\":14294:14704   */\n    tag_75:\n        /* \"#utility.yul\":14334:14341   */\n      0x00\n        /* \"#utility.yul\":14357:14377   */\n      tag_336\n        /* \"#utility.yul\":14375:14376   */\n      dup3\n        /* \"#utility.yul\":14357:14377   */\n      tag_127\n      jump\t// in\n    tag_336:\n        /* \"#utility.yul\":14352:14377   */\n      swap2\n      pop\n        /* \"#utility.yul\":14391:14411   */\n      tag_337\n        /* \"#utility.yul\":14409:14410   */\n      dup4\n        /* \"#utility.yul\":14391:14411   */\n      tag_127\n      jump\t// in\n    tag_337:\n        /* \"#utility.yul\":14386:14411   */\n      swap3\n      pop\n        /* \"#utility.yul\":14446:14447   */\n      dup3\n        /* \"#utility.yul\":14443:14444   */\n      dup3\n        /* \"#utility.yul\":14439:14448   */\n      mul\n        /* \"#utility.yul\":14468:14498   */\n      tag_338\n        /* \"#utility.yul\":14486:14497   */\n      dup2\n        /* \"#utility.yul\":14468:14498   */\n      tag_127\n      jump\t// in\n    tag_338:\n        /* \"#utility.yul\":14457:14498   */\n      swap2\n      pop\n        /* \"#utility.yul\":14647:14648   */\n      dup3\n        /* \"#utility.yul\":14638:14645   */\n      dup3\n        /* \"#utility.yul\":14634:14649   */\n      div\n        /* \"#utility.yul\":14631:14632   */\n      dup5\n        /* \"#utility.yul\":14628:14650   */\n      eq\n        /* \"#utility.yul\":14608:14609   */\n      dup4\n        /* \"#utility.yul\":14601:14610   */\n      iszero\n        /* \"#utility.yul\":14581:14664   */\n      or\n        /* \"#utility.yul\":14558:14697   */\n      tag_339\n      jumpi\n        /* \"#utility.yul\":14677:14695   */\n      tag_340\n      tag_167\n      jump\t// in\n    tag_340:\n        /* \"#utility.yul\":14558:14697   */\n    tag_339:\n        /* \"#utility.yul\":14342:14704   */\n      pop\n        /* \"#utility.yul\":14294:14704   */\n      swap3\n      swap2\n      pop\n      pop\n      jump\t// out\n        /* \"#utility.yul\":14710:14890   */\n    tag_168:\n        /* \"#utility.yul\":14758:14835   */\n      0x4e487b7100000000000000000000000000000000000000000000000000000000\n        /* \"#utility.yul\":14755:14756   */\n      0x00\n        /* \"#utility.yul\":14748:14836   */\n      mstore\n        /* \"#utility.yul\":14855:14859   */\n      0x12\n        /* \"#utility.yul\":14852:14853   */\n      0x04\n        /* \"#utility.yul\":14845:14860   */\n      mstore\n        /* \"#utility.yul\":14879:14883   */\n      0x24\n        /* \"#utility.yul\":14876:14877   */\n      0x00\n        /* \"#utility.yul\":14869:14884   */\n      revert\n        /* \"#utility.yul\":14896:15081   */\n    tag_77:\n        /* \"#utility.yul\":14936:14937   */\n      0x00\n        /* \"#utility.yul\":14953:14973   */\n      tag_343\n        /* \"#utility.yul\":14971:14972   */\n      dup3\n        /* \"#utility.yul\":14953:14973   */\n      tag_127\n      jump\t// in\n    tag_343:\n        /* \"#utility.yul\":14948:14973   */\n      swap2\n      pop\n        /* \"#utility.yul\":14987:15007   */\n      tag_344\n        /* \"#utility.yul\":15005:15006   */\n      dup4\n        /* \"#utility.yul\":14987:15007   */\n      tag_127\n      jump\t// in\n    tag_344:\n        /* \"#utility.yul\":14982:15007   */\n      swap3\n      pop\n        /* \"#utility.yul\":15026:15027   */\n      dup3\n        /* \"#utility.yul\":15016:15051   */\n      tag_345\n      jumpi\n        /* \"#utility.yul\":15031:15049   */\n      tag_346\n      tag_168\n      jump\t// in\n    tag_346:\n        /* \"#utility.yul\":15016:15051   */\n    tag_345:\n        /* \"#utility.yul\":15073:15074   */\n      dup3\n        /* \"#utility.yul\":15070:15071   */\n      dup3\n        /* \"#utility.yul\":15066:15075   */\n      div\n        /* \"#utility.yul\":15061:15075   */\n      swap1\n      pop\n        /* \"#utility.yul\":14896:15081   */\n      swap3\n      swap2\n      pop\n      pop\n      jump\t// out\n        /* \"#utility.yul\":15087:15281   */\n    tag_79:\n        /* \"#utility.yul\":15127:15131   */\n      0x00\n        /* \"#utility.yul\":15147:15167   */\n      tag_348\n        /* \"#utility.yul\":15165:15166   */\n      dup3\n        /* \"#utility.yul\":15147:15167   */\n      tag_127\n      jump\t// in\n    tag_348:\n        /* \"#utility.yul\":15142:15167   */\n      swap2\n      pop\n        /* \"#utility.yul\":15181:15201   */\n      tag_349\n        /* \"#utility.yul\":15199:15200   */\n      dup4\n        /* \"#utility.yul\":15181:15201   */\n      tag_127\n      jump\t// in\n    tag_349:\n        /* \"#utility.yul\":15176:15201   */\n      swap3\n      pop\n        /* \"#utility.yul\":15225:15226   */\n      dup3\n        /* \"#utility.yul\":15222:15223   */\n      dup3\n        /* \"#utility.yul\":15218:15227   */\n      sub\n        /* \"#utility.yul\":15210:15227   */\n      swap1\n      pop\n        /* \"#utility.yul\":15249:15250   */\n      dup2\n        /* \"#utility.yul\":15243:15247   */\n      dup2\n        /* \"#utility.yul\":15240:15251   */\n      gt\n        /* \"#utility.yul\":15237:15274   */\n      iszero\n      tag_350\n      jumpi\n        /* \"#utility.yul\":15254:15272   */\n      tag_351\n      tag_167\n      jump\t// in\n    tag_351:\n        /* \"#utility.yul\":15237:15274   */\n    tag_350:\n        /* \"#utility.yul\":15087:15281   */\n      swap3\n      swap2\n      pop\n      pop\n      jump\t// out\n        /* \"#utility.yul\":15287:15509   */\n    tag_169:\n        /* \"#utility.yul\":15427:15461   */\n      0x496e73756666696369656e742066756e647320746f206a6f696e207468652074\n        /* \"#utility.yul\":15423:15424   */\n      0x00\n        /* \"#utility.yul\":15415:15421   */\n      dup3\n        /* \"#utility.yul\":15411:15425   */\n      add\n        /* \"#utility.yul\":15404:15462   */\n      mstore\n        /* \"#utility.yul\":15496:15501   */\n      0x7269700000000000000000000000000000000000000000000000000000000000\n        /* \"#utility.yul\":15491:15493   */\n      0x20\n        /* \"#utility.yul\":15483:15489   */\n      dup3\n        /* \"#utility.yul\":15479:15494   */\n      add\n        /* \"#utility.yul\":15472:15502   */\n      mstore\n        /* \"#utility.yul\":15287:15509   */\n      pop\n      jump\t// out\n        /* \"#utility.yul\":15515:15881   */\n    tag_170:\n        /* \"#utility.yul\":15657:15660   */\n      0x00\n        /* \"#utility.yul\":15678:15745   */\n      tag_354\n        /* \"#utility.yul\":15742:15744   */\n      0x23\n        /* \"#utility.yul\":15737:15740   */\n      dup4\n        /* \"#utility.yul\":15678:15745   */\n      tag_132\n      jump\t// in\n    tag_354:\n        /* \"#utility.yul\":15671:15745   */\n      swap2\n      pop\n        /* \"#utility.yul\":15754:15847   */\n      tag_355\n        /* \"#utility.yul\":15843:15846   */\n      dup3\n        /* \"#utility.yul\":15754:15847   */\n      tag_169\n      jump\t// in\n    tag_355:\n        /* \"#utility.yul\":15872:15874   */\n      0x40\n        /* \"#utility.yul\":15867:15870   */\n      dup3\n        /* \"#utility.yul\":15863:15875   */\n      add\n        /* \"#utility.yul\":15856:15875   */\n      swap1\n      pop\n        /* \"#utility.yul\":15515:15881   */\n      swap2\n      swap1\n      pop\n      jump\t// out\n        /* \"#utility.yul\":15887:16306   */\n    tag_82:\n        /* \"#utility.yul\":16053:16057   */\n      0x00\n        /* \"#utility.yul\":16091:16093   */\n      0x20\n        /* \"#utility.yul\":16080:16089   */\n      dup3\n        /* \"#utility.yul\":16076:16094   */\n      add\n        /* \"#utility.yul\":16068:16094   */\n      swap1\n      pop\n        /* \"#utility.yul\":16140:16149   */\n      dup2\n        /* \"#utility.yul\":16134:16138   */\n      dup2\n        /* \"#utility.yul\":16130:16150   */\n      sub\n        /* \"#utility.yul\":16126:16127   */\n      0x00\n        /* \"#utility.yul\":16115:16124   */\n      dup4\n        /* \"#utility.yul\":16111:16128   */\n      add\n        /* \"#utility.yul\":16104:16151   */\n      mstore\n        /* \"#utility.yul\":16168:16299   */\n      tag_357\n        /* \"#utility.yul\":16294:16298   */\n      dup2\n        /* \"#utility.yul\":16168:16299   */\n      tag_170\n      jump\t// in\n    tag_357:\n        /* \"#utility.yul\":16160:16299   */\n      swap1\n      pop\n        /* \"#utility.yul\":15887:16306   */\n      swap2\n      swap1\n      pop\n      jump\t// out\n        /* \"#utility.yul\":16312:16976   */\n    tag_88:\n        /* \"#utility.yul\":16517:16521   */\n      0x00\n        /* \"#utility.yul\":16555:16558   */\n      0xa0\n        /* \"#utility.yul\":16544:16553   */\n      dup3\n        /* \"#utility.yul\":16540:16559   */\n      add\n        /* \"#utility.yul\":16532:16559   */\n      swap1\n      pop\n        /* \"#utility.yul\":16569:16640   */\n      tag_359\n        /* \"#utility.yul\":16637:16638   */\n      0x00\n        /* \"#utility.yul\":16626:16635   */\n      dup4\n        /* \"#utility.yul\":16622:16639   */\n      add\n        /* \"#utility.yul\":16613:16619   */\n      dup9\n        /* \"#utility.yul\":16569:16640   */\n      tag_130\n      jump\t// in\n    tag_359:\n        /* \"#utility.yul\":16650:16722   */\n      tag_360\n        /* \"#utility.yul\":16718:16720   */\n      0x20\n        /* \"#utility.yul\":16707:16716   */\n      dup4\n        /* \"#utility.yul\":16703:16721   */\n      add\n        /* \"#utility.yul\":16694:16700   */\n      dup8\n        /* \"#utility.yul\":16650:16722   */\n      tag_140\n      jump\t// in\n    tag_360:\n        /* \"#utility.yul\":16732:16804   */\n      tag_361\n        /* \"#utility.yul\":16800:16802   */\n      0x40\n        /* \"#utility.yul\":16789:16798   */\n      dup4\n        /* \"#utility.yul\":16785:16803   */\n      add\n        /* \"#utility.yul\":16776:16782   */\n      dup7\n        /* \"#utility.yul\":16732:16804   */\n      tag_130\n      jump\t// in\n    tag_361:\n        /* \"#utility.yul\":16814:16886   */\n      tag_362\n        /* \"#utility.yul\":16882:16884   */\n      0x60\n        /* \"#utility.yul\":16871:16880   */\n      dup4\n        /* \"#utility.yul\":16867:16885   */\n      add\n        /* \"#utility.yul\":16858:16864   */\n      dup6\n        /* \"#utility.yul\":16814:16886   */\n      tag_130\n      jump\t// in\n    tag_362:\n        /* \"#utility.yul\":16896:16969   */\n      tag_363\n        /* \"#utility.yul\":16964:16967   */\n      0x80\n        /* \"#utility.yul\":16953:16962   */\n      dup4\n        /* \"#utility.yul\":16949:16968   */\n      add\n        /* \"#utility.yul\":16940:16946   */\n      dup5\n        /* \"#utility.yul\":16896:16969   */\n      tag_149\n      jump\t// in\n    tag_363:\n        /* \"#utility.yul\":16312:16976   */\n      swap7\n      swap6\n      pop\n      pop\n      pop\n      pop\n      pop\n      pop\n      jump\t// out\n        /* \"#utility.yul\":16982:17208   */\n    tag_171:\n        /* \"#utility.yul\":17122:17156   */\n      0x4f6e6c7920746865206472697665722063616e20706572666f726d2074686973\n        /* \"#utility.yul\":17118:17119   */\n      0x00\n        /* \"#utility.yul\":17110:17116   */\n      dup3\n        /* \"#utility.yul\":17106:17120   */\n      add\n        /* \"#utility.yul\":17099:17157   */\n      mstore\n        /* \"#utility.yul\":17191:17200   */\n      0x20616374696f6e00000000000000000000000000000000000000000000000000\n        /* \"#utility.yul\":17186:17188   */\n      0x20\n        /* \"#utility.yul\":17178:17184   */\n      dup3\n        /* \"#utility.yul\":17174:17189   */\n      add\n        /* \"#utility.yul\":17167:17201   */\n      mstore\n        /* \"#utility.yul\":16982:17208   */\n      pop\n      jump\t// out\n        /* \"#utility.yul\":17214:17580   */\n    tag_172:\n        /* \"#utility.yul\":17356:17359   */\n      0x00\n        /* \"#utility.yul\":17377:17444   */\n      tag_366\n        /* \"#utility.yul\":17441:17443   */\n      0x27\n        /* \"#utility.yul\":17436:17439   */\n      dup4\n        /* \"#utility.yul\":17377:17444   */\n      tag_132\n      jump\t// in\n    tag_366:\n        /* \"#utility.yul\":17370:17444   */\n      swap2\n      pop\n        /* \"#utility.yul\":17453:17546   */\n      tag_367\n        /* \"#utility.yul\":17542:17545   */\n      dup3\n        /* \"#utility.yul\":17453:17546   */\n      tag_171\n      jump\t// in\n    tag_367:\n        /* \"#utility.yul\":17571:17573   */\n      0x40\n        /* \"#utility.yul\":17566:17569   */\n      dup3\n        /* \"#utility.yul\":17562:17574   */\n      add\n        /* \"#utility.yul\":17555:17574   */\n      swap1\n      pop\n        /* \"#utility.yul\":17214:17580   */\n      swap2\n      swap1\n      pop\n      jump\t// out\n        /* \"#utility.yul\":17586:18005   */\n    tag_99:\n        /* \"#utility.yul\":17752:17756   */\n      0x00\n        /* \"#utility.yul\":17790:17792   */\n      0x20\n        /* \"#utility.yul\":17779:17788   */\n      dup3\n        /* \"#utility.yul\":17775:17793   */\n      add\n        /* \"#utility.yul\":17767:17793   */\n      swap1\n      pop\n        /* \"#utility.yul\":17839:17848   */\n      dup2\n        /* \"#utility.yul\":17833:17837   */\n      dup2\n        /* \"#utility.yul\":17829:17849   */\n      sub\n        /* \"#utility.yul\":17825:17826   */\n      0x00\n        /* \"#utility.yul\":17814:17823   */\n      dup4\n        /* \"#utility.yul\":17810:17827   */\n      add\n        /* \"#utility.yul\":17803:17850   */\n      mstore\n        /* \"#utility.yul\":17867:17998   */\n      tag_369\n        /* \"#utility.yul\":17993:17997   */\n      dup2\n        /* \"#utility.yul\":17867:17998   */\n      tag_172\n      jump\t// in\n    tag_369:\n        /* \"#utility.yul\":17859:17998   */\n      swap1\n      pop\n        /* \"#utility.yul\":17586:18005   */\n      swap2\n      swap1\n      pop\n      jump\t// out\n        /* \"#utility.yul\":18011:18244   */\n    tag_104:\n        /* \"#utility.yul\":18050:18053   */\n      0x00\n        /* \"#utility.yul\":18073:18097   */\n      tag_371\n        /* \"#utility.yul\":18091:18096   */\n      dup3\n        /* \"#utility.yul\":18073:18097   */\n      tag_127\n      jump\t// in\n    tag_371:\n        /* \"#utility.yul\":18064:18097   */\n      swap2\n      pop\n        /* \"#utility.yul\":18119:18185   */\n      0xffffffffffffffffffffffffffffffffffffffffffffffffffffffffffffffff\n        /* \"#utility.yul\":18112:18117   */\n      dup3\n        /* \"#utility.yul\":18109:18186   */\n      sub\n        /* \"#utility.yul\":18106:18209   */\n      tag_372\n      jumpi\n        /* \"#utility.yul\":18189:18207   */\n      tag_373\n      tag_167\n      jump\t// in\n    tag_373:\n        /* \"#utility.yul\":18106:18209   */\n    tag_372:\n        /* \"#utility.yul\":18236:18237   */\n      0x01\n        /* \"#utility.yul\":18229:18234   */\n      dup3\n        /* \"#utility.yul\":18225:18238   */\n      add\n        /* \"#utility.yul\":18218:18238   */\n      swap1\n      pop\n        /* \"#utility.yul\":18011:18244   */\n      swap2\n      swap1\n      pop\n      jump\t// out\n        /* \"#utility.yul\":18250:18391   */\n    tag_173:\n        /* \"#utility.yul\":18299:18303   */\n      0x00\n        /* \"#utility.yul\":18322:18325   */\n      dup2\n        /* \"#utility.yul\":18314:18325   */\n      swap1\n      pop\n        /* \"#utility.yul\":18345:18348   */\n      dup2\n        /* \"#utility.yul\":18342:18343   */\n      0x00\n        /* \"#utility.yul\":18335:18349   */\n      mstore\n        /* \"#utility.yul\":18379:18383   */\n      0x20\n        /* \"#utility.yul\":18376:18377   */\n      0x00\n        /* \"#utility.yul\":18366:18384   */\n      keccak256\n        /* \"#utility.yul\":18358:18384   */\n      swap1\n      pop\n        /* \"#utility.yul\":18250:18391   */\n      swap2\n      swap1\n      pop\n      jump\t// out\n        /* \"#utility.yul\":18397:18490   */\n    tag_174:\n        /* \"#utility.yul\":18434:18440   */\n      0x00\n        /* \"#utility.yul\":18481:18483   */\n      0x20\n        /* \"#utility.yul\":18476:18478   */\n      0x1f\n        /* \"#utility.yul\":18469:18474   */\n      dup4\n        /* \"#utility.yul\":18465:18479   */\n      add\n        /* \"#utility.yul\":18461:18484   */\n      div\n        /* \"#utility.yul\":18451:18484   */\n      swap1\n      pop\n        /* \"#utility.yul\":18397:18490   */\n      swap2\n      swap1\n      pop\n      jump\t// out\n        /* \"#utility.yul\":18496:18603   */\n    tag_175:\n        /* \"#utility.yul\":18540:18548   */\n      0x00\n        /* \"#utility.yul\":18590:18595   */\n      dup3\n        /* \"#utility.yul\":18584:18588   */\n      dup3\n        /* \"#utility.yul\":18580:18596   */\n      shl\n        /* \"#utility.yul\":18559:18596   */\n      swap1\n      pop\n        /* \"#utility.yul\":18496:18603   */\n      swap3\n      swap2\n      pop\n      pop\n      jump\t// out\n        /* \"#utility.yul\":18609:19002   */\n    tag_176:\n        /* \"#utility.yul\":18678:18684   */\n      0x00\n        /* \"#utility.yul\":18728:18729   */\n      0x08\n        /* \"#utility.yul\":18716:18726   */\n      dup4\n        /* \"#utility.yul\":18712:18730   */\n      mul\n        /* \"#utility.yul\":18751:18848   */\n      tag_378\n        /* \"#utility.yul\":18781:18847   */\n      0xffffffffffffffffffffffffffffffffffffffffffffffffffffffffffffffff\n        /* \"#utility.yul\":18770:18779   */\n      dup3\n        /* \"#utility.yul\":18751:18848   */\n      tag_175\n      jump\t// in\n    tag_378:\n        /* \"#utility.yul\":18869:18908   */\n      tag_379\n        /* \"#utility.yul\":18899:18907   */\n      dup7\n        /* \"#utility.yul\":18888:18897   */\n      dup4\n        /* \"#utility.yul\":18869:18908   */\n      tag_175\n      jump\t// in\n    tag_379:\n        /* \"#utility.yul\":18857:18908   */\n      swap6\n      pop\n        /* \"#utility.yul\":18941:18945   */\n      dup1\n        /* \"#utility.yul\":18937:18946   */\n      not\n        /* \"#utility.yul\":18930:18935   */\n      dup5\n        /* \"#utility.yul\":18926:18947   */\n      and\n        /* \"#utility.yul\":18917:18947   */\n      swap4\n      pop\n        /* \"#utility.yul\":18990:18994   */\n      dup1\n        /* \"#utility.yul\":18980:18988   */\n      dup7\n        /* \"#utility.yul\":18976:18995   */\n      and\n        /* \"#utility.yul\":18969:18974   */\n      dup5\n        /* \"#utility.yul\":18966:18996   */\n      or\n        /* \"#utility.yul\":18956:18996   */\n      swap3\n      pop\n        /* \"#utility.yul\":18685:19002   */\n      pop\n      pop\n        /* \"#utility.yul\":18609:19002   */\n      swap4\n      swap3\n      pop\n      pop\n      pop\n      jump\t// out\n        /* \"#utility.yul\":19008:19068   */\n    tag_177:\n        /* \"#utility.yul\":19036:19039   */\n      0x00\n        /* \"#utility.yul\":19057:19062   */\n      dup2\n        /* \"#utility.yul\":19050:19062   */\n      swap1\n      pop\n        /* \"#utility.yul\":19008:19068   */\n      swap2\n      swap1\n      pop\n      jump\t// out\n        /* \"#utility.yul\":19074:19216   */\n    tag_178:\n        /* \"#utility.yul\":19124:19133   */\n      0x00\n        /* \"#utility.yul\":19157:19210   */\n      tag_382\n        /* \"#utility.yul\":19175:19209   */\n      tag_383\n        /* \"#utility.yul\":19184:19208   */\n      tag_384\n        /* \"#utility.yul\":19202:19207   */\n      dup5\n        /* \"#utility.yul\":19184:19208   */\n      tag_127\n      jump\t// in\n    tag_384:\n        /* \"#utility.yul\":19175:19209   */\n      tag_177\n      jump\t// in\n    tag_383:\n        /* \"#utility.yul\":19157:19210   */\n      tag_127\n      jump\t// in\n    tag_382:\n        /* \"#utility.yul\":19144:19210   */\n      swap1\n      pop\n        /* \"#utility.yul\":19074:19216   */\n      swap2\n      swap1\n      pop\n      jump\t// out\n        /* \"#utility.yul\":19222:19297   */\n    tag_179:\n        /* \"#utility.yul\":19265:19268   */\n      0x00\n        /* \"#utility.yul\":19286:19291   */\n      dup2\n        /* \"#utility.yul\":19279:19291   */\n      swap1\n      pop\n        /* \"#utility.yul\":19222:19297   */\n      swap2\n      swap1\n      pop\n      jump\t// out\n        /* \"#utility.yul\":19303:19572   */\n    tag_180:\n        /* \"#utility.yul\":19413:19452   */\n      tag_387\n        /* \"#utility.yul\":19444:19451   */\n      dup4\n        /* \"#utility.yul\":19413:19452   */\n      tag_178\n      jump\t// in\n    tag_387:\n        /* \"#utility.yul\":19474:19565   */\n      tag_388\n        /* \"#utility.yul\":19523:19564   */\n      tag_389\n        /* \"#utility.yul\":19547:19563   */\n      dup3\n        /* \"#utility.yul\":19523:19564   */\n      tag_179\n      jump\t// in\n    tag_389:\n        /* \"#utility.yul\":19515:19521   */\n      dup5\n        /* \"#utility.yul\":19508:19512   */\n      dup5\n        /* \"#utility.yul\":19502:19513   */\n      sload\n        /* \"#utility.yul\":19474:19565   */\n      tag_176\n      jump\t// in\n    tag_388:\n        /* \"#utility.yul\":19468:19472   */\n      dup3\n        /* \"#utility.yul\":19461:19566   */\n      sstore\n        /* \"#utility.yul\":19379:19572   */\n      pop\n        /* \"#utility.yul\":19303:19572   */\n      pop\n      pop\n      pop\n      jump\t// out\n        /* \"#utility.yul\":19578:19651   */\n    tag_181:\n        /* \"#utility.yul\":19623:19626   */\n      0x00\n        /* \"#utility.yul\":19578:19651   */\n      swap1\n      jump\t// out\n        /* \"#utility.yul\":19657:19846   */\n    tag_182:\n        /* \"#utility.yul\":19734:19766   */\n      tag_392\n      tag_181\n      jump\t// in\n    tag_392:\n        /* \"#utility.yul\":19775:19840   */\n      tag_393\n        /* \"#utility.yul\":19833:19839   */\n      dup2\n        /* \"#utility.yul\":19825:19831   */\n      dup5\n        /* \"#utility.yul\":19819:19823   */\n      dup5\n        /* \"#utility.yul\":19775:19840   */\n      tag_180\n      jump\t// in\n    tag_393:\n        /* \"#utility.yul\":19710:19846   */\n      pop\n        /* \"#utility.yul\":19657:19846   */\n      pop\n      pop\n      jump\t// out\n        /* \"#utility.yul\":19852:20038   */\n    tag_183:\n        /* \"#utility.yul\":19912:20032   */\n    tag_395:\n        /* \"#utility.yul\":19929:19932   */\n      dup2\n        /* \"#utility.yul\":19922:19927   */\n      dup2\n        /* \"#utility.yul\":19919:19933   */\n      lt\n        /* \"#utility.yul\":19912:20032   */\n      iszero\n      tag_397\n      jumpi\n        /* \"#utility.yul\":19983:20022   */\n      tag_398\n        /* \"#utility.yul\":20020:20021   */\n      0x00\n        /* \"#utility.yul\":20013:20018   */\n      dup3\n        /* \"#utility.yul\":19983:20022   */\n      tag_182\n      jump\t// in\n    tag_398:\n        /* \"#utility.yul\":19956:19957   */\n      0x01\n        /* \"#utility.yul\":19949:19954   */\n      dup2\n        /* \"#utility.yul\":19945:19958   */\n      add\n        /* \"#utility.yul\":19936:19958   */\n      swap1\n      pop\n        /* \"#utility.yul\":19912:20032   */\n      jump(tag_395)\n    tag_397:\n        /* \"#utility.yul\":19852:20038   */\n      pop\n      pop\n      jump\t// out\n        /* \"#utility.yul\":20044:20587   */\n    tag_184:\n        /* \"#utility.yul\":20145:20147   */\n      0x1f\n        /* \"#utility.yul\":20140:20143   */\n      dup3\n        /* \"#utility.yul\":20137:20148   */\n      gt\n        /* \"#utility.yul\":20134:20580   */\n      iszero\n      tag_400\n      jumpi\n        /* \"#utility.yul\":20179:20217   */\n      tag_401\n        /* \"#utility.yul\":20211:20216   */\n      dup2\n        /* \"#utility.yul\":20179:20217   */\n      tag_173\n      jump\t// in\n    tag_401:\n        /* \"#utility.yul\":20263:20292   */\n      tag_402\n        /* \"#utility.yul\":20281:20291   */\n      dup5\n        /* \"#utility.yul\":20263:20292   */\n      tag_174\n      jump\t// in\n    tag_402:\n        /* \"#utility.yul\":20253:20261   */\n      dup2\n        /* \"#utility.yul\":20249:20293   */\n      add\n        /* \"#utility.yul\":20446:20448   */\n      0x20\n        /* \"#utility.yul\":20434:20444   */\n      dup6\n        /* \"#utility.yul\":20431:20449   */\n      lt\n        /* \"#utility.yul\":20428:20477   */\n      iszero\n      tag_403\n      jumpi\n        /* \"#utility.yul\":20467:20475   */\n      dup2\n        /* \"#utility.yul\":20452:20475   */\n      swap1\n      pop\n        /* \"#utility.yul\":20428:20477   */\n    tag_403:\n        /* \"#utility.yul\":20490:20570   */\n      tag_404\n        /* \"#utility.yul\":20546:20568   */\n      tag_405\n        /* \"#utility.yul\":20564:20567   */\n      dup6\n        /* \"#utility.yul\":20546:20568   */\n      tag_174\n      jump\t// in\n    tag_405:\n        /* \"#utility.yul\":20536:20544   */\n      dup4\n        /* \"#utility.yul\":20532:20569   */\n      add\n        /* \"#utility.yul\":20519:20530   */\n      dup3\n        /* \"#utility.yul\":20490:20570   */\n      tag_183\n      jump\t// in\n    tag_404:\n        /* \"#utility.yul\":20149:20580   */\n      pop\n      pop\n        /* \"#utility.yul\":20134:20580   */\n    tag_400:\n        /* \"#utility.yul\":20044:20587   */\n      pop\n      pop\n      pop\n      jump\t// out\n        /* \"#utility.yul\":20593:20710   */\n    tag_185:\n        /* \"#utility.yul\":20647:20655   */\n      0x00\n        /* \"#utility.yul\":20697:20702   */\n      dup3\n        /* \"#utility.yul\":20691:20695   */\n      dup3\n        /* \"#utility.yul\":20687:20703   */\n      shr\n        /* \"#utility.yul\":20666:20703   */\n      swap1\n      pop\n        /* \"#utility.yul\":20593:20710   */\n      swap3\n      swap2\n      pop\n      pop\n      jump\t// out\n        /* \"#utility.yul\":20716:20885   */\n    tag_186:\n        /* \"#utility.yul\":20760:20766   */\n      0x00\n        /* \"#utility.yul\":20793:20844   */\n      tag_408\n        /* \"#utility.yul\":20841:20842   */\n      0x00\n        /* \"#utility.yul\":20837:20843   */\n      not\n        /* \"#utility.yul\":20829:20834   */\n      dup5\n        /* \"#utility.yul\":20826:20827   */\n      0x08\n        /* \"#utility.yul\":20822:20835   */\n      mul\n        /* \"#utility.yul\":20793:20844   */\n      tag_185\n      jump\t// in\n    tag_408:\n        /* \"#utility.yul\":20789:20845   */\n      not\n        /* \"#utility.yul\":20874:20878   */\n      dup1\n        /* \"#utility.yul\":20868:20872   */\n      dup4\n        /* \"#utility.yul\":20864:20879   */\n      and\n        /* \"#utility.yul\":20854:20879   */\n      swap2\n      pop\n        /* \"#utility.yul\":20767:20885   */\n      pop\n        /* \"#utility.yul\":20716:20885   */\n      swap3\n      swap2\n      pop\n      pop\n      jump\t// out\n        /* \"#utility.yul\":20890:21185   */\n    tag_187:\n        /* \"#utility.yul\":20966:20970   */\n      0x00\n        /* \"#utility.yul\":21112:21141   */\n      tag_410\n        /* \"#utility.yul\":21137:21140   */\n      dup4\n        /* \"#utility.yul\":21131:21135   */\n      dup4\n        /* \"#utility.yul\":21112:21141   */\n      tag_186\n      jump\t// in\n    tag_410:\n        /* \"#utility.yul\":21104:21141   */\n      swap2\n      pop\n        /* \"#utility.yul\":21174:21177   */\n      dup3\n        /* \"#utility.yul\":21171:21172   */\n      0x02\n        /* \"#utility.yul\":21167:21178   */\n      mul\n        /* \"#utility.yul\":21161:21165   */\n      dup3\n        /* \"#utility.yul\":21158:21179   */\n      or\n        /* \"#utility.yul\":21150:21179   */\n      swap1\n      pop\n        /* \"#utility.yul\":20890:21185   */\n      swap3\n      swap2\n      pop\n      pop\n      jump\t// out\n        /* \"#utility.yul\":21190:22585   */\n    tag_110:\n        /* \"#utility.yul\":21307:21344   */\n      tag_412\n        /* \"#utility.yul\":21340:21343   */\n      dup3\n        /* \"#utility.yul\":21307:21344   */\n      tag_131\n      jump\t// in\n    tag_412:\n        /* \"#utility.yul\":21409:21427   */\n      0xffffffffffffffff\n        /* \"#utility.yul\":21401:21407   */\n      dup2\n        /* \"#utility.yul\":21398:21428   */\n      gt\n        /* \"#utility.yul\":21395:21451   */\n      iszero\n      tag_413\n      jumpi\n        /* \"#utility.yul\":21431:21449   */\n      tag_414\n      tag_107\n      jump\t// in\n    tag_414:\n        /* \"#utility.yul\":21395:21451   */\n    tag_413:\n        /* \"#utility.yul\":21475:21513   */\n      tag_415\n        /* \"#utility.yul\":21507:21511   */\n      dup3\n        /* \"#utility.yul\":21501:21512   */\n      sload\n        /* \"#utility.yul\":21475:21513   */\n      tag_48\n      jump\t// in\n    tag_415:\n        /* \"#utility.yul\":21560:21627   */\n      tag_416\n        /* \"#utility.yul\":21620:21626   */\n      dup3\n        /* \"#utility.yul\":21612:21618   */\n      dup3\n        /* \"#utility.yul\":21606:21610   */\n      dup6\n        /* \"#utility.yul\":21560:21627   */\n      tag_184\n      jump\t// in\n    tag_416:\n        /* \"#utility.yul\":21654:21655   */\n      0x00\n        /* \"#utility.yul\":21678:21682   */\n      0x20\n        /* \"#utility.yul\":21665:21682   */\n      swap1\n      pop\n        /* \"#utility.yul\":21710:21712   */\n      0x1f\n        /* \"#utility.yul\":21702:21708   */\n      dup4\n        /* \"#utility.yul\":21699:21713   */\n      gt\n        /* \"#utility.yul\":21727:21728   */\n      0x01\n        /* \"#utility.yul\":21722:22340   */\n      dup2\n      eq\n      tag_418\n      jumpi\n        /* \"#utility.yul\":22384:22385   */\n      0x00\n        /* \"#utility.yul\":22401:22407   */\n      dup5\n        /* \"#utility.yul\":22398:22475   */\n      iszero\n      tag_419\n      jumpi\n        /* \"#utility.yul\":22450:22459   */\n      dup3\n        /* \"#utility.yul\":22445:22448   */\n      dup8\n        /* \"#utility.yul\":22441:22460   */\n      add\n        /* \"#utility.yul\":22435:22461   */\n      mload\n        /* \"#utility.yul\":22426:22461   */\n      swap1\n      pop\n        /* \"#utility.yul\":22398:22475   */\n    tag_419:\n        /* \"#utility.yul\":22501:22568   */\n      tag_420\n        /* \"#utility.yul\":22561:22567   */\n      dup6\n        /* \"#utility.yul\":22554:22559   */\n      dup3\n        /* \"#utility.yul\":22501:22568   */\n      tag_187\n      jump\t// in\n    tag_420:\n        /* \"#utility.yul\":22495:22499   */\n      dup7\n        /* \"#utility.yul\":22488:22569   */\n      sstore\n        /* \"#utility.yul\":22357:22579   */\n      pop\n        /* \"#utility.yul\":21692:22579   */\n      jump(tag_417)\n        /* \"#utility.yul\":21722:22340   */\n    tag_418:\n        /* \"#utility.yul\":21774:21778   */\n      0x1f\n        /* \"#utility.yul\":21770:21779   */\n      not\n        /* \"#utility.yul\":21762:21768   */\n      dup5\n        /* \"#utility.yul\":21758:21780   */\n      and\n        /* \"#utility.yul\":21808:21845   */\n      tag_421\n        /* \"#utility.yul\":21840:21844   */\n      dup7\n        /* \"#utility.yul\":21808:21845   */\n      tag_173\n      jump\t// in\n    tag_421:\n        /* \"#utility.yul\":21867:21868   */\n      0x00\n        /* \"#utility.yul\":21881:22089   */\n    tag_422:\n        /* \"#utility.yul\":21895:21902   */\n      dup3\n        /* \"#utility.yul\":21892:21893   */\n      dup2\n        /* \"#utility.yul\":21889:21903   */\n      lt\n        /* \"#utility.yul\":21881:22089   */\n      iszero\n      tag_424\n      jumpi\n        /* \"#utility.yul\":21974:21983   */\n      dup5\n        /* \"#utility.yul\":21969:21972   */\n      dup10\n        /* \"#utility.yul\":21965:21984   */\n      add\n        /* \"#utility.yul\":21959:21985   */\n      mload\n        /* \"#utility.yul\":21951:21957   */\n      dup3\n        /* \"#utility.yul\":21944:21986   */\n      sstore\n        /* \"#utility.yul\":22025:22026   */\n      0x01\n        /* \"#utility.yul\":22017:22023   */\n      dup3\n        /* \"#utility.yul\":22013:22027   */\n      add\n        /* \"#utility.yul\":22003:22027   */\n      swap2\n      pop\n        /* \"#utility.yul\":22072:22074   */\n      0x20\n        /* \"#utility.yul\":22061:22070   */\n      dup6\n        /* \"#utility.yul\":22057:22075   */\n      add\n        /* \"#utility.yul\":22044:22075   */\n      swap5\n      pop\n        /* \"#utility.yul\":21918:21922   */\n      0x20\n        /* \"#utility.yul\":21915:21916   */\n      dup2\n        /* \"#utility.yul\":21911:21923   */\n      add\n        /* \"#utility.yul\":21906:21923   */\n      swap1\n      pop\n        /* \"#utility.yul\":21881:22089   */\n      jump(tag_422)\n    tag_424:\n        /* \"#utility.yul\":22117:22123   */\n      dup7\n        /* \"#utility.yul\":22108:22115   */\n      dup4\n        /* \"#utility.yul\":22105:22124   */\n      lt\n        /* \"#utility.yul\":22102:22281   */\n      iszero\n      tag_425\n      jumpi\n        /* \"#utility.yul\":22175:22184   */\n      dup5\n        /* \"#utility.yul\":22170:22173   */\n      dup10\n        /* \"#utility.yul\":22166:22185   */\n      add\n        /* \"#utility.yul\":22160:22186   */\n      mload\n        /* \"#utility.yul\":22218:22266   */\n      tag_426\n        /* \"#utility.yul\":22260:22264   */\n      0x1f\n        /* \"#utility.yul\":22252:22258   */\n      dup10\n        /* \"#utility.yul\":22248:22265   */\n      and\n        /* \"#utility.yul\":22237:22246   */\n      dup3\n        /* \"#utility.yul\":22218:22266   */\n      tag_186\n      jump\t// in\n    tag_426:\n        /* \"#utility.yul\":22210:22216   */\n      dup4\n        /* \"#utility.yul\":22203:22267   */\n      sstore\n        /* \"#utility.yul\":22125:22281   */\n      pop\n        /* \"#utility.yul\":22102:22281   */\n    tag_425:\n        /* \"#utility.yul\":22327:22328   */\n      0x01\n        /* \"#utility.yul\":22323:22324   */\n      0x02\n        /* \"#utility.yul\":22315:22321   */\n      dup9\n        /* \"#utility.yul\":22311:22325   */\n      mul\n        /* \"#utility.yul\":22307:22329   */\n      add\n        /* \"#utility.yul\":22301:22305   */\n      dup9\n        /* \"#utility.yul\":22294:22330   */\n      sstore\n        /* \"#utility.yul\":21729:22340   */\n      pop\n      pop\n      pop\n        /* \"#utility.yul\":21692:22579   */\n    tag_417:\n      pop\n        /* \"#utility.yul\":21282:22585   */\n      pop\n      pop\n      pop\n        /* \"#utility.yul\":21190:22585   */\n      pop\n      pop\n      jump\t// out\n        /* \"#utility.yul\":22591:23235   */\n    tag_116:\n        /* \"#utility.yul\":22788:22792   */\n      0x00\n        /* \"#utility.yul\":22826:22829   */\n      0x80\n        /* \"#utility.yul\":22815:22824   */\n      dup3\n        /* \"#utility.yul\":22811:22830   */\n      add\n        /* \"#utility.yul\":22803:22830   */\n      swap1\n      pop\n        /* \"#utility.yul\":22840:22911   */\n      tag_428\n        /* \"#utility.yul\":22908:22909   */\n      0x00\n        /* \"#utility.yul\":22897:22906   */\n      dup4\n        /* \"#utility.yul\":22893:22910   */\n      add\n        /* \"#utility.yul\":22884:22890   */\n      dup8\n        /* \"#utility.yul\":22840:22911   */\n      tag_130\n      jump\t// in\n    tag_428:\n        /* \"#utility.yul\":22921:22993   */\n      tag_429\n        /* \"#utility.yul\":22989:22991   */\n      0x20\n        /* \"#utility.yul\":22978:22987   */\n      dup4\n        /* \"#utility.yul\":22974:22992   */\n      add\n        /* \"#utility.yul\":22965:22971   */\n      dup7\n        /* \"#utility.yul\":22921:22993   */\n      tag_140\n      jump\t// in\n    tag_429:\n        /* \"#utility.yul\":23003:23075   */\n      tag_430\n        /* \"#utility.yul\":23071:23073   */\n      0x40\n        /* \"#utility.yul\":23060:23069   */\n      dup4\n        /* \"#utility.yul\":23056:23074   */\n      add\n        /* \"#utility.yul\":23047:23053   */\n      dup6\n        /* \"#utility.yul\":23003:23075   */\n      tag_130\n      jump\t// in\n    tag_430:\n        /* \"#utility.yul\":23122:23131   */\n      dup2\n        /* \"#utility.yul\":23116:23120   */\n      dup2\n        /* \"#utility.yul\":23112:23132   */\n      sub\n        /* \"#utility.yul\":23107:23109   */\n      0x60\n        /* \"#utility.yul\":23096:23105   */\n      dup4\n        /* \"#utility.yul\":23092:23110   */\n      add\n        /* \"#utility.yul\":23085:23133   */\n      mstore\n        /* \"#utility.yul\":23150:23228   */\n      tag_431\n        /* \"#utility.yul\":23223:23227   */\n      dup2\n        /* \"#utility.yul\":23214:23220   */\n      dup5\n        /* \"#utility.yul\":23150:23228   */\n      tag_135\n      jump\t// in\n    tag_431:\n        /* \"#utility.yul\":23142:23228   */\n      swap1\n      pop\n        /* \"#utility.yul\":22591:23235   */\n      swap6\n      swap5\n      pop\n      pop\n      pop\n      pop\n      pop\n      jump\t// out\n\n    auxdata: 0xa26469706673582212203fc9c98d74ca0bd67acd89b5c726871dc4764a1e2b4c718355ee9d0359ebed2464736f6c63430008180033\n}\n",
				"bytecode": {
					"linkReferences": {},
					"object": "608060405234801561000f575f80fd5b505f600281905550611a27806100245f395ff3fe60806040526004361061006f575f3560e01c80636fa4ec271161004d5780636fa4ec2714610115578063771a3a1d1461013f578063c1917e7914610169578063c99e7333146101915761006f565b8063124c128e1461007357806313c3ea33146100b9578063515a39b6146100d5575b5f80fd5b34801561007e575f80fd5b5061009960048036038101906100949190610dcb565b6101cd565b6040516100b09b9a99989796959493929190610fb7565b60405180910390f35b6100d360048036038101906100ce9190610dcb565b6104a0565b005b3480156100e0575f80fd5b506100fb60048036038101906100f691906110a6565b61082e565b60405161010c9594939291906110d1565b60405180910390f35b348015610120575f80fd5b50610129610892565b6040516101369190611122565b60405180910390f35b34801561014a575f80fd5b50610153610898565b6040516101609190611122565b60405180910390f35b348015610174575f80fd5b5061018f600480360381019061018a9190610dcb565b61089d565b005b34801561019c575f80fd5b506101b760048036038101906101b29190611291565b610aad565b6040516101c49190611122565b60405180910390f35b5f6060805f60605f805f60605f805f805f8e81526020019081526020015f209050805f01548160010182600201836003015f9054906101000a900460ff168460040185600501548660060154876007015f9054906101000a900473ffffffffffffffffffffffffffffffffffffffff168860080189600901548a600a015f9054906101000a900460ff1689805461026390611389565b80601f016020809104026020016040519081016040528092919081815260200182805461028f90611389565b80156102da5780601f106102b1576101008083540402835291602001916102da565b820191905f5260205f20905b8154815290600101906020018083116102bd57829003601f168201915b505050505099508880546102ed90611389565b80601f016020809104026020016040519081016040528092919081815260200182805461031990611389565b80156103645780601f1061033b57610100808354040283529160200191610364565b820191905f5260205f20905b81548152906001019060200180831161034757829003601f168201915b5050505050985086805461037790611389565b80601f01602080910402602001604051908101604052809291908181526020018280546103a390611389565b80156103ee5780601f106103c5576101008083540402835291602001916103ee565b820191905f5260205f20905b8154815290600101906020018083116103d157829003601f168201915b505050505096508280548060200260200160405190810160405280929190818152602001828054801561047357602002820191905f5260205f20905b815f9054906101000a900473ffffffffffffffffffffffffffffffffffffffff1673ffffffffffffffffffffffffffffffffffffffff168152602001906001019080831161042a575b505050505092509b509b509b509b509b509b509b509b509b509b509b505091939597999b90929496989a50565b805f73ffffffffffffffffffffffffffffffffffffffff165f808381526020019081526020015f206007015f9054906101000a900473ffffffffffffffffffffffffffffffffffffffff1673ffffffffffffffffffffffffffffffffffffffff1603610541576040517f08c379a000000000000000000000000000000000000000000000000000000000815260040161053890611403565b60405180910390fd5b815f808281526020019081526020015f20600a015f9054906101000a900460ff16156105a2576040517f08c379a00000000000000000000000000000000000000000000000000000000081526004016105999061146b565b60405180910390fd5b5f805f8581526020019081526020015f2090505f6064600883600501546105c991906114b6565b6105d39190611524565b90505f8183600501546105e69190611554565b9050826005015434101561062f576040517f08c379a0000000000000000000000000000000000000000000000000000000008152600401610626906115f7565b60405180910390fd5b826007015f9054906101000a900473ffffffffffffffffffffffffffffffffffffffff1673ffffffffffffffffffffffffffffffffffffffff166108fc8290811502906040515f60405180830381858888f19350505050158015610695573d5f803e3d5ffd5b508260080133908060018154018082558091505060019003905f5260205f20015f9091909190916101000a81548173ffffffffffffffffffffffffffffffffffffffff021916908373ffffffffffffffffffffffffffffffffffffffff1602179055506001436107059190611554565b4083600901819055506040518060c001604052808781526020013373ffffffffffffffffffffffffffffffffffffffff168152602001828152602001838152602001846009015481526020014281525060015f856009015481526020019081526020015f205f820151815f01556020820151816001015f6101000a81548173ffffffffffffffffffffffffffffffffffffffff021916908373ffffffffffffffffffffffffffffffffffffffff16021790555060408201518160020155606082015181600301556080820151816004015560a082015181600501559050507f96836526637df41a0181017d35eca90aea5d39f47fc680cc0811179dfa01996e86338385876009015460405161081e959493929190611615565b60405180910390a1505050505050565b5f805f805f8060015f8881526020019081526020015f209050805f0154816001015f9054906101000a900473ffffffffffffffffffffffffffffffffffffffff16826002015483600301548460050154955095509550955095505091939590929450565b60025481565b600881565b805f73ffffffffffffffffffffffffffffffffffffffff165f808381526020019081526020015f206007015f9054906101000a900473ffffffffffffffffffffffffffffffffffffffff1673ffffffffffffffffffffffffffffffffffffffff160361093e576040517f08c379a000000000000000000000000000000000000000000000000000000000815260040161093590611403565b60405180910390fd5b815f808281526020019081526020015f20600a015f9054906101000a900460ff161561099f576040517f08c379a00000000000000000000000000000000000000000000000000000000081526004016109969061146b565b60405180910390fd5b823373ffffffffffffffffffffffffffffffffffffffff165f808381526020019081526020015f206007015f9054906101000a900473ffffffffffffffffffffffffffffffffffffffff1673ffffffffffffffffffffffffffffffffffffffff1614610a40576040517f08c379a0000000000000000000000000000000000000000000000000000000008152600401610a37906116d6565b60405180910390fd5b5f805f8681526020019081526020015f209050600181600a015f6101000a81548160ff0219169083151502179055507fb27347ca9471103ded6b8b466bf4643dd4869bc7b0137003ea8d2fd1a6e7758d85604051610a9e9190611122565b60405180910390a15050505050565b5f60025f815480929190610ac0906116f4565b9190505550604051806101600160405280600254815260200185815260200184815260200183151581526020018681526020018781526020015f81526020013373ffffffffffffffffffffffffffffffffffffffff1681526020015f67ffffffffffffffff811115610b3557610b34611143565b5b604051908082528060200260200182016040528015610b635781602001602082028036833780820191505090505b5081526020015f801b81526020015f15158152505f8060025481526020019081526020015f205f820151815f01556020820151816001019081610ba691906118d8565b506040820151816002019081610bbc91906118d8565b506060820151816003015f6101000a81548160ff0219169083151502179055506080820151816004019081610bf191906118d8565b5060a0820151816005015560c0820151816006015560e0820151816007015f6101000a81548173ffffffffffffffffffffffffffffffffffffffff021916908373ffffffffffffffffffffffffffffffffffffffff160217905550610100820151816008019080519060200190610c69929190610ce5565b50610120820151816009015561014082015181600a015f6101000a81548160ff0219169083151502179055509050507f0d738af278540540083f5d8180dd9a02dc202474bcb20ef35f68b6ab5aeaaf44600254338888604051610ccf94939291906119a7565b60405180910390a1600254905095945050505050565b828054828255905f5260205f20908101928215610d5b579160200282015b82811115610d5a578251825f6101000a81548173ffffffffffffffffffffffffffffffffffffffff021916908373ffffffffffffffffffffffffffffffffffffffff16021790555091602001919060010190610d03565b5b509050610d689190610d6c565b5090565b5b80821115610d83575f815f905550600101610d6d565b5090565b5f604051905090565b5f80fd5b5f80fd5b5f819050919050565b610daa81610d98565b8114610db4575f80fd5b50565b5f81359050610dc581610da1565b92915050565b5f60208284031215610de057610ddf610d90565b5b5f610ded84828501610db7565b91505092915050565b610dff81610d98565b82525050565b5f81519050919050565b5f82825260208201905092915050565b5f5b83811015610e3c578082015181840152602081019050610e21565b5f8484015250505050565b5f601f19601f8301169050919050565b5f610e6182610e05565b610e6b8185610e0f565b9350610e7b818560208601610e1f565b610e8481610e47565b840191505092915050565b5f8115159050919050565b610ea381610e8f565b82525050565b5f73ffffffffffffffffffffffffffffffffffffffff82169050919050565b5f610ed282610ea9565b9050919050565b610ee281610ec8565b82525050565b5f81519050919050565b5f82825260208201905092915050565b5f819050602082019050919050565b610f1a81610ec8565b82525050565b5f610f2b8383610f11565b60208301905092915050565b5f602082019050919050565b5f610f4d82610ee8565b610f578185610ef2565b9350610f6283610f02565b805f5b83811015610f92578151610f798882610f20565b9750610f8483610f37565b925050600181019050610f65565b5085935050505092915050565b5f819050919050565b610fb181610f9f565b82525050565b5f61016082019050610fcb5f83018e610df6565b8181036020830152610fdd818d610e57565b90508181036040830152610ff1818c610e57565b9050611000606083018b610e9a565b8181036080830152611012818a610e57565b905061102160a0830189610df6565b61102e60c0830188610df6565b61103b60e0830187610ed9565b81810361010083015261104e8186610f43565b905061105e610120830185610fa8565b61106c610140830184610e9a565b9c9b505050505050505050505050565b61108581610f9f565b811461108f575f80fd5b50565b5f813590506110a08161107c565b92915050565b5f602082840312156110bb576110ba610d90565b5b5f6110c884828501611092565b91505092915050565b5f60a0820190506110e45f830188610df6565b6110f16020830187610ed9565b6110fe6040830186610df6565b61110b6060830185610df6565b6111186080830184610df6565b9695505050505050565b5f6020820190506111355f830184610df6565b92915050565b5f80fd5b5f80fd5b7f4e487b71000000000000000000000000000000000000000000000000000000005f52604160045260245ffd5b61117982610e47565b810181811067ffffffffffffffff8211171561119857611197611143565b5b80604052505050565b5f6111aa610d87565b90506111b68282611170565b919050565b5f67ffffffffffffffff8211156111d5576111d4611143565b5b6111de82610e47565b9050602081019050919050565b828183375f83830152505050565b5f61120b611206846111bb565b6111a1565b9050828152602081018484840111156112275761122661113f565b5b6112328482856111eb565b509392505050565b5f82601f83011261124e5761124d61113b565b5b813561125e8482602086016111f9565b91505092915050565b61127081610e8f565b811461127a575f80fd5b50565b5f8135905061128b81611267565b92915050565b5f805f805f60a086880312156112aa576112a9610d90565b5b5f6112b788828901610db7565b955050602086013567ffffffffffffffff8111156112d8576112d7610d94565b5b6112e48882890161123a565b945050604086013567ffffffffffffffff81111561130557611304610d94565b5b6113118882890161123a565b935050606086013567ffffffffffffffff81111561133257611331610d94565b5b61133e8882890161123a565b925050608061134f8882890161127d565b9150509295509295909350565b7f4e487b71000000000000000000000000000000000000000000000000000000005f52602260045260245ffd5b5f60028204905060018216806113a057607f821691505b6020821081036113b3576113b261135c565b5b50919050565b7f5472697020646f6573206e6f74206578697374000000000000000000000000005f82015250565b5f6113ed601383610e0f565b91506113f8826113b9565b602082019050919050565b5f6020820190508181035f83015261141a816113e1565b9050919050565b7f5472697020616c726561647920636f6d706c65746564000000000000000000005f82015250565b5f611455601683610e0f565b915061146082611421565b602082019050919050565b5f6020820190508181035f83015261148281611449565b9050919050565b7f4e487b71000000000000000000000000000000000000000000000000000000005f52601160045260245ffd5b5f6114c082610d98565b91506114cb83610d98565b92508282026114d981610d98565b915082820484148315176114f0576114ef611489565b5b5092915050565b7f4e487b71000000000000000000000000000000000000000000000000000000005f52601260045260245ffd5b5f61152e82610d98565b915061153983610d98565b925082611549576115486114f7565b5b828204905092915050565b5f61155e82610d98565b915061156983610d98565b925082820390508181111561158157611580611489565b5b92915050565b7f496e73756666696369656e742066756e647320746f206a6f696e2074686520745f8201527f7269700000000000000000000000000000000000000000000000000000000000602082015250565b5f6115e1602383610e0f565b91506115ec82611587565b604082019050919050565b5f6020820190508181035f83015261160e816115d5565b9050919050565b5f60a0820190506116285f830188610df6565b6116356020830187610ed9565b6116426040830186610df6565b61164f6060830185610df6565b61165c6080830184610fa8565b9695505050505050565b7f4f6e6c7920746865206472697665722063616e20706572666f726d20746869735f8201527f20616374696f6e00000000000000000000000000000000000000000000000000602082015250565b5f6116c0602783610e0f565b91506116cb82611666565b604082019050919050565b5f6020820190508181035f8301526116ed816116b4565b9050919050565b5f6116fe82610d98565b91507fffffffffffffffffffffffffffffffffffffffffffffffffffffffffffffffff82036117305761172f611489565b5b600182019050919050565b5f819050815f5260205f209050919050565b5f6020601f8301049050919050565b5f82821b905092915050565b5f600883026117977fffffffffffffffffffffffffffffffffffffffffffffffffffffffffffffffff8261175c565b6117a1868361175c565b95508019841693508086168417925050509392505050565b5f819050919050565b5f6117dc6117d76117d284610d98565b6117b9565b610d98565b9050919050565b5f819050919050565b6117f5836117c2565b611809611801826117e3565b848454611768565b825550505050565b5f90565b61181d611811565b6118288184846117ec565b505050565b5b8181101561184b576118405f82611815565b60018101905061182e565b5050565b601f821115611890576118618161173b565b61186a8461174d565b81016020851015611879578190505b61188d6118858561174d565b83018261182d565b50505b505050565b5f82821c905092915050565b5f6118b05f1984600802611895565b1980831691505092915050565b5f6118c883836118a1565b9150826002028217905092915050565b6118e182610e05565b67ffffffffffffffff8111156118fa576118f9611143565b5b6119048254611389565b61190f82828561184f565b5f60209050601f831160018114611940575f841561192e578287015190505b61193885826118bd565b86555061199f565b601f19841661194e8661173b565b5f5b8281101561197557848901518255600182019150602085019450602081019050611950565b86831015611992578489015161198e601f8916826118a1565b8355505b6001600288020188555050505b505050505050565b5f6080820190506119ba5f830187610df6565b6119c76020830186610ed9565b6119d46040830185610df6565b81810360608301526119e68184610e57565b90509594505050505056fea26469706673582212203fc9c98d74ca0bd67acd89b5c726871dc4764a1e2b4c718355ee9d0359ebed2464736f6c63430008180033",
					"opcodes": "PUSH1 0x80 PUSH1 0x40 MSTORE CALLVALUE DUP1 ISZERO PUSH2 0xF JUMPI PUSH0 DUP1 REVERT JUMPDEST POP PUSH0 PUSH1 0x2 DUP2 SWAP1 SSTORE POP PUSH2 0x1A27 DUP1 PUSH2 0x24 PUSH0 CODECOPY PUSH0 RETURN INVALID PUSH1 0x80 PUSH1 0x40 MSTORE PUSH1 0x4 CALLDATASIZE LT PUSH2 0x6F JUMPI PUSH0 CALLDATALOAD PUSH1 0xE0 SHR DUP1 PUSH4 0x6FA4EC27 GT PUSH2 0x4D JUMPI DUP1 PUSH4 0x6FA4EC27 EQ PUSH2 0x115 JUMPI DUP1 PUSH4 0x771A3A1D EQ PUSH2 0x13F JUMPI DUP1 PUSH4 0xC1917E79 EQ PUSH2 0x169 JUMPI DUP1 PUSH4 0xC99E7333 EQ PUSH2 0x191 JUMPI PUSH2 0x6F JUMP JUMPDEST DUP1 PUSH4 0x124C128E EQ PUSH2 0x73 JUMPI DUP1 PUSH4 0x13C3EA33 EQ PUSH2 0xB9 JUMPI DUP1 PUSH4 0x515A39B6 EQ PUSH2 0xD5 JUMPI JUMPDEST PUSH0 DUP1 REVERT JUMPDEST CALLVALUE DUP1 ISZERO PUSH2 0x7E JUMPI PUSH0 DUP1 REVERT JUMPDEST POP PUSH2 0x99 PUSH1 0x4 DUP1 CALLDATASIZE SUB DUP2 ADD SWAP1 PUSH2 0x94 SWAP2 SWAP1 PUSH2 0xDCB JUMP JUMPDEST PUSH2 0x1CD JUMP JUMPDEST PUSH1 0x40 MLOAD PUSH2 0xB0 SWAP12 SWAP11 SWAP10 SWAP9 SWAP8 SWAP7 SWAP6 SWAP5 SWAP4 SWAP3 SWAP2 SWAP1 PUSH2 0xFB7 JUMP JUMPDEST PUSH1 0x40 MLOAD DUP1 SWAP2 SUB SWAP1 RETURN JUMPDEST PUSH2 0xD3 PUSH1 0x4 DUP1 CALLDATASIZE SUB DUP2 ADD SWAP1 PUSH2 0xCE SWAP2 SWAP1 PUSH2 0xDCB JUMP JUMPDEST PUSH2 0x4A0 JUMP JUMPDEST STOP JUMPDEST CALLVALUE DUP1 ISZERO PUSH2 0xE0 JUMPI PUSH0 DUP1 REVERT JUMPDEST POP PUSH2 0xFB PUSH1 0x4 DUP1 CALLDATASIZE SUB DUP2 ADD SWAP1 PUSH2 0xF6 SWAP2 SWAP1 PUSH2 0x10A6 JUMP JUMPDEST PUSH2 0x82E JUMP JUMPDEST PUSH1 0x40 MLOAD PUSH2 0x10C SWAP6 SWAP5 SWAP4 SWAP3 SWAP2 SWAP1 PUSH2 0x10D1 JUMP JUMPDEST PUSH1 0x40 MLOAD DUP1 SWAP2 SUB SWAP1 RETURN JUMPDEST CALLVALUE DUP1 ISZERO PUSH2 0x120 JUMPI PUSH0 DUP1 REVERT JUMPDEST POP PUSH2 0x129 PUSH2 0x892 JUMP JUMPDEST PUSH1 0x40 MLOAD PUSH2 0x136 SWAP2 SWAP1 PUSH2 0x1122 JUMP JUMPDEST PUSH1 0x40 MLOAD DUP1 SWAP2 SUB SWAP1 RETURN JUMPDEST CALLVALUE DUP1 ISZERO PUSH2 0x14A JUMPI PUSH0 DUP1 REVERT JUMPDEST POP PUSH2 0x153 PUSH2 0x898 JUMP JUMPDEST PUSH1 0x40 MLOAD PUSH2 0x160 SWAP2 SWAP1 PUSH2 0x1122 JUMP JUMPDEST PUSH1 0x40 MLOAD DUP1 SWAP2 SUB SWAP1 RETURN JUMPDEST CALLVALUE DUP1 ISZERO PUSH2 0x174 JUMPI PUSH0 DUP1 REVERT JUMPDEST POP PUSH2 0x18F PUSH1 0x4 DUP1 CALLDATASIZE SUB DUP2 ADD SWAP1 PUSH2 0x18A SWAP2 SWAP1 PUSH2 0xDCB JUMP JUMPDEST PUSH2 0x89D JUMP JUMPDEST STOP JUMPDEST CALLVALUE DUP1 ISZERO PUSH2 0x19C JUMPI PUSH0 DUP1 REVERT JUMPDEST POP PUSH2 0x1B7 PUSH1 0x4 DUP1 CALLDATASIZE SUB DUP2 ADD SWAP1 PUSH2 0x1B2 SWAP2 SWAP1 PUSH2 0x1291 JUMP JUMPDEST PUSH2 0xAAD JUMP JUMPDEST PUSH1 0x40 MLOAD PUSH2 0x1C4 SWAP2 SWAP1 PUSH2 0x1122 JUMP JUMPDEST PUSH1 0x40 MLOAD DUP1 SWAP2 SUB SWAP1 RETURN JUMPDEST PUSH0 PUSH1 0x60 DUP1 PUSH0 PUSH1 0x60 PUSH0 DUP1 PUSH0 PUSH1 0x60 PUSH0 DUP1 PUSH0 DUP1 PUSH0 DUP15 DUP2 MSTORE PUSH1 0x20 ADD SWAP1 DUP2 MSTORE PUSH1 0x20 ADD PUSH0 KECCAK256 SWAP1 POP DUP1 PUSH0 ADD SLOAD DUP2 PUSH1 0x1 ADD DUP3 PUSH1 0x2 ADD DUP4 PUSH1 0x3 ADD PUSH0 SWAP1 SLOAD SWAP1 PUSH2 0x100 EXP SWAP1 DIV PUSH1 0xFF AND DUP5 PUSH1 0x4 ADD DUP6 PUSH1 0x5 ADD SLOAD DUP7 PUSH1 0x6 ADD SLOAD DUP8 PUSH1 0x7 ADD PUSH0 SWAP1 SLOAD SWAP1 PUSH2 0x100 EXP SWAP1 DIV PUSH20 0xFFFFFFFFFFFFFFFFFFFFFFFFFFFFFFFFFFFFFFFF AND DUP9 PUSH1 0x8 ADD DUP10 PUSH1 0x9 ADD SLOAD DUP11 PUSH1 0xA ADD PUSH0 SWAP1 SLOAD SWAP1 PUSH2 0x100 EXP SWAP1 DIV PUSH1 0xFF AND DUP10 DUP1 SLOAD PUSH2 0x263 SWAP1 PUSH2 0x1389 JUMP JUMPDEST DUP1 PUSH1 0x1F ADD PUSH1 0x20 DUP1 SWAP2 DIV MUL PUSH1 0x20 ADD PUSH1 0x40 MLOAD SWAP1 DUP2 ADD PUSH1 0x40 MSTORE DUP1 SWAP3 SWAP2 SWAP1 DUP2 DUP2 MSTORE PUSH1 0x20 ADD DUP3 DUP1 SLOAD PUSH2 0x28F SWAP1 PUSH2 0x1389 JUMP JUMPDEST DUP1 ISZERO PUSH2 0x2DA JUMPI DUP1 PUSH1 0x1F LT PUSH2 0x2B1 JUMPI PUSH2 0x100 DUP1 DUP4 SLOAD DIV MUL DUP4 MSTORE SWAP2 PUSH1 0x20 ADD SWAP2 PUSH2 0x2DA JUMP JUMPDEST DUP3 ADD SWAP2 SWAP1 PUSH0 MSTORE PUSH1 0x20 PUSH0 KECCAK256 SWAP1 JUMPDEST DUP2 SLOAD DUP2 MSTORE SWAP1 PUSH1 0x1 ADD SWAP1 PUSH1 0x20 ADD DUP1 DUP4 GT PUSH2 0x2BD JUMPI DUP3 SWAP1 SUB PUSH1 0x1F AND DUP3 ADD SWAP2 JUMPDEST POP POP POP POP POP SWAP10 POP DUP9 DUP1 SLOAD PUSH2 0x2ED SWAP1 PUSH2 0x1389 JUMP JUMPDEST DUP1 PUSH1 0x1F ADD PUSH1 0x20 DUP1 SWAP2 DIV MUL PUSH1 0x20 ADD PUSH1 0x40 MLOAD SWAP1 DUP2 ADD PUSH1 0x40 MSTORE DUP1 SWAP3 SWAP2 SWAP1 DUP2 DUP2 MSTORE PUSH1 0x20 ADD DUP3 DUP1 SLOAD PUSH2 0x319 SWAP1 PUSH2 0x1389 JUMP JUMPDEST DUP1 ISZERO PUSH2 0x364 JUMPI DUP1 PUSH1 0x1F LT PUSH2 0x33B JUMPI PUSH2 0x100 DUP1 DUP4 SLOAD DIV MUL DUP4 MSTORE SWAP2 PUSH1 0x20 ADD SWAP2 PUSH2 0x364 JUMP JUMPDEST DUP3 ADD SWAP2 SWAP1 PUSH0 MSTORE PUSH1 0x20 PUSH0 KECCAK256 SWAP1 JUMPDEST DUP2 SLOAD DUP2 MSTORE SWAP1 PUSH1 0x1 ADD SWAP1 PUSH1 0x20 ADD DUP1 DUP4 GT PUSH2 0x347 JUMPI DUP3 SWAP1 SUB PUSH1 0x1F AND DUP3 ADD SWAP2 JUMPDEST POP POP POP POP POP SWAP9 POP DUP7 DUP1 SLOAD PUSH2 0x377 SWAP1 PUSH2 0x1389 JUMP JUMPDEST DUP1 PUSH1 0x1F ADD PUSH1 0x20 DUP1 SWAP2 DIV MUL PUSH1 0x20 ADD PUSH1 0x40 MLOAD SWAP1 DUP2 ADD PUSH1 0x40 MSTORE DUP1 SWAP3 SWAP2 SWAP1 DUP2 DUP2 MSTORE PUSH1 0x20 ADD DUP3 DUP1 SLOAD PUSH2 0x3A3 SWAP1 PUSH2 0x1389 JUMP JUMPDEST DUP1 ISZERO PUSH2 0x3EE JUMPI DUP1 PUSH1 0x1F LT PUSH2 0x3C5 JUMPI PUSH2 0x100 DUP1 DUP4 SLOAD DIV MUL DUP4 MSTORE SWAP2 PUSH1 0x20 ADD SWAP2 PUSH2 0x3EE JUMP JUMPDEST DUP3 ADD SWAP2 SWAP1 PUSH0 MSTORE PUSH1 0x20 PUSH0 KECCAK256 SWAP1 JUMPDEST DUP2 SLOAD DUP2 MSTORE SWAP1 PUSH1 0x1 ADD SWAP1 PUSH1 0x20 ADD DUP1 DUP4 GT PUSH2 0x3D1 JUMPI DUP3 SWAP1 SUB PUSH1 0x1F AND DUP3 ADD SWAP2 JUMPDEST POP POP POP POP POP SWAP7 POP DUP3 DUP1 SLOAD DUP1 PUSH1 0x20 MUL PUSH1 0x20 ADD PUSH1 0x40 MLOAD SWAP1 DUP2 ADD PUSH1 0x40 MSTORE DUP1 SWAP3 SWAP2 SWAP1 DUP2 DUP2 MSTORE PUSH1 0x20 ADD DUP3 DUP1 SLOAD DUP1 ISZERO PUSH2 0x473 JUMPI PUSH1 0x20 MUL DUP3 ADD SWAP2 SWAP1 PUSH0 MSTORE PUSH1 0x20 PUSH0 KECCAK256 SWAP1 JUMPDEST DUP2 PUSH0 SWAP1 SLOAD SWAP1 PUSH2 0x100 EXP SWAP1 DIV PUSH20 0xFFFFFFFFFFFFFFFFFFFFFFFFFFFFFFFFFFFFFFFF AND PUSH20 0xFFFFFFFFFFFFFFFFFFFFFFFFFFFFFFFFFFFFFFFF AND DUP2 MSTORE PUSH1 0x20 ADD SWAP1 PUSH1 0x1 ADD SWAP1 DUP1 DUP4 GT PUSH2 0x42A JUMPI JUMPDEST POP POP POP POP POP SWAP3 POP SWAP12 POP SWAP12 POP SWAP12 POP SWAP12 POP SWAP12 POP SWAP12 POP SWAP12 POP SWAP12 POP SWAP12 POP SWAP12 POP SWAP12 POP POP SWAP2 SWAP4 SWAP6 SWAP8 SWAP10 SWAP12 SWAP1 SWAP3 SWAP5 SWAP7 SWAP9 SWAP11 POP JUMP JUMPDEST DUP1 PUSH0 PUSH20 0xFFFFFFFFFFFFFFFFFFFFFFFFFFFFFFFFFFFFFFFF AND PUSH0 DUP1 DUP4 DUP2 MSTORE PUSH1 0x20 ADD SWAP1 DUP2 MSTORE PUSH1 0x20 ADD PUSH0 KECCAK256 PUSH1 0x7 ADD PUSH0 SWAP1 SLOAD SWAP1 PUSH2 0x100 EXP SWAP1 DIV PUSH20 0xFFFFFFFFFFFFFFFFFFFFFFFFFFFFFFFFFFFFFFFF AND PUSH20 0xFFFFFFFFFFFFFFFFFFFFFFFFFFFFFFFFFFFFFFFF AND SUB PUSH2 0x541 JUMPI PUSH1 0x40 MLOAD PUSH32 0x8C379A000000000000000000000000000000000000000000000000000000000 DUP2 MSTORE PUSH1 0x4 ADD PUSH2 0x538 SWAP1 PUSH2 0x1403 JUMP JUMPDEST PUSH1 0x40 MLOAD DUP1 SWAP2 SUB SWAP1 REVERT JUMPDEST DUP2 PUSH0 DUP1 DUP3 DUP2 MSTORE PUSH1 0x20 ADD SWAP1 DUP2 MSTORE PUSH1 0x20 ADD PUSH0 KECCAK256 PUSH1 0xA ADD PUSH0 SWAP1 SLOAD SWAP1 PUSH2 0x100 EXP SWAP1 DIV PUSH1 0xFF AND ISZERO PUSH2 0x5A2 JUMPI PUSH1 0x40 MLOAD PUSH32 0x8C379A000000000000000000000000000000000000000000000000000000000 DUP2 MSTORE PUSH1 0x4 ADD PUSH2 0x599 SWAP1 PUSH2 0x146B JUMP JUMPDEST PUSH1 0x40 MLOAD DUP1 SWAP2 SUB SWAP1 REVERT JUMPDEST PUSH0 DUP1 PUSH0 DUP6 DUP2 MSTORE PUSH1 0x20 ADD SWAP1 DUP2 MSTORE PUSH1 0x20 ADD PUSH0 KECCAK256 SWAP1 POP PUSH0 PUSH1 0x64 PUSH1 0x8 DUP4 PUSH1 0x5 ADD SLOAD PUSH2 0x5C9 SWAP2 SWAP1 PUSH2 0x14B6 JUMP JUMPDEST PUSH2 0x5D3 SWAP2 SWAP1 PUSH2 0x1524 JUMP JUMPDEST SWAP1 POP PUSH0 DUP2 DUP4 PUSH1 0x5 ADD SLOAD PUSH2 0x5E6 SWAP2 SWAP1 PUSH2 0x1554 JUMP JUMPDEST SWAP1 POP DUP3 PUSH1 0x5 ADD SLOAD CALLVALUE LT ISZERO PUSH2 0x62F JUMPI PUSH1 0x40 MLOAD PUSH32 0x8C379A000000000000000000000000000000000000000000000000000000000 DUP2 MSTORE PUSH1 0x4 ADD PUSH2 0x626 SWAP1 PUSH2 0x15F7 JUMP JUMPDEST PUSH1 0x40 MLOAD DUP1 SWAP2 SUB SWAP1 REVERT JUMPDEST DUP3 PUSH1 0x7 ADD PUSH0 SWAP1 SLOAD SWAP1 PUSH2 0x100 EXP SWAP1 DIV PUSH20 0xFFFFFFFFFFFFFFFFFFFFFFFFFFFFFFFFFFFFFFFF AND PUSH20 0xFFFFFFFFFFFFFFFFFFFFFFFFFFFFFFFFFFFFFFFF AND PUSH2 0x8FC DUP3 SWAP1 DUP2 ISZERO MUL SWAP1 PUSH1 0x40 MLOAD PUSH0 PUSH1 0x40 MLOAD DUP1 DUP4 SUB DUP2 DUP6 DUP9 DUP9 CALL SWAP4 POP POP POP POP ISZERO DUP1 ISZERO PUSH2 0x695 JUMPI RETURNDATASIZE PUSH0 DUP1 RETURNDATACOPY RETURNDATASIZE PUSH0 REVERT JUMPDEST POP DUP3 PUSH1 0x8 ADD CALLER SWAP1 DUP1 PUSH1 0x1 DUP2 SLOAD ADD DUP1 DUP3 SSTORE DUP1 SWAP2 POP POP PUSH1 0x1 SWAP1 SUB SWAP1 PUSH0 MSTORE PUSH1 0x20 PUSH0 KECCAK256 ADD PUSH0 SWAP1 SWAP2 SWAP1 SWAP2 SWAP1 SWAP2 PUSH2 0x100 EXP DUP2 SLOAD DUP2 PUSH20 0xFFFFFFFFFFFFFFFFFFFFFFFFFFFFFFFFFFFFFFFF MUL NOT AND SWAP1 DUP4 PUSH20 0xFFFFFFFFFFFFFFFFFFFFFFFFFFFFFFFFFFFFFFFF AND MUL OR SWAP1 SSTORE POP PUSH1 0x1 NUMBER PUSH2 0x705 SWAP2 SWAP1 PUSH2 0x1554 JUMP JUMPDEST BLOCKHASH DUP4 PUSH1 0x9 ADD DUP2 SWAP1 SSTORE POP PUSH1 0x40 MLOAD DUP1 PUSH1 0xC0 ADD PUSH1 0x40 MSTORE DUP1 DUP8 DUP2 MSTORE PUSH1 0x20 ADD CALLER PUSH20 0xFFFFFFFFFFFFFFFFFFFFFFFFFFFFFFFFFFFFFFFF AND DUP2 MSTORE PUSH1 0x20 ADD DUP3 DUP2 MSTORE PUSH1 0x20 ADD DUP4 DUP2 MSTORE PUSH1 0x20 ADD DUP5 PUSH1 0x9 ADD SLOAD DUP2 MSTORE PUSH1 0x20 ADD TIMESTAMP DUP2 MSTORE POP PUSH1 0x1 PUSH0 DUP6 PUSH1 0x9 ADD SLOAD DUP2 MSTORE PUSH1 0x20 ADD SWAP1 DUP2 MSTORE PUSH1 0x20 ADD PUSH0 KECCAK256 PUSH0 DUP3 ADD MLOAD DUP2 PUSH0 ADD SSTORE PUSH1 0x20 DUP3 ADD MLOAD DUP2 PUSH1 0x1 ADD PUSH0 PUSH2 0x100 EXP DUP2 SLOAD DUP2 PUSH20 0xFFFFFFFFFFFFFFFFFFFFFFFFFFFFFFFFFFFFFFFF MUL NOT AND SWAP1 DUP4 PUSH20 0xFFFFFFFFFFFFFFFFFFFFFFFFFFFFFFFFFFFFFFFF AND MUL OR SWAP1 SSTORE POP PUSH1 0x40 DUP3 ADD MLOAD DUP2 PUSH1 0x2 ADD SSTORE PUSH1 0x60 DUP3 ADD MLOAD DUP2 PUSH1 0x3 ADD SSTORE PUSH1 0x80 DUP3 ADD MLOAD DUP2 PUSH1 0x4 ADD SSTORE PUSH1 0xA0 DUP3 ADD MLOAD DUP2 PUSH1 0x5 ADD SSTORE SWAP1 POP POP PUSH32 0x96836526637DF41A0181017D35ECA90AEA5D39F47FC680CC0811179DFA01996E DUP7 CALLER DUP4 DUP6 DUP8 PUSH1 0x9 ADD SLOAD PUSH1 0x40 MLOAD PUSH2 0x81E SWAP6 SWAP5 SWAP4 SWAP3 SWAP2 SWAP1 PUSH2 0x1615 JUMP JUMPDEST PUSH1 0x40 MLOAD DUP1 SWAP2 SUB SWAP1 LOG1 POP POP POP POP POP POP JUMP JUMPDEST PUSH0 DUP1 PUSH0 DUP1 PUSH0 DUP1 PUSH1 0x1 PUSH0 DUP9 DUP2 MSTORE PUSH1 0x20 ADD SWAP1 DUP2 MSTORE PUSH1 0x20 ADD PUSH0 KECCAK256 SWAP1 POP DUP1 PUSH0 ADD SLOAD DUP2 PUSH1 0x1 ADD PUSH0 SWAP1 SLOAD SWAP1 PUSH2 0x100 EXP SWAP1 DIV PUSH20 0xFFFFFFFFFFFFFFFFFFFFFFFFFFFFFFFFFFFFFFFF AND DUP3 PUSH1 0x2 ADD SLOAD DUP4 PUSH1 0x3 ADD SLOAD DUP5 PUSH1 0x5 ADD SLOAD SWAP6 POP SWAP6 POP SWAP6 POP SWAP6 POP SWAP6 POP POP SWAP2 SWAP4 SWAP6 SWAP1 SWAP3 SWAP5 POP JUMP JUMPDEST PUSH1 0x2 SLOAD DUP2 JUMP JUMPDEST PUSH1 0x8 DUP2 JUMP JUMPDEST DUP1 PUSH0 PUSH20 0xFFFFFFFFFFFFFFFFFFFFFFFFFFFFFFFFFFFFFFFF AND PUSH0 DUP1 DUP4 DUP2 MSTORE PUSH1 0x20 ADD SWAP1 DUP2 MSTORE PUSH1 0x20 ADD PUSH0 KECCAK256 PUSH1 0x7 ADD PUSH0 SWAP1 SLOAD SWAP1 PUSH2 0x100 EXP SWAP1 DIV PUSH20 0xFFFFFFFFFFFFFFFFFFFFFFFFFFFFFFFFFFFFFFFF AND PUSH20 0xFFFFFFFFFFFFFFFFFFFFFFFFFFFFFFFFFFFFFFFF AND SUB PUSH2 0x93E JUMPI PUSH1 0x40 MLOAD PUSH32 0x8C379A000000000000000000000000000000000000000000000000000000000 DUP2 MSTORE PUSH1 0x4 ADD PUSH2 0x935 SWAP1 PUSH2 0x1403 JUMP JUMPDEST PUSH1 0x40 MLOAD DUP1 SWAP2 SUB SWAP1 REVERT JUMPDEST DUP2 PUSH0 DUP1 DUP3 DUP2 MSTORE PUSH1 0x20 ADD SWAP1 DUP2 MSTORE PUSH1 0x20 ADD PUSH0 KECCAK256 PUSH1 0xA ADD PUSH0 SWAP1 SLOAD SWAP1 PUSH2 0x100 EXP SWAP1 DIV PUSH1 0xFF AND ISZERO PUSH2 0x99F JUMPI PUSH1 0x40 MLOAD PUSH32 0x8C379A000000000000000000000000000000000000000000000000000000000 DUP2 MSTORE PUSH1 0x4 ADD PUSH2 0x996 SWAP1 PUSH2 0x146B JUMP JUMPDEST PUSH1 0x40 MLOAD DUP1 SWAP2 SUB SWAP1 REVERT JUMPDEST DUP3 CALLER PUSH20 0xFFFFFFFFFFFFFFFFFFFFFFFFFFFFFFFFFFFFFFFF AND PUSH0 DUP1 DUP4 DUP2 MSTORE PUSH1 0x20 ADD SWAP1 DUP2 MSTORE PUSH1 0x20 ADD PUSH0 KECCAK256 PUSH1 0x7 ADD PUSH0 SWAP1 SLOAD SWAP1 PUSH2 0x100 EXP SWAP1 DIV PUSH20 0xFFFFFFFFFFFFFFFFFFFFFFFFFFFFFFFFFFFFFFFF AND PUSH20 0xFFFFFFFFFFFFFFFFFFFFFFFFFFFFFFFFFFFFFFFF AND EQ PUSH2 0xA40 JUMPI PUSH1 0x40 MLOAD PUSH32 0x8C379A000000000000000000000000000000000000000000000000000000000 DUP2 MSTORE PUSH1 0x4 ADD PUSH2 0xA37 SWAP1 PUSH2 0x16D6 JUMP JUMPDEST PUSH1 0x40 MLOAD DUP1 SWAP2 SUB SWAP1 REVERT JUMPDEST PUSH0 DUP1 PUSH0 DUP7 DUP2 MSTORE PUSH1 0x20 ADD SWAP1 DUP2 MSTORE PUSH1 0x20 ADD PUSH0 KECCAK256 SWAP1 POP PUSH1 0x1 DUP2 PUSH1 0xA ADD PUSH0 PUSH2 0x100 EXP DUP2 SLOAD DUP2 PUSH1 0xFF MUL NOT AND SWAP1 DUP4 ISZERO ISZERO MUL OR SWAP1 SSTORE POP PUSH32 0xB27347CA9471103DED6B8B466BF4643DD4869BC7B0137003EA8D2FD1A6E7758D DUP6 PUSH1 0x40 MLOAD PUSH2 0xA9E SWAP2 SWAP1 PUSH2 0x1122 JUMP JUMPDEST PUSH1 0x40 MLOAD DUP1 SWAP2 SUB SWAP1 LOG1 POP POP POP POP POP JUMP JUMPDEST PUSH0 PUSH1 0x2 PUSH0 DUP2 SLOAD DUP1 SWAP3 SWAP2 SWAP1 PUSH2 0xAC0 SWAP1 PUSH2 0x16F4 JUMP JUMPDEST SWAP2 SWAP1 POP SSTORE POP PUSH1 0x40 MLOAD DUP1 PUSH2 0x160 ADD PUSH1 0x40 MSTORE DUP1 PUSH1 0x2 SLOAD DUP2 MSTORE PUSH1 0x20 ADD DUP6 DUP2 MSTORE PUSH1 0x20 ADD DUP5 DUP2 MSTORE PUSH1 0x20 ADD DUP4 ISZERO ISZERO DUP2 MSTORE PUSH1 0x20 ADD DUP7 DUP2 MSTORE PUSH1 0x20 ADD DUP8 DUP2 MSTORE PUSH1 0x20 ADD PUSH0 DUP2 MSTORE PUSH1 0x20 ADD CALLER PUSH20 0xFFFFFFFFFFFFFFFFFFFFFFFFFFFFFFFFFFFFFFFF AND DUP2 MSTORE PUSH1 0x20 ADD PUSH0 PUSH8 0xFFFFFFFFFFFFFFFF DUP2 GT ISZERO PUSH2 0xB35 JUMPI PUSH2 0xB34 PUSH2 0x1143 JUMP JUMPDEST JUMPDEST PUSH1 0x40 MLOAD SWAP1 DUP1 DUP3 MSTORE DUP1 PUSH1 0x20 MUL PUSH1 0x20 ADD DUP3 ADD PUSH1 0x40 MSTORE DUP1 ISZERO PUSH2 0xB63 JUMPI DUP2 PUSH1 0x20 ADD PUSH1 0x20 DUP3 MUL DUP1 CALLDATASIZE DUP4 CALLDATACOPY DUP1 DUP3 ADD SWAP2 POP POP SWAP1 POP JUMPDEST POP DUP2 MSTORE PUSH1 0x20 ADD PUSH0 DUP1 SHL DUP2 MSTORE PUSH1 0x20 ADD PUSH0 ISZERO ISZERO DUP2 MSTORE POP PUSH0 DUP1 PUSH1 0x2 SLOAD DUP2 MSTORE PUSH1 0x20 ADD SWAP1 DUP2 MSTORE PUSH1 0x20 ADD PUSH0 KECCAK256 PUSH0 DUP3 ADD MLOAD DUP2 PUSH0 ADD SSTORE PUSH1 0x20 DUP3 ADD MLOAD DUP2 PUSH1 0x1 ADD SWAP1 DUP2 PUSH2 0xBA6 SWAP2 SWAP1 PUSH2 0x18D8 JUMP JUMPDEST POP PUSH1 0x40 DUP3 ADD MLOAD DUP2 PUSH1 0x2 ADD SWAP1 DUP2 PUSH2 0xBBC SWAP2 SWAP1 PUSH2 0x18D8 JUMP JUMPDEST POP PUSH1 0x60 DUP3 ADD MLOAD DUP2 PUSH1 0x3 ADD PUSH0 PUSH2 0x100 EXP DUP2 SLOAD DUP2 PUSH1 0xFF MUL NOT AND SWAP1 DUP4 ISZERO ISZERO MUL OR SWAP1 SSTORE POP PUSH1 0x80 DUP3 ADD MLOAD DUP2 PUSH1 0x4 ADD SWAP1 DUP2 PUSH2 0xBF1 SWAP2 SWAP1 PUSH2 0x18D8 JUMP JUMPDEST POP PUSH1 0xA0 DUP3 ADD MLOAD DUP2 PUSH1 0x5 ADD SSTORE PUSH1 0xC0 DUP3 ADD MLOAD DUP2 PUSH1 0x6 ADD SSTORE PUSH1 0xE0 DUP3 ADD MLOAD DUP2 PUSH1 0x7 ADD PUSH0 PUSH2 0x100 EXP DUP2 SLOAD DUP2 PUSH20 0xFFFFFFFFFFFFFFFFFFFFFFFFFFFFFFFFFFFFFFFF MUL NOT AND SWAP1 DUP4 PUSH20 0xFFFFFFFFFFFFFFFFFFFFFFFFFFFFFFFFFFFFFFFF AND MUL OR SWAP1 SSTORE POP PUSH2 0x100 DUP3 ADD MLOAD DUP2 PUSH1 0x8 ADD SWAP1 DUP1 MLOAD SWAP1 PUSH1 0x20 ADD SWAP1 PUSH2 0xC69 SWAP3 SWAP2 SWAP1 PUSH2 0xCE5 JUMP JUMPDEST POP PUSH2 0x120 DUP3 ADD MLOAD DUP2 PUSH1 0x9 ADD SSTORE PUSH2 0x140 DUP3 ADD MLOAD DUP2 PUSH1 0xA ADD PUSH0 PUSH2 0x100 EXP DUP2 SLOAD DUP2 PUSH1 0xFF MUL NOT AND SWAP1 DUP4 ISZERO ISZERO MUL OR SWAP1 SSTORE POP SWAP1 POP POP PUSH32 0xD738AF278540540083F5D8180DD9A02DC202474BCB20EF35F68B6AB5AEAAF44 PUSH1 0x2 SLOAD CALLER DUP9 DUP9 PUSH1 0x40 MLOAD PUSH2 0xCCF SWAP5 SWAP4 SWAP3 SWAP2 SWAP1 PUSH2 0x19A7 JUMP JUMPDEST PUSH1 0x40 MLOAD DUP1 SWAP2 SUB SWAP1 LOG1 PUSH1 0x2 SLOAD SWAP1 POP SWAP6 SWAP5 POP POP POP POP POP JUMP JUMPDEST DUP3 DUP1 SLOAD DUP3 DUP3 SSTORE SWAP1 PUSH0 MSTORE PUSH1 0x20 PUSH0 KECCAK256 SWAP1 DUP2 ADD SWAP3 DUP3 ISZERO PUSH2 0xD5B JUMPI SWAP2 PUSH1 0x20 MUL DUP3 ADD JUMPDEST DUP3 DUP2 GT ISZERO PUSH2 0xD5A JUMPI DUP3 MLOAD DUP3 PUSH0 PUSH2 0x100 EXP DUP2 SLOAD DUP2 PUSH20 0xFFFFFFFFFFFFFFFFFFFFFFFFFFFFFFFFFFFFFFFF MUL NOT AND SWAP1 DUP4 PUSH20 0xFFFFFFFFFFFFFFFFFFFFFFFFFFFFFFFFFFFFFFFF AND MUL OR SWAP1 SSTORE POP SWAP2 PUSH1 0x20 ADD SWAP2 SWAP1 PUSH1 0x1 ADD SWAP1 PUSH2 0xD03 JUMP JUMPDEST JUMPDEST POP SWAP1 POP PUSH2 0xD68 SWAP2 SWAP1 PUSH2 0xD6C JUMP JUMPDEST POP SWAP1 JUMP JUMPDEST JUMPDEST DUP1 DUP3 GT ISZERO PUSH2 0xD83 JUMPI PUSH0 DUP2 PUSH0 SWAP1 SSTORE POP PUSH1 0x1 ADD PUSH2 0xD6D JUMP JUMPDEST POP SWAP1 JUMP JUMPDEST PUSH0 PUSH1 0x40 MLOAD SWAP1 POP SWAP1 JUMP JUMPDEST PUSH0 DUP1 REVERT JUMPDEST PUSH0 DUP1 REVERT JUMPDEST PUSH0 DUP2 SWAP1 POP SWAP2 SWAP1 POP JUMP JUMPDEST PUSH2 0xDAA DUP2 PUSH2 0xD98 JUMP JUMPDEST DUP2 EQ PUSH2 0xDB4 JUMPI PUSH0 DUP1 REVERT JUMPDEST POP JUMP JUMPDEST PUSH0 DUP2 CALLDATALOAD SWAP1 POP PUSH2 0xDC5 DUP2 PUSH2 0xDA1 JUMP JUMPDEST SWAP3 SWAP2 POP POP JUMP JUMPDEST PUSH0 PUSH1 0x20 DUP3 DUP5 SUB SLT ISZERO PUSH2 0xDE0 JUMPI PUSH2 0xDDF PUSH2 0xD90 JUMP JUMPDEST JUMPDEST PUSH0 PUSH2 0xDED DUP5 DUP3 DUP6 ADD PUSH2 0xDB7 JUMP JUMPDEST SWAP2 POP POP SWAP3 SWAP2 POP POP JUMP JUMPDEST PUSH2 0xDFF DUP2 PUSH2 0xD98 JUMP JUMPDEST DUP3 MSTORE POP POP JUMP JUMPDEST PUSH0 DUP2 MLOAD SWAP1 POP SWAP2 SWAP1 POP JUMP JUMPDEST PUSH0 DUP3 DUP3 MSTORE PUSH1 0x20 DUP3 ADD SWAP1 POP SWAP3 SWAP2 POP POP JUMP JUMPDEST PUSH0 JUMPDEST DUP4 DUP2 LT ISZERO PUSH2 0xE3C JUMPI DUP1 DUP3 ADD MLOAD DUP2 DUP5 ADD MSTORE PUSH1 0x20 DUP2 ADD SWAP1 POP PUSH2 0xE21 JUMP JUMPDEST PUSH0 DUP5 DUP5 ADD MSTORE POP POP POP POP JUMP JUMPDEST PUSH0 PUSH1 0x1F NOT PUSH1 0x1F DUP4 ADD AND SWAP1 POP SWAP2 SWAP1 POP JUMP JUMPDEST PUSH0 PUSH2 0xE61 DUP3 PUSH2 0xE05 JUMP JUMPDEST PUSH2 0xE6B DUP2 DUP6 PUSH2 0xE0F JUMP JUMPDEST SWAP4 POP PUSH2 0xE7B DUP2 DUP6 PUSH1 0x20 DUP7 ADD PUSH2 0xE1F JUMP JUMPDEST PUSH2 0xE84 DUP2 PUSH2 0xE47 JUMP JUMPDEST DUP5 ADD SWAP2 POP POP SWAP3 SWAP2 POP POP JUMP JUMPDEST PUSH0 DUP2 ISZERO ISZERO SWAP1 POP SWAP2 SWAP1 POP JUMP JUMPDEST PUSH2 0xEA3 DUP2 PUSH2 0xE8F JUMP JUMPDEST DUP3 MSTORE POP POP JUMP JUMPDEST PUSH0 PUSH20 0xFFFFFFFFFFFFFFFFFFFFFFFFFFFFFFFFFFFFFFFF DUP3 AND SWAP1 POP SWAP2 SWAP1 POP JUMP JUMPDEST PUSH0 PUSH2 0xED2 DUP3 PUSH2 0xEA9 JUMP JUMPDEST SWAP1 POP SWAP2 SWAP1 POP JUMP JUMPDEST PUSH2 0xEE2 DUP2 PUSH2 0xEC8 JUMP JUMPDEST DUP3 MSTORE POP POP JUMP JUMPDEST PUSH0 DUP2 MLOAD SWAP1 POP SWAP2 SWAP1 POP JUMP JUMPDEST PUSH0 DUP3 DUP3 MSTORE PUSH1 0x20 DUP3 ADD SWAP1 POP SWAP3 SWAP2 POP POP JUMP JUMPDEST PUSH0 DUP2 SWAP1 POP PUSH1 0x20 DUP3 ADD SWAP1 POP SWAP2 SWAP1 POP JUMP JUMPDEST PUSH2 0xF1A DUP2 PUSH2 0xEC8 JUMP JUMPDEST DUP3 MSTORE POP POP JUMP JUMPDEST PUSH0 PUSH2 0xF2B DUP4 DUP4 PUSH2 0xF11 JUMP JUMPDEST PUSH1 0x20 DUP4 ADD SWAP1 POP SWAP3 SWAP2 POP POP JUMP JUMPDEST PUSH0 PUSH1 0x20 DUP3 ADD SWAP1 POP SWAP2 SWAP1 POP JUMP JUMPDEST PUSH0 PUSH2 0xF4D DUP3 PUSH2 0xEE8 JUMP JUMPDEST PUSH2 0xF57 DUP2 DUP6 PUSH2 0xEF2 JUMP JUMPDEST SWAP4 POP PUSH2 0xF62 DUP4 PUSH2 0xF02 JUMP JUMPDEST DUP1 PUSH0 JUMPDEST DUP4 DUP2 LT ISZERO PUSH2 0xF92 JUMPI DUP2 MLOAD PUSH2 0xF79 DUP9 DUP3 PUSH2 0xF20 JUMP JUMPDEST SWAP8 POP PUSH2 0xF84 DUP4 PUSH2 0xF37 JUMP JUMPDEST SWAP3 POP POP PUSH1 0x1 DUP2 ADD SWAP1 POP PUSH2 0xF65 JUMP JUMPDEST POP DUP6 SWAP4 POP POP POP POP SWAP3 SWAP2 POP POP JUMP JUMPDEST PUSH0 DUP2 SWAP1 POP SWAP2 SWAP1 POP JUMP JUMPDEST PUSH2 0xFB1 DUP2 PUSH2 0xF9F JUMP JUMPDEST DUP3 MSTORE POP POP JUMP JUMPDEST PUSH0 PUSH2 0x160 DUP3 ADD SWAP1 POP PUSH2 0xFCB PUSH0 DUP4 ADD DUP15 PUSH2 0xDF6 JUMP JUMPDEST DUP2 DUP2 SUB PUSH1 0x20 DUP4 ADD MSTORE PUSH2 0xFDD DUP2 DUP14 PUSH2 0xE57 JUMP JUMPDEST SWAP1 POP DUP2 DUP2 SUB PUSH1 0x40 DUP4 ADD MSTORE PUSH2 0xFF1 DUP2 DUP13 PUSH2 0xE57 JUMP JUMPDEST SWAP1 POP PUSH2 0x1000 PUSH1 0x60 DUP4 ADD DUP12 PUSH2 0xE9A JUMP JUMPDEST DUP2 DUP2 SUB PUSH1 0x80 DUP4 ADD MSTORE PUSH2 0x1012 DUP2 DUP11 PUSH2 0xE57 JUMP JUMPDEST SWAP1 POP PUSH2 0x1021 PUSH1 0xA0 DUP4 ADD DUP10 PUSH2 0xDF6 JUMP JUMPDEST PUSH2 0x102E PUSH1 0xC0 DUP4 ADD DUP9 PUSH2 0xDF6 JUMP JUMPDEST PUSH2 0x103B PUSH1 0xE0 DUP4 ADD DUP8 PUSH2 0xED9 JUMP JUMPDEST DUP2 DUP2 SUB PUSH2 0x100 DUP4 ADD MSTORE PUSH2 0x104E DUP2 DUP7 PUSH2 0xF43 JUMP JUMPDEST SWAP1 POP PUSH2 0x105E PUSH2 0x120 DUP4 ADD DUP6 PUSH2 0xFA8 JUMP JUMPDEST PUSH2 0x106C PUSH2 0x140 DUP4 ADD DUP5 PUSH2 0xE9A JUMP JUMPDEST SWAP13 SWAP12 POP POP POP POP POP POP POP POP POP POP POP POP JUMP JUMPDEST PUSH2 0x1085 DUP2 PUSH2 0xF9F JUMP JUMPDEST DUP2 EQ PUSH2 0x108F JUMPI PUSH0 DUP1 REVERT JUMPDEST POP JUMP JUMPDEST PUSH0 DUP2 CALLDATALOAD SWAP1 POP PUSH2 0x10A0 DUP2 PUSH2 0x107C JUMP JUMPDEST SWAP3 SWAP2 POP POP JUMP JUMPDEST PUSH0 PUSH1 0x20 DUP3 DUP5 SUB SLT ISZERO PUSH2 0x10BB JUMPI PUSH2 0x10BA PUSH2 0xD90 JUMP JUMPDEST JUMPDEST PUSH0 PUSH2 0x10C8 DUP5 DUP3 DUP6 ADD PUSH2 0x1092 JUMP JUMPDEST SWAP2 POP POP SWAP3 SWAP2 POP POP JUMP JUMPDEST PUSH0 PUSH1 0xA0 DUP3 ADD SWAP1 POP PUSH2 0x10E4 PUSH0 DUP4 ADD DUP9 PUSH2 0xDF6 JUMP JUMPDEST PUSH2 0x10F1 PUSH1 0x20 DUP4 ADD DUP8 PUSH2 0xED9 JUMP JUMPDEST PUSH2 0x10FE PUSH1 0x40 DUP4 ADD DUP7 PUSH2 0xDF6 JUMP JUMPDEST PUSH2 0x110B PUSH1 0x60 DUP4 ADD DUP6 PUSH2 0xDF6 JUMP JUMPDEST PUSH2 0x1118 PUSH1 0x80 DUP4 ADD DUP5 PUSH2 0xDF6 JUMP JUMPDEST SWAP7 SWAP6 POP POP POP POP POP POP JUMP JUMPDEST PUSH0 PUSH1 0x20 DUP3 ADD SWAP1 POP PUSH2 0x1135 PUSH0 DUP4 ADD DUP5 PUSH2 0xDF6 JUMP JUMPDEST SWAP3 SWAP2 POP POP JUMP JUMPDEST PUSH0 DUP1 REVERT JUMPDEST PUSH0 DUP1 REVERT JUMPDEST PUSH32 0x4E487B7100000000000000000000000000000000000000000000000000000000 PUSH0 MSTORE PUSH1 0x41 PUSH1 0x4 MSTORE PUSH1 0x24 PUSH0 REVERT JUMPDEST PUSH2 0x1179 DUP3 PUSH2 0xE47 JUMP JUMPDEST DUP2 ADD DUP2 DUP2 LT PUSH8 0xFFFFFFFFFFFFFFFF DUP3 GT OR ISZERO PUSH2 0x1198 JUMPI PUSH2 0x1197 PUSH2 0x1143 JUMP JUMPDEST JUMPDEST DUP1 PUSH1 0x40 MSTORE POP POP POP JUMP JUMPDEST PUSH0 PUSH2 0x11AA PUSH2 0xD87 JUMP JUMPDEST SWAP1 POP PUSH2 0x11B6 DUP3 DUP3 PUSH2 0x1170 JUMP JUMPDEST SWAP2 SWAP1 POP JUMP JUMPDEST PUSH0 PUSH8 0xFFFFFFFFFFFFFFFF DUP3 GT ISZERO PUSH2 0x11D5 JUMPI PUSH2 0x11D4 PUSH2 0x1143 JUMP JUMPDEST JUMPDEST PUSH2 0x11DE DUP3 PUSH2 0xE47 JUMP JUMPDEST SWAP1 POP PUSH1 0x20 DUP2 ADD SWAP1 POP SWAP2 SWAP1 POP JUMP JUMPDEST DUP3 DUP2 DUP4 CALLDATACOPY PUSH0 DUP4 DUP4 ADD MSTORE POP POP POP JUMP JUMPDEST PUSH0 PUSH2 0x120B PUSH2 0x1206 DUP5 PUSH2 0x11BB JUMP JUMPDEST PUSH2 0x11A1 JUMP JUMPDEST SWAP1 POP DUP3 DUP2 MSTORE PUSH1 0x20 DUP2 ADD DUP5 DUP5 DUP5 ADD GT ISZERO PUSH2 0x1227 JUMPI PUSH2 0x1226 PUSH2 0x113F JUMP JUMPDEST JUMPDEST PUSH2 0x1232 DUP5 DUP3 DUP6 PUSH2 0x11EB JUMP JUMPDEST POP SWAP4 SWAP3 POP POP POP JUMP JUMPDEST PUSH0 DUP3 PUSH1 0x1F DUP4 ADD SLT PUSH2 0x124E JUMPI PUSH2 0x124D PUSH2 0x113B JUMP JUMPDEST JUMPDEST DUP2 CALLDATALOAD PUSH2 0x125E DUP5 DUP3 PUSH1 0x20 DUP7 ADD PUSH2 0x11F9 JUMP JUMPDEST SWAP2 POP POP SWAP3 SWAP2 POP POP JUMP JUMPDEST PUSH2 0x1270 DUP2 PUSH2 0xE8F JUMP JUMPDEST DUP2 EQ PUSH2 0x127A JUMPI PUSH0 DUP1 REVERT JUMPDEST POP JUMP JUMPDEST PUSH0 DUP2 CALLDATALOAD SWAP1 POP PUSH2 0x128B DUP2 PUSH2 0x1267 JUMP JUMPDEST SWAP3 SWAP2 POP POP JUMP JUMPDEST PUSH0 DUP1 PUSH0 DUP1 PUSH0 PUSH1 0xA0 DUP7 DUP9 SUB SLT ISZERO PUSH2 0x12AA JUMPI PUSH2 0x12A9 PUSH2 0xD90 JUMP JUMPDEST JUMPDEST PUSH0 PUSH2 0x12B7 DUP9 DUP3 DUP10 ADD PUSH2 0xDB7 JUMP JUMPDEST SWAP6 POP POP PUSH1 0x20 DUP7 ADD CALLDATALOAD PUSH8 0xFFFFFFFFFFFFFFFF DUP2 GT ISZERO PUSH2 0x12D8 JUMPI PUSH2 0x12D7 PUSH2 0xD94 JUMP JUMPDEST JUMPDEST PUSH2 0x12E4 DUP9 DUP3 DUP10 ADD PUSH2 0x123A JUMP JUMPDEST SWAP5 POP POP PUSH1 0x40 DUP7 ADD CALLDATALOAD PUSH8 0xFFFFFFFFFFFFFFFF DUP2 GT ISZERO PUSH2 0x1305 JUMPI PUSH2 0x1304 PUSH2 0xD94 JUMP JUMPDEST JUMPDEST PUSH2 0x1311 DUP9 DUP3 DUP10 ADD PUSH2 0x123A JUMP JUMPDEST SWAP4 POP POP PUSH1 0x60 DUP7 ADD CALLDATALOAD PUSH8 0xFFFFFFFFFFFFFFFF DUP2 GT ISZERO PUSH2 0x1332 JUMPI PUSH2 0x1331 PUSH2 0xD94 JUMP JUMPDEST JUMPDEST PUSH2 0x133E DUP9 DUP3 DUP10 ADD PUSH2 0x123A JUMP JUMPDEST SWAP3 POP POP PUSH1 0x80 PUSH2 0x134F DUP9 DUP3 DUP10 ADD PUSH2 0x127D JUMP JUMPDEST SWAP2 POP POP SWAP3 SWAP6 POP SWAP3 SWAP6 SWAP1 SWAP4 POP JUMP JUMPDEST PUSH32 0x4E487B7100000000000000000000000000000000000000000000000000000000 PUSH0 MSTORE PUSH1 0x22 PUSH1 0x4 MSTORE PUSH1 0x24 PUSH0 REVERT JUMPDEST PUSH0 PUSH1 0x2 DUP3 DIV SWAP1 POP PUSH1 0x1 DUP3 AND DUP1 PUSH2 0x13A0 JUMPI PUSH1 0x7F DUP3 AND SWAP2 POP JUMPDEST PUSH1 0x20 DUP3 LT DUP2 SUB PUSH2 0x13B3 JUMPI PUSH2 0x13B2 PUSH2 0x135C JUMP JUMPDEST JUMPDEST POP SWAP2 SWAP1 POP JUMP JUMPDEST PUSH32 0x5472697020646F6573206E6F7420657869737400000000000000000000000000 PUSH0 DUP3 ADD MSTORE POP JUMP JUMPDEST PUSH0 PUSH2 0x13ED PUSH1 0x13 DUP4 PUSH2 0xE0F JUMP JUMPDEST SWAP2 POP PUSH2 0x13F8 DUP3 PUSH2 0x13B9 JUMP JUMPDEST PUSH1 0x20 DUP3 ADD SWAP1 POP SWAP2 SWAP1 POP JUMP JUMPDEST PUSH0 PUSH1 0x20 DUP3 ADD SWAP1 POP DUP2 DUP2 SUB PUSH0 DUP4 ADD MSTORE PUSH2 0x141A DUP2 PUSH2 0x13E1 JUMP JUMPDEST SWAP1 POP SWAP2 SWAP1 POP JUMP JUMPDEST PUSH32 0x5472697020616C726561647920636F6D706C6574656400000000000000000000 PUSH0 DUP3 ADD MSTORE POP JUMP JUMPDEST PUSH0 PUSH2 0x1455 PUSH1 0x16 DUP4 PUSH2 0xE0F JUMP JUMPDEST SWAP2 POP PUSH2 0x1460 DUP3 PUSH2 0x1421 JUMP JUMPDEST PUSH1 0x20 DUP3 ADD SWAP1 POP SWAP2 SWAP1 POP JUMP JUMPDEST PUSH0 PUSH1 0x20 DUP3 ADD SWAP1 POP DUP2 DUP2 SUB PUSH0 DUP4 ADD MSTORE PUSH2 0x1482 DUP2 PUSH2 0x1449 JUMP JUMPDEST SWAP1 POP SWAP2 SWAP1 POP JUMP JUMPDEST PUSH32 0x4E487B7100000000000000000000000000000000000000000000000000000000 PUSH0 MSTORE PUSH1 0x11 PUSH1 0x4 MSTORE PUSH1 0x24 PUSH0 REVERT JUMPDEST PUSH0 PUSH2 0x14C0 DUP3 PUSH2 0xD98 JUMP JUMPDEST SWAP2 POP PUSH2 0x14CB DUP4 PUSH2 0xD98 JUMP JUMPDEST SWAP3 POP DUP3 DUP3 MUL PUSH2 0x14D9 DUP2 PUSH2 0xD98 JUMP JUMPDEST SWAP2 POP DUP3 DUP3 DIV DUP5 EQ DUP4 ISZERO OR PUSH2 0x14F0 JUMPI PUSH2 0x14EF PUSH2 0x1489 JUMP JUMPDEST JUMPDEST POP SWAP3 SWAP2 POP POP JUMP JUMPDEST PUSH32 0x4E487B7100000000000000000000000000000000000000000000000000000000 PUSH0 MSTORE PUSH1 0x12 PUSH1 0x4 MSTORE PUSH1 0x24 PUSH0 REVERT JUMPDEST PUSH0 PUSH2 0x152E DUP3 PUSH2 0xD98 JUMP JUMPDEST SWAP2 POP PUSH2 0x1539 DUP4 PUSH2 0xD98 JUMP JUMPDEST SWAP3 POP DUP3 PUSH2 0x1549 JUMPI PUSH2 0x1548 PUSH2 0x14F7 JUMP JUMPDEST JUMPDEST DUP3 DUP3 DIV SWAP1 POP SWAP3 SWAP2 POP POP JUMP JUMPDEST PUSH0 PUSH2 0x155E DUP3 PUSH2 0xD98 JUMP JUMPDEST SWAP2 POP PUSH2 0x1569 DUP4 PUSH2 0xD98 JUMP JUMPDEST SWAP3 POP DUP3 DUP3 SUB SWAP1 POP DUP2 DUP2 GT ISZERO PUSH2 0x1581 JUMPI PUSH2 0x1580 PUSH2 0x1489 JUMP JUMPDEST JUMPDEST SWAP3 SWAP2 POP POP JUMP JUMPDEST PUSH32 0x496E73756666696369656E742066756E647320746F206A6F696E207468652074 PUSH0 DUP3 ADD MSTORE PUSH32 0x7269700000000000000000000000000000000000000000000000000000000000 PUSH1 0x20 DUP3 ADD MSTORE POP JUMP JUMPDEST PUSH0 PUSH2 0x15E1 PUSH1 0x23 DUP4 PUSH2 0xE0F JUMP JUMPDEST SWAP2 POP PUSH2 0x15EC DUP3 PUSH2 0x1587 JUMP JUMPDEST PUSH1 0x40 DUP3 ADD SWAP1 POP SWAP2 SWAP1 POP JUMP JUMPDEST PUSH0 PUSH1 0x20 DUP3 ADD SWAP1 POP DUP2 DUP2 SUB PUSH0 DUP4 ADD MSTORE PUSH2 0x160E DUP2 PUSH2 0x15D5 JUMP JUMPDEST SWAP1 POP SWAP2 SWAP1 POP JUMP JUMPDEST PUSH0 PUSH1 0xA0 DUP3 ADD SWAP1 POP PUSH2 0x1628 PUSH0 DUP4 ADD DUP9 PUSH2 0xDF6 JUMP JUMPDEST PUSH2 0x1635 PUSH1 0x20 DUP4 ADD DUP8 PUSH2 0xED9 JUMP JUMPDEST PUSH2 0x1642 PUSH1 0x40 DUP4 ADD DUP7 PUSH2 0xDF6 JUMP JUMPDEST PUSH2 0x164F PUSH1 0x60 DUP4 ADD DUP6 PUSH2 0xDF6 JUMP JUMPDEST PUSH2 0x165C PUSH1 0x80 DUP4 ADD DUP5 PUSH2 0xFA8 JUMP JUMPDEST SWAP7 SWAP6 POP POP POP POP POP POP JUMP JUMPDEST PUSH32 0x4F6E6C7920746865206472697665722063616E20706572666F726D2074686973 PUSH0 DUP3 ADD MSTORE PUSH32 0x20616374696F6E00000000000000000000000000000000000000000000000000 PUSH1 0x20 DUP3 ADD MSTORE POP JUMP JUMPDEST PUSH0 PUSH2 0x16C0 PUSH1 0x27 DUP4 PUSH2 0xE0F JUMP JUMPDEST SWAP2 POP PUSH2 0x16CB DUP3 PUSH2 0x1666 JUMP JUMPDEST PUSH1 0x40 DUP3 ADD SWAP1 POP SWAP2 SWAP1 POP JUMP JUMPDEST PUSH0 PUSH1 0x20 DUP3 ADD SWAP1 POP DUP2 DUP2 SUB PUSH0 DUP4 ADD MSTORE PUSH2 0x16ED DUP2 PUSH2 0x16B4 JUMP JUMPDEST SWAP1 POP SWAP2 SWAP1 POP JUMP JUMPDEST PUSH0 PUSH2 0x16FE DUP3 PUSH2 0xD98 JUMP JUMPDEST SWAP2 POP PUSH32 0xFFFFFFFFFFFFFFFFFFFFFFFFFFFFFFFFFFFFFFFFFFFFFFFFFFFFFFFFFFFFFFFF DUP3 SUB PUSH2 0x1730 JUMPI PUSH2 0x172F PUSH2 0x1489 JUMP JUMPDEST JUMPDEST PUSH1 0x1 DUP3 ADD SWAP1 POP SWAP2 SWAP1 POP JUMP JUMPDEST PUSH0 DUP2 SWAP1 POP DUP2 PUSH0 MSTORE PUSH1 0x20 PUSH0 KECCAK256 SWAP1 POP SWAP2 SWAP1 POP JUMP JUMPDEST PUSH0 PUSH1 0x20 PUSH1 0x1F DUP4 ADD DIV SWAP1 POP SWAP2 SWAP1 POP JUMP JUMPDEST PUSH0 DUP3 DUP3 SHL SWAP1 POP SWAP3 SWAP2 POP POP JUMP JUMPDEST PUSH0 PUSH1 0x8 DUP4 MUL PUSH2 0x1797 PUSH32 0xFFFFFFFFFFFFFFFFFFFFFFFFFFFFFFFFFFFFFFFFFFFFFFFFFFFFFFFFFFFFFFFF DUP3 PUSH2 0x175C JUMP JUMPDEST PUSH2 0x17A1 DUP7 DUP4 PUSH2 0x175C JUMP JUMPDEST SWAP6 POP DUP1 NOT DUP5 AND SWAP4 POP DUP1 DUP7 AND DUP5 OR SWAP3 POP POP POP SWAP4 SWAP3 POP POP POP JUMP JUMPDEST PUSH0 DUP2 SWAP1 POP SWAP2 SWAP1 POP JUMP JUMPDEST PUSH0 PUSH2 0x17DC PUSH2 0x17D7 PUSH2 0x17D2 DUP5 PUSH2 0xD98 JUMP JUMPDEST PUSH2 0x17B9 JUMP JUMPDEST PUSH2 0xD98 JUMP JUMPDEST SWAP1 POP SWAP2 SWAP1 POP JUMP JUMPDEST PUSH0 DUP2 SWAP1 POP SWAP2 SWAP1 POP JUMP JUMPDEST PUSH2 0x17F5 DUP4 PUSH2 0x17C2 JUMP JUMPDEST PUSH2 0x1809 PUSH2 0x1801 DUP3 PUSH2 0x17E3 JUMP JUMPDEST DUP5 DUP5 SLOAD PUSH2 0x1768 JUMP JUMPDEST DUP3 SSTORE POP POP POP POP JUMP JUMPDEST PUSH0 SWAP1 JUMP JUMPDEST PUSH2 0x181D PUSH2 0x1811 JUMP JUMPDEST PUSH2 0x1828 DUP2 DUP5 DUP5 PUSH2 0x17EC JUMP JUMPDEST POP POP POP JUMP JUMPDEST JUMPDEST DUP2 DUP2 LT ISZERO PUSH2 0x184B JUMPI PUSH2 0x1840 PUSH0 DUP3 PUSH2 0x1815 JUMP JUMPDEST PUSH1 0x1 DUP2 ADD SWAP1 POP PUSH2 0x182E JUMP JUMPDEST POP POP JUMP JUMPDEST PUSH1 0x1F DUP3 GT ISZERO PUSH2 0x1890 JUMPI PUSH2 0x1861 DUP2 PUSH2 0x173B JUMP JUMPDEST PUSH2 0x186A DUP5 PUSH2 0x174D JUMP JUMPDEST DUP2 ADD PUSH1 0x20 DUP6 LT ISZERO PUSH2 0x1879 JUMPI DUP2 SWAP1 POP JUMPDEST PUSH2 0x188D PUSH2 0x1885 DUP6 PUSH2 0x174D JUMP JUMPDEST DUP4 ADD DUP3 PUSH2 0x182D JUMP JUMPDEST POP POP JUMPDEST POP POP POP JUMP JUMPDEST PUSH0 DUP3 DUP3 SHR SWAP1 POP SWAP3 SWAP2 POP POP JUMP JUMPDEST PUSH0 PUSH2 0x18B0 PUSH0 NOT DUP5 PUSH1 0x8 MUL PUSH2 0x1895 JUMP JUMPDEST NOT DUP1 DUP4 AND SWAP2 POP POP SWAP3 SWAP2 POP POP JUMP JUMPDEST PUSH0 PUSH2 0x18C8 DUP4 DUP4 PUSH2 0x18A1 JUMP JUMPDEST SWAP2 POP DUP3 PUSH1 0x2 MUL DUP3 OR SWAP1 POP SWAP3 SWAP2 POP POP JUMP JUMPDEST PUSH2 0x18E1 DUP3 PUSH2 0xE05 JUMP JUMPDEST PUSH8 0xFFFFFFFFFFFFFFFF DUP2 GT ISZERO PUSH2 0x18FA JUMPI PUSH2 0x18F9 PUSH2 0x1143 JUMP JUMPDEST JUMPDEST PUSH2 0x1904 DUP3 SLOAD PUSH2 0x1389 JUMP JUMPDEST PUSH2 0x190F DUP3 DUP3 DUP6 PUSH2 0x184F JUMP JUMPDEST PUSH0 PUSH1 0x20 SWAP1 POP PUSH1 0x1F DUP4 GT PUSH1 0x1 DUP2 EQ PUSH2 0x1940 JUMPI PUSH0 DUP5 ISZERO PUSH2 0x192E JUMPI DUP3 DUP8 ADD MLOAD SWAP1 POP JUMPDEST PUSH2 0x1938 DUP6 DUP3 PUSH2 0x18BD JUMP JUMPDEST DUP7 SSTORE POP PUSH2 0x199F JUMP JUMPDEST PUSH1 0x1F NOT DUP5 AND PUSH2 0x194E DUP7 PUSH2 0x173B JUMP JUMPDEST PUSH0 JUMPDEST DUP3 DUP2 LT ISZERO PUSH2 0x1975 JUMPI DUP5 DUP10 ADD MLOAD DUP3 SSTORE PUSH1 0x1 DUP3 ADD SWAP2 POP PUSH1 0x20 DUP6 ADD SWAP5 POP PUSH1 0x20 DUP2 ADD SWAP1 POP PUSH2 0x1950 JUMP JUMPDEST DUP7 DUP4 LT ISZERO PUSH2 0x1992 JUMPI DUP5 DUP10 ADD MLOAD PUSH2 0x198E PUSH1 0x1F DUP10 AND DUP3 PUSH2 0x18A1 JUMP JUMPDEST DUP4 SSTORE POP JUMPDEST PUSH1 0x1 PUSH1 0x2 DUP9 MUL ADD DUP9 SSTORE POP POP POP JUMPDEST POP POP POP POP POP POP JUMP JUMPDEST PUSH0 PUSH1 0x80 DUP3 ADD SWAP1 POP PUSH2 0x19BA PUSH0 DUP4 ADD DUP8 PUSH2 0xDF6 JUMP JUMPDEST PUSH2 0x19C7 PUSH1 0x20 DUP4 ADD DUP7 PUSH2 0xED9 JUMP JUMPDEST PUSH2 0x19D4 PUSH1 0x40 DUP4 ADD DUP6 PUSH2 0xDF6 JUMP JUMPDEST DUP2 DUP2 SUB PUSH1 0x60 DUP4 ADD MSTORE PUSH2 0x19E6 DUP2 DUP5 PUSH2 0xE57 JUMP JUMPDEST SWAP1 POP SWAP6 SWAP5 POP POP POP POP POP JUMP INVALID LOG2 PUSH5 0x6970667358 0x22 SLT KECCAK256 EXTCODEHASH 0xC9 0xC9 DUP14 PUSH21 0xCA0BD67ACD89B5C726871DC4764A1E2B4C718355EE SWAP14 SUB MSIZE 0xEB 0xED 0x24 PUSH5 0x736F6C6343 STOP ADDMOD XOR STOP CALLER "
				},
				"gasEstimates": {
					"creation": {
						"codeDepositCost": "1339000",
						"executionCost": "6408",
						"totalCost": "1345408"
					},
					"external": {
						"completeTrip(uint256)": "infinite",
						"createTrip(uint256,string,string,string,bool)": "infinite",
						"getTransactionDetails(bytes32)": "infinite",
						"getTripDetails(uint256)": "infinite",
						"joinTrip(uint256)": "infinite",
						"taxRate()": "347",
						"tripCounter()": "2425"
					}
				},
				"methodIdentifiers": {
					"completeTrip(uint256)": "c1917e79",
					"createTrip(uint256,string,string,string,bool)": "c99e7333",
					"getTransactionDetails(bytes32)": "515a39b6",
					"getTripDetails(uint256)": "124c128e",
					"joinTrip(uint256)": "13c3ea33",
					"taxRate()": "771a3a1d",
					"tripCounter()": "6fa4ec27"
				}
			},
			"storageLayout": {
				"storage": [
					{
						"astId": 46,
						"contract": "contracts/TaxiChain.sol:TaxiService",
						"label": "trips",
						"offset": 0,
						"slot": "0",
						"type": "t_mapping(t_uint256,t_struct(Trip)28_storage)"
					},
					{
						"astId": 51,
						"contract": "contracts/TaxiChain.sol:TaxiService",
						"label": "transactions",
						"offset": 0,
						"slot": "1",
						"type": "t_mapping(t_bytes32,t_struct(Transaction)41_storage)"
					},
					{
						"astId": 53,
						"contract": "contracts/TaxiChain.sol:TaxiService",
						"label": "tripCounter",
						"offset": 0,
						"slot": "2",
						"type": "t_uint256"
					}
				],
				"types": {
					"t_address": {
						"encoding": "inplace",
						"label": "address",
						"numberOfBytes": "20"
					},
					"t_array(t_address)dyn_storage": {
						"base": "t_address",
						"encoding": "dynamic_array",
						"label": "address[]",
						"numberOfBytes": "32"
					},
					"t_bool": {
						"encoding": "inplace",
						"label": "bool",
						"numberOfBytes": "1"
					},
					"t_bytes32": {
						"encoding": "inplace",
						"label": "bytes32",
						"numberOfBytes": "32"
					},
					"t_mapping(t_bytes32,t_struct(Transaction)41_storage)": {
						"encoding": "mapping",
						"key": "t_bytes32",
						"label": "mapping(bytes32 => struct TaxiService.Transaction)",
						"numberOfBytes": "32",
						"value": "t_struct(Transaction)41_storage"
					},
					"t_mapping(t_uint256,t_struct(Trip)28_storage)": {
						"encoding": "mapping",
						"key": "t_uint256",
						"label": "mapping(uint256 => struct TaxiService.Trip)",
						"numberOfBytes": "32",
						"value": "t_struct(Trip)28_storage"
					},
					"t_string_storage": {
						"encoding": "bytes",
						"label": "string",
						"numberOfBytes": "32"
					},
					"t_struct(Transaction)41_storage": {
						"encoding": "inplace",
						"label": "struct TaxiService.Transaction",
						"members": [
							{
								"astId": 30,
								"contract": "contracts/TaxiChain.sol:TaxiService",
								"label": "tripCode",
								"offset": 0,
								"slot": "0",
								"type": "t_uint256"
							},
							{
								"astId": 32,
								"contract": "contracts/TaxiChain.sol:TaxiService",
								"label": "passenger",
								"offset": 0,
								"slot": "1",
								"type": "t_address"
							},
							{
								"astId": 34,
								"contract": "contracts/TaxiChain.sol:TaxiService",
								"label": "amount",
								"offset": 0,
								"slot": "2",
								"type": "t_uint256"
							},
							{
								"astId": 36,
								"contract": "contracts/TaxiChain.sol:TaxiService",
								"label": "tax",
								"offset": 0,
								"slot": "3",
								"type": "t_uint256"
							},
							{
								"astId": 38,
								"contract": "contracts/TaxiChain.sol:TaxiService",
								"label": "transactionHash",
								"offset": 0,
								"slot": "4",
								"type": "t_bytes32"
							},
							{
								"astId": 40,
								"contract": "contracts/TaxiChain.sol:TaxiService",
								"label": "timestamp",
								"offset": 0,
								"slot": "5",
								"type": "t_uint256"
							}
						],
						"numberOfBytes": "192"
					},
					"t_struct(Trip)28_storage": {
						"encoding": "inplace",
						"label": "struct TaxiService.Trip",
						"members": [
							{
								"astId": 6,
								"contract": "contracts/TaxiChain.sol:TaxiService",
								"label": "tripCode",
								"offset": 0,
								"slot": "0",
								"type": "t_uint256"
							},
							{
								"astId": 8,
								"contract": "contracts/TaxiChain.sol:TaxiService",
								"label": "rankName",
								"offset": 0,
								"slot": "1",
								"type": "t_string_storage"
							},
							{
								"astId": 10,
								"contract": "contracts/TaxiChain.sol:TaxiService",
								"label": "registration",
								"offset": 0,
								"slot": "2",
								"type": "t_string_storage"
							},
							{
								"astId": 12,
								"contract": "contracts/TaxiChain.sol:TaxiService",
								"label": "verified",
								"offset": 0,
								"slot": "3",
								"type": "t_bool"
							},
							{
								"astId": 14,
								"contract": "contracts/TaxiChain.sol:TaxiService",
								"label": "route",
								"offset": 0,
								"slot": "4",
								"type": "t_string_storage"
							},
							{
								"astId": 16,
								"contract": "contracts/TaxiChain.sol:TaxiService",
								"label": "price",
								"offset": 0,
								"slot": "5",
								"type": "t_uint256"
							},
							{
								"astId": 18,
								"contract": "contracts/TaxiChain.sol:TaxiService",
								"label": "capacity",
								"offset": 0,
								"slot": "6",
								"type": "t_uint256"
							},
							{
								"astId": 20,
								"contract": "contracts/TaxiChain.sol:TaxiService",
								"label": "driver",
								"offset": 0,
								"slot": "7",
								"type": "t_address"
							},
							{
								"astId": 23,
								"contract": "contracts/TaxiChain.sol:TaxiService",
								"label": "passengers",
								"offset": 0,
								"slot": "8",
								"type": "t_array(t_address)dyn_storage"
							},
							{
								"astId": 25,
								"contract": "contracts/TaxiChain.sol:TaxiService",
								"label": "transactionHash",
								"offset": 0,
								"slot": "9",
								"type": "t_bytes32"
							},
							{
								"astId": 27,
								"contract": "contracts/TaxiChain.sol:TaxiService",
								"label": "completed",
								"offset": 0,
								"slot": "10",
								"type": "t_bool"
							}
						],
						"numberOfBytes": "352"
					},
					"t_uint256": {
						"encoding": "inplace",
						"label": "uint256",
						"numberOfBytes": "32"
					}
				}
			},
			"userdoc": {
				"kind": "user",
				"methods": {},
				"version": 1
			}
		}
	}
}